:020000040800F2
:100000002015002005010008E714000893140008DB
:10001000E5140008130200085B1F00080000000040
:10002000000000000000000000000000751A000839
:100030001502000800000000E9140008771A000803
:100040001F0100081F0100081F0100081F01000810
:100050001F0100081F0100081F0100081F01000800
:100060001F0100081F0100081F0100081F010008F0
:100070001F0100081F0100081F0100081F010008E0
:100080001F0100081F0100081F0100081F010008D0
:100090001F0100081F0100081F0100081F010008C0
:1000A0001F0100081F0100081F0100081F010008B0
:1000B0001F0100081F0100081F0100081F010008A0
:1000C0001F0100081F0100081F0100081F01000890
:1000D0001F010008891E00081F0100081F010008F9
:1000E0001F0100081F0100081F010008DFF810D0E1
:1000F00000F06EF800480047B1400008AFF3008000
:10010000201500200648804706480047FEE7FEE726
:10011000FEE7FEE7FEE7FEE7FEE7FEE7FEE7FEE7B7
:10012000C91A0008ED000008202A04DB203A21FA51
:1001300002F00021704721FA02F3D040C2F1200200
:100140009140084319467047D2B201E000F8012BF4
:10015000491EFBD270470022F6E710B513460A4647
:1001600004461946FFF7F0FF204610BD2DE9F05F69
:100170000546002092469B46884606468146402416
:100180001BE02846414647462246FFF7CDFF53462F
:100190005A46C01A914110D311461846224600F023
:1001A00029F82D1A67EB01084F462246012000214D
:1001B00000F020F817EB00094E41201EA4F10104C5
:1001C000DFDC484631462A464346BDE8F09F000042
:1001D000064C074D06E0E06840F0010394E8070094
:1001E00098471034AC42F6D3FFF784FFE44500088B
:1001F00004460008202A04DB203A00FA02F100201D
:1002000070479140C2F1200320FA03F31943904054
:100210007047FEE770470022AFF3008010B48446B9
:1002200001200F4B5C7A012C17D8587A00241C54FB
:10023000587A03EB8000C0F804C0587A03F1080C28
:1002400000F80C20587A421C5A72303008703A205C
:1002500048702F208870CC70002010BC70470000C0
:100260001001002000B5ADF50F7D01F0ABF90128BC
:1002700019D017A001F068FF01221AA1684603F007
:1002800087F918B1214618A001F05EFF8CAA8DA94C
:1002900014A002F0A5FC40B121461CA001F054FFBF
:1002A0000DF50F7D00BD22A0E4E78C988D9AD0F863
:1002B000141290F80202891E41435043C0F3CF222A
:1002C000C1F3CF218B1A1FA001F03EFFE8E7000029
:1002D0005344BFA8B3F5CABCBBAFB3C9B9A6A3A169
:1002E000200D0A00303A000046696C65537973743A
:1002F000656D204D6F756E746564204661696C652F
:100300006420282564290D0A000000004765742038
:10031000534443617264204361706163697479205E
:100320004661696C656420282564290D0A00000077
:100330005344BFA8B3F5CABCBBAFCAA7B0DC2120E9
:100340000D0A00000D0A2564204D4220746F74616F
:100350006C2064726976652073706163652E0D0A86
:100360002564204D4220617661696C61626C652E66
:100370000D0A2564204D422020757365642E0D0AF8
:100380000000000010B5002490F82110022903D0CD
:1003900004218163012437E001680A6822F00E021B
:1003A0000A6001680A6822F001020A60174A0168BF
:1003B000914201D101211CE0154A914201D1102145
:1003C00017E0144A914201D1891512E0124A914274
:1003D00001D189140DE0114A914202D14FF48031CC
:1003E00007E00F4A914202D14FF4801101E04FF033
:1003F00080710C4A5160012180F82110002180F8A1
:100400002010416B01B18847204610BD0800024012
:100410001C000240300002404400024058000240EC
:100420006C0002400000024070B5044600F010F974
:100430000546B4F1FF3F02D004480078044400F0C0
:1004400007F9401BA042FAD370BD0000480000200D
:100450002DE9F84F00239C46DFF8D8810F2708F1DB
:10046000040909F1040A0AF1040B012202FA0CF64C
:100470000A683240B2427CD1DFF8BCE14C68A4EBA0
:100480000E0574452BD00DDC032C34D005DC34B3C1
:10049000012C19D0022C2FD11BE0112C16D0122CBC
:1004A0002AD119E0B5F5881F19D006DCB5F5803FD3
:1004B00015D0B5F5801F1FD111E0B5F5001F0ED086
:1004C000B5F5041F18D10AE0CB6815E0CB681B1DF9
:1004D00012E0CB6808330FE0CB680C330CE08B687C
:1004E00023B1012B04D00823466105E0042303E077
:1004F0000823066100E00023B2F5807F01D20546A3
:1005000001E000F1040502D24FEA8C0403E0ACF1F3
:1005100008044FEA84042E6807FA04FE26EA0E0651
:1005200003FA04F446EA04042C604C6814F0805F7B
:1005300078D0424CA56945F00105A561A46904F095
:10054000010400942CF0030404F1804404F5803489
:10055000A6684FEA8C754FEA157507FA05FE26EA7C
:100560000E0EA0F18046B6F5843620D0A0F180466C
:1005700000E057E0B6F586361BD0A0F18046B6F510
:10058000883618D0A0F18046B6F58A3615D00426F4
:1005900006FA05F545EA0E05A5604C6814F4803F9F
:1005A0000DD0D8F800401443C8F800400CE00026F5
:1005B000EEE70126ECE70226EAE70326E8E7D8F8AB
:1005C00000409443C8F800404C6814F4003F05D044
:1005D000D9F800401443C9F8004004E0D9F80040BD
:1005E0009443C9F800404C6814F4801F05D0DAF831
:1005F00000401443CAF8004004E0DAF80040944395
:10060000CAF800404C6814F4001F05D0DBF8004025
:100610002243CBF8002005E0DBF8004024EA020288
:10062000CBF800200CF1010CBCF1100FFFF41DAF52
:10063000BDE8F88F000401400000111000100240D6
:10064000002A01D001617047090401617047000070
:100650000148806870470000480000200248816817
:1006600002781144816070474800002010B50748A7
:10067000016841F010010160032000F089F80020BA
:1006800000F006F800F026F8002010BD002002401F
:1006900070B504460D4D4FF47A712878B1FBF0F037
:1006A0000B490968B1FBF0F000F034FD08B10120FE
:1006B00070BD102C07D200222146501E00F034F8E5
:1006C0006C60002070BD012070BD0000480000205B
:1006D000440000200C4808B5816941F001018161A6
:1006E000816901F001010091C16941F08051C1614E
:1006F000C06900F0805000900448416821F0E0613A
:1007000041F00071416008BD00100240000001404E
:1007100000F01F01012202FA01F14009800000F1FE
:10072000E020C0F80011704710B4184B1B68C3F3E9
:100730000223C3F1070CBCF1040F01D94FF0040CE4
:100740001C1D072C01D2002300E0DB1E012404FA4B
:100750000CFCACF1010C0CEA0101994004FA03F322
:100760005B1E1A401143002808DA00F00F0000F168
:10077000E020090180F8141D10BC704700F1E02052
:10078000090180F8001410BC704700000CED00E077
:1007900000F00700064A11684FF6FF03194041EACE
:1007A000002040F0FD7040F0806010607047000055
:1007B0000CED00E02DE9F04704460D46DFF8A0817E
:1007C000D8F8000000F00700A8420FD2D8F80000C7
:1007D00020F007002843C8F80000D8F8000000F017
:1007E0000700A84202D00120BDE8F08720685D4FD5
:1007F00010F0020F14D010F0040F03D0786840F40A
:10080000E0607860207810F0080F03D0786840F43A
:10081000605078607868A16820F0F0000843786044
:10082000207810F0010F5FD06068012806D0022800
:100830000BD0396811F0020F29D00AE0396811F4A1
:10084000003F06D10120BDE8F087396811F0007F34
:100850001AD0796821F0030108437860FFF7F8FEA9
:100860000646606841F28839012813D0022824D056
:10087000786810F00C0F37D0FFF7EAFE801B484570
:100880002ED90320BDE8F0870120BDE8F0870120C4
:10089000BDE8F087786800F00C00042824D0FFF74A
:1008A000D7FE801B484502D90320BDE8F087786851
:1008B00000F00C000428F2D116E0786800F00C007B
:1008C000082811D0FFF7C4FE801B484502D9032039
:1008D000BDE8F087786800F00C000828F2D103E04A
:1008E000786810F00C0FC7D1D8F8000000F00700AE
:1008F000A8420FD9D8F8000020F007002843C8F814
:100900000000D8F8000000F00700A84202D0012043
:10091000BDE8F087207810F0040F05D07868E16812
:1009200020F4E06008437860207810F0080F06D0CB
:100930007868216920F4605040EAC100786000F0D6
:100940003DF87968084AC1F30311515CC840074972
:1009500008600020FFF79CFE0020BDE8F087000043
:1009600000200240001002401E4500084400002004
:1009700001480068704700004400002000B5FFF700
:10098000F7FF04494968044AC1F30221515CC84099
:1009900000BD0000001002402E45000800B5FFF722
:1009A000E7FF04494968044AC1F3C221515CC840C9
:1009B00000BD0000001002402E45000885B015A0C3
:1009C000836842680168C0680393029201910490B1
:1009D00014A000680090144B5968144801F00C02F0
:1009E000042A11D0082A0FD101A8C1F38342805CE8
:1009F00011F4803F0AD05968C1F340411DF801103D
:100A00000A4A5043B0FBF1F005B07047084905B001
:100A10004843704702030405060708090A0B0C0D3A
:100A20000E0F1010010200000010024000127A00A8
:100A300000093D002DE9F84F0446FA4D207810F0EA
:100A4000010F68D0686800F00C00042808D06868BE
:100A500000F00C0008280DD1686810F4803F09D020
:100A6000286810F4003F56D06068002853D1012058
:100A7000BDE8F88F6068B0F5803F15D0C8B1B0F51B
:100A8000A02F1FD0286820F480302860286820F428
:100A900080202860606858B3FFF7DAFD06462868B2
:100AA00010F4003F17D036E0286840F4803028600A
:100AB000F0E7286820F480302860286820F480203F
:100AC0002860E7E7286840F480202860286840F420
:100AD00080302860DEE7FFF7BBFD801B642802D969
:100AE0000320BDE8F88F286810F4003FF3D012E02F
:100AF000FFF7AEFD0646286810F4003F0BD0FFF765
:100B0000A7FD801B642802D90320BDE8F88F286860
:100B100010F4003FF3D12078C34F10F0020F4FF0D4
:100B2000010B4FF0000854D0686810F00C0F14D07F
:100B3000686800F00C00082803D1686810F4803F52
:100B40000BD0206978B3C7F800B0FFF781FD0646E7
:100B5000286810F0020F12D01DE0286810F0020F74
:100B600005D02069012802D00120BDE8F88F28684F
:100B7000616920F0F80040EAC100286029E0FFF731
:100B800067FD801B022802D90320BDE8F88F286882
:100B900010F0020FF3D02868616920F0F80040EAF5
:100BA000C100286015E0FFE7C7F80080FFF750FD9F
:100BB0000646286810F0020F0BD0FFF749FD801B96
:100BC000022802D90320BDE8F88F286810F0020F30
:100BD000F3D1207810F0080F30D09448A169C1B14A
:100BE000C0F800B0FFF734FD0646686A10F0020F47
:100BF0000BD1FFF72DFD801B022802D90320BDE891
:100C0000F88F686A10F0020FF3D0012000F06EFC3C
:100C100014E0C0F80080FFF71BFD0646686A10F07C
:100C2000020F0BD0FFF714FD801B022802D903200E
:100C3000BDE8F88F686A10F0020FF3D1207810F049
:100C4000040F6FD00026E86910F0805F08D1E869D2
:100C500040F08050E861E86900F080500090012683
:100C6000DFF8CCA1DAF8000010F4807F1BD1DAF8AD
:100C7000000040F48070CAF80000FFF7E9FC8146EC
:100C8000DAF8000010F4807F0DD1FFF7E1FCA0EB53
:100C90000900642802D90320BDE8F88FDAF80000C3
:100CA00010F4807FF1D0E068012816D0D0B105287B
:100CB00021D0286A20F001002862286A20F0040070
:100CC0002862E06841F2883A68B3FFF7C1FC8146C8
:100CD000286A10F0020F17D03AE0286A40F00100AD
:100CE0002862EEE7286A20F001002862286A20F0D6
:100CF00004002862E5E7286A40F004002862286AB8
:100D000040F001002862DCE7FFF7A2FCA0EB09003D
:100D1000504502D90320BDE8F88F286A10F0020F71
:100D2000F2D015E01AE0FFE7FFF792FC8146286A4F
:100D300010F0020F0CD0FFF78BFCA0EB0900504520
:100D400002D90320BDE8F88F286A10F0020FF2D113
:100D5000012E03D1E86920F08050E861E069E8B332
:100D6000696801F00C01082958D0022810D0C7F892
:100D70006080FFF76DFC0446286810F0007F4AD0C1
:100D8000FFF766FC001B022841D90320BDE8F88F5D
:100D9000C7F86080FFF75CFC0646286810F0007F0B
:100DA0000BD0FFF755FC801B022802D90320BDE8B9
:100DB000F88F286810F0007FF3D1206AB0F5803FEB
:100DC00005D16868A16820F4003008436860616A52
:100DD000206A0843696821F4741100E01BE00843AD
:100DE0006860C7F860B0FFF733FC0446286810F06D
:100DF000007F10D1FFF72CFC001B022802D9032032
:100E0000BDE8F88F286810F0007FF3D003E0286871
:100E100010F0007FB4D10020BDE8F88F0120BDE8BC
:100E2000F88F00000010024000004242800442425D
:100E30000070004070B50446002C05D00025A56266
:100E400094F8510010B104E0012070BD204600F07C
:100E500033F8022084F851002068016821F0400135
:100E60000160A168606822690843E1681143084392
:100E700061690843218B01F400710843E16908436B
:100E8000216A0843A16A084321680860A069042117
:100E900001EA1040616A0843216848602168E06AFD
:100EA00008612068C16921F40061C16165650120A4
:100EB00084F85100002070BD30B585B00024009446
:100EC00001940294039400681449884223D1144881
:100ED000816941F480518161816901F480510491FB
:100EE000816941F00401816180690E4D00F00400C8
:100EF0000490A020009002200190032003906946F6
:100F00002846FFF7A5FA4020CDE9000469462846A7
:100F10000294FFF79DFA05B030BD0000003001409B
:100F200000100240000801402DE9F84F0446DDF8AA
:100F300028800D4616469B4601274FF0000994F87D
:100F4000500001280ED0012084F85000FFF780FBEC
:100F5000824694F85100616801280ED0B1F5827F75
:100F600007D102E00220BDE8F88FA16809B9042882
:100F700003D04FF0020900F0C3B845B13EB1BBF158
:100F8000000F04D094F85100012803D005E04FF081
:100F90000109B5E0052084F8510000206065A663D2
:100FA000A4F83EB0A4F83CB02563A4F836B0A4F889
:100FB00034B0206460642068016811F0400F03D1F0
:100FC000016841F040010160E068B0F5006F05D0B4
:100FD0006068C8B3E08E01283ED06EE0606810B152
:100FE000E08E012831D121682888C860AD1CE08ED0
:100FF000401EE08629E06FB1E08E58B1206881681C
:1010000011F0020F06D02988C160AD1CE08E401E91
:10101000E0860027E08F58B12068816811F0010F49
:1010200006D0C0683080B61CE08F401EE0870127E4
:10103000B8F1FF3F09D0FFF70BFBA0EB0A004045DA
:1010400003D34FF003095BE006E0E08E0028D2D125
:10105000E08F0028CFD136E02168287808736D1C16
:10106000E08E401EE08628E06FB1E08E58B1206827
:10107000816811F0020F06D015F8011B0173E08E94
:10108000401EE0860027E08F58B12068816811F08B
:10109000010F06D0C06806F8010BE08F401EE08704
:1010A0000127B8F1FF3F08D0FFF7D2FAA0EB0A0002
:1010B000404502D34FF0030922E0E08E0028D3D14F
:1010C000E08F0028D0D14346012202212046CDF8EE
:1010D00000A000F073FC10B14FF0030910E052467D
:1010E0004146204600F058FC20B14FF00109202075
:1010F000606505E0A06818B92068C1688068009044
:10110000012084F85100002084F850004846BDE8D2
:10111000F88F0000401EB0F1807F01D3012070479E
:101120004FF0E0214861044AF020107000208861EF
:10113000072008610020704723ED00E070470000A1
:1011400010B5044622681068D168526900F00F0398
:10115000002B0AD110F0200F07D011F0200F04D07F
:101160002046BDE8104000F0F6BC002B6BD002F02A
:10117000010301F4907C53EA0C0364D010F0010FDA
:1011800006D011F4807F03D0E36B43F00103E363E7
:1011900010F0040F06D012F0010F03D0E36B43F000
:1011A0000203E36310F0020F06D012F0010F03D028
:1011B000E36B43F00403E36310F0080F06D012F072
:1011C000010F03D0E26B42F00802E263E26B002AF7
:1011D0002ED010F0200F05D011F0200F02D02046A5
:1011E00000F0B9FC20684069C0F38010E16B11F099
:1011F000080F00D108B3204600F092FC2068416936
:1012000011F0400F15D0416921F040014161606B40
:1012100058B118494163606BFFF7B4F8002807D054
:10122000606B416BBDE8104008472046FFF786FF22
:1012300010BD2046FFF782FF10BD2046FFF77EFF5E
:101240000020E06310BD10F0800F07D011F0800F78
:1012500004D02046BDE8104000F0A6BD10F0400FBD
:10126000F0D011F0400FEDD02046BDE8104000F066
:1012700065BC0000111B000870B50446002C04D0AA
:1012800094F83900002510B106E0012070BD84F803
:101290003850204600F022F8242084F839002068D5
:1012A000C16821F40051C160204600F0A3FC206811
:1012B000016921F4904101612068416921F02A010E
:1012C00041612068C16841F40051C160E56320209C
:1012D00084F8390084F83A00002070BD30B585B03C
:1012E00000240094019402940394006818498842F1
:1012F0002CD11848816941F480418161816901F4F0
:1013000080410491816941F0040181618069124D3D
:1013100000F0040004904FF400700090022001904F
:101320000320039069462846FFF792F82815CDE977
:101330000004694628460294FFF78AF80022114605
:101340002520FFF7F1F92520FFF7E2F905B030BDC0
:1013500000380140001002400008014090F83A3087
:10136000202B01D002207047F9B1F2B190F838304B
:10137000012B1CD081628285C2850021C16322229B
:1013800080F83A2080F838100168CA6842F4807208
:10139000CA6001684A6942F001024A610068C16896
:1013A00041F02001C16000207047012070470220F9
:1013B000704770472DE9F84304460D4691461E4696
:1013C00094F83900202802D00220BDE8F8834DB3FC
:1013D000B9F1000F26D094F83800012825D001205B
:1013E00084F838000027E763212084F83900FFF7EC
:1013F0002FF98046A4F82490A4F82690E08CA0B39E
:10140000E08C401EE084A068B0F5805F10D04346B9
:10141000002280212046009600F0F9FCF0B1032064
:10142000BDE8F8830120BDE8F8830220BDE8F88319
:101430004346002280212046009600F0E8FC10B1CF
:101440000320BDE8F88328882168C0F308004860BD
:10145000206908B16D1C05E0AD1C03E0216815F89A
:10146000010B4860E08C0028CAD14346002240218D
:101470002046009600F0CBFC10B10320BDE8F883B5
:10148000202084F8390084F838700020BDE8F88303
:101490007047FEE710B504490448FEF7BCFE024958
:1014A000491E087010BD00003D00002028000020EB
:1014B0000B480A494FF4007201604FF48271416099
:1014C00000218160C1600161C0E90512C161016252
:1014D000416281620A21C162FFF7ACBC0030014069
:1014E00060000020FEE770477047000081B00749A8
:1014F0004FF4FA520968B1FBF2F14843009000BF83
:101500000098411E0091FAD201B0704744000020BB
:10151000044B20B1002210211846FFF791B8012298
:10152000F9E700000008014070B5054601220021DE
:10153000092000F0F9F910F0FF0404D11021284629
:1015400000F066F904460020FFF7E2FF0CB101202D
:1015500070BD002070BD1FB56846FFF7E5FF10B1F4
:10156000002004B010BD9DF800100120B0EB911FC9
:1015700009D19DF808209DF8091000EB02200844CD
:1015800000048009EDE79DF805009DF80A1000F0C1
:101590000F0000EBD1109DF809109DF8072001F015
:1015A000030100EB41019DF80800800900EB820077
:1015B0009DF8062002F0030200EB8220401CC91FA8
:1015C0008840CEE72DE9F843DFF874913820C9F858
:1015D0001C000020FFF79CFF0024FF2002F0DEFE2D
:1015E000641CA4B20A2CF8D31424002195220846C6
:1015F00000F09AF9C5B2012D02D0641EA4B2F4D253
:10160000504E0027012D77706FD187224FF4D5718E
:10161000082000F089F94FF6FE78012823D0012236
:101620000021372000F080F901220021292000F05C
:101630007BF9C0B2012859D80220707042A000F096
:1016400083FD444601220021372000F06DF901227C
:101650000021292000F068F910F0FF0554D0641E25
:10166000A4B2EFD250E000246F46FF2002F096FEB5
:101670003855641CA4B2042CF7D39DF8020001284D
:101680004AD19DF80300AA2846D144464FF080482D
:1016900001220021372000F047F90122414629208C
:1016A00000F042F910F0FF0502D0641EA4B2EFD2A0
:1016B000DCB1012200213A2000F036F9A8B900245B
:1016C000FF2002F06BFE3855641CA4B2042CF7D343
:1016D0009DF80000400603D50620707020A002E0AF
:1016E0000420707024A000F02FFD15E00120707020
:1016F000444601220021104600F016F910F0FF05C3
:1017000002D0641EA4B2F4D22CB1012251021020E6
:1017100000F00AF900B177700120FFF7F9FE002010
:10172000C9F81C001AA000F00FFD707810B100205D
:10173000BDE8F8830DB12846FAE7AA20F8E70000D3
:10174000600000200000002054686973205344208A
:10175000636172642069732056312E780D0A00008F
:101760005468697320534420636172642069732054
:1017700056322E780D0A00005468697320534420B5
:10178000636172642069732056322E300D0A0000A6
:101790005350495F496E697465640D0A000000008A
:1017A0002DE9F0410646194815464078062800D034
:1017B00049024FF40077012D4FF001021AD0122098
:1017C00000F0B2F83946304600F022F86D1E0446AB
:1017D00006F5007615F0FF0501D0002CF2D00122AD
:1017E00000210C2000F0A0F80020FFF791FE204619
:1017F000BDE8F081112000F097F810F0FF04F3D15C
:101800003946304600F004F80446EDE700000020B9
:1018100070B505460C460120FFF77AFEFF2002F066
:10182000BDFD06466420FEF7FFFDFE2EF6D103E067
:1018300002F0B4FD05F8010B641EA4B24FF0FF00E6
:10184000F6D202F0ABFDFF2002F0A8FD002070BD33
:1018500070B50C460546FF2002F0A0FDFF28FAD126
:10186000204602F09BFDFD2C18D000244FF400769A
:10187000285D02F093FD641CA4B2B442F8D3FF20AB
:1018800002F08CFDFF2002F089FDFF2002F086FDB2
:1018900000F01F00052801D0022070BD002070BD9F
:1018A00070B506461F4815460C464078062800D0FD
:1018B0004C02012D14D0012809D00122002137202B
:1018C00000F032F801222946172000F02DF80122FD
:1018D0002146192000F028F810F0FF040BD01BE07F
:1018E00001222146182000F01FF810F0FF0413D148
:1018F000FE2130460DE0FC213046FFF7A9FF6D1EAA
:1019000006F5007615F0FF0501D00028F3D0FD2183
:101910000020FFF79DFF04460020FFF7F9FD204659
:1019200070BD0000000000202DE9F041054617467B
:101930000C460020FFF7ECFD1420FEF775FD01209A
:10194000FFF7E6FD134E307802F028FDFF28FAD1AC
:1019500045F0400002F022FD200E02F01FFDC4F30E
:10196000074002F01BFDC4F3072002F017FDE0B2B0
:1019700002F014FD384602F011FD0C2D02D1307832
:1019800002F00CFDFF2002F009FD0106FAD4BDE8CB
:10199000F08100000000002038B504460B4600929C
:1019A00000228021204600F009F828B1606D40F047
:1019B00020006065032038BD002038BD2DE9F041CE
:1019C0000446069E884617461D462068806838EA09
:1019D000000015D00020B84240D0B5F1FF3F35D00F
:1019E00025B1FEF735FE801BA8422FD32068416841
:1019F00021F0E00141606068B0F5827F02D00DE027
:101A00000120E8E7A068B0F5004F02D0B0F5806F84
:101A100004D12068016821F040010160A06AB0F59E
:101A2000005F0AD1206801684DF6FF721140016025
:101A30002068016841F400510160012084F85100E0
:101A4000002084F850000320BDE8F0812068806801
:101A500038EA000005D00020B842BED10020BDE821
:101A6000F0810120F8E700000149C86170470000DB
:101A7000600000207047FEF7F1BD30B58FB028211F
:101A80006846FEF768FB14210AA8FEF764FB0224EF
:101A90000120049000941020059000254FF4601060
:101AA000CDE9085007946846FEF7C4FF0F20CDE942
:101AB0000A048020CDE90C0502210AA80E95FEF744
:101AC00079FE0FB030BD00000D48016841F0010102
:101AD000016041680B4A1140416001680A4A1140A7
:101AE0000160016821F480210160416821F4FE0158
:101AF00041604FF41F0181600449C00308607047D2
:101B0000001002400000FFF8FFFFF6FE08ED00E0C5
:101B100010B5406A0021C185C184FFF70FFB10BDDD
:101B20000168CA6822F49072CA6001684A6922F0AA
:101B300001024A61202180F83A10704710B501680F
:101B4000CA6822F04002CA60202180F83910FFF7ED
:101B50009FFC002010BD10B590F83A10222901D04A
:101B6000022010BD8168B1F5805F11D0016919B301
:101B70000168496801F07F02816A4B1C83620A7028
:101B8000C18D491E0904090CC1851CD0002010BD5F
:101B9000816A02693AB102685268D2B20A80816AE7
:101BA000491C8162ECE702685268C2F308020A80AD
:101BB000816A891C8162E3E701684A68816A4B1C7B
:101BC00083620A70DCE70168CA6822F02002CA60FA
:101BD0000168CA6822F48072CA6001684A6922F00A
:101BE00001024A61202180F83A10FFF7E2FB002051
:101BF00010BD00002DE9F041044620680169E2684B
:101C000021F44051114301612169A06801436069D9
:101C100001432068C26822F4037222F4A0521143E7
:101C2000C16020684169A26921F44071114341619A
:101C300020685C4D3226A0F18041B1F59C3158D02E
:101C4000FEF79CFE00EBC00101EB0010616889000B
:101C5000B0FBF1F7FEF792FE00EBC00101EB0010C4
:101C600061688900B0FBF1F0A5FB001040096FF03E
:101C70001801484307EB800006EB0010A5FB00109D
:101C8000400900F0F007FEF779FE00EBC00101EB20
:101C9000001061688900B0FBF1F0A5FB001040095D
:101CA00007EB0017FEF76AFE00EBC00101EB001026
:101CB00061688900B0FBF1F8FEF760FE00EBC0013F
:101CC00001EB001061688900B0FBF1F0A5FB00108A
:101CD00040096FF01801484308EB800006EB001044
:101CE000A5FB00102168C0F3431038448860BDE8AC
:101CF000F081FEF753FE00EBC00101EB00106168BC
:101D00008900B0FBF1F7FEF749FE00EBC00101EBE3
:101D1000001061688900B0FBF1F0A5FB00104009DC
:101D20006FF01801484307EB800006EB0010A5FB9D
:101D30000010400900F0F007FEF730FE00EBC00194
:101D400001EB001061688900B0FBF1F0A5FB001009
:101D5000400907EB0017FEF721FE00EBC00101EB85
:101D6000001061688900B0FBF1F8FEF717FE00EB88
:101D7000C00101EB001061688900B0FBF1F0A5FB28
:101D8000001040096FF01801484308EB800006EB93
:101D90000010A5FB00102168C0F343103844886090
:101DA000BDE8F0811F85EB5190F83910212901D051
:101DB000022070478168B1F5805F0CD0016A4A1C2F
:101DC0000262026809785160C18C491E0904090C3D
:101DD000C18410D019E0016A02680988C1F30801C2
:101DE0005160016919B1016A491C0162ECE7016A9D
:101DF000891C0162E8E70168CA6822F08002CA60B3
:101E00000068C16841F04001C160002070472DE9C1
:101E1000F0410446069D884617461E462068006825
:101E200038EA000020D00020B84227D1B5F1FF3FAA
:101E30001CD025B1FEF70CFC801BA84216D92068E7
:101E4000C16821F4D071C1602068416921F00101AD
:101E50004161202084F8390084F83A00002084F899
:101E600038000320BDE8F0810120DDE7206800682C
:101E700038EA000005D00020B842D7D00020BDE8E5
:101E8000F0810120F8E700000148FFF759B9000090
:101E9000B800002010B5FFF795FB002809D03820C6
:101EA000FFF7E2FDFF2002F079FA0020FFF7DCFDEA
:101EB000012010BD10B5144641B101291DD00229E1
:101EC00014D0032915D00424204610BD0120FFF7AB
:101ED0001FFB1420FEF7A8FAFF2002F05FFAFF288C
:101EE000F7D100242046FFF713FBEDE74FF4007015
:101EF00000E0082010800024E6E7FFF72CFB2060BC
:101F0000F9E770B514460D460BB148B901E004205D
:101F100070BDDAB221462846FFF742FC0028F7D010
:101F2000012070BD002804D0012803D0022801D070
:101F3000012070470020704770B514460D460BB164
:101F400048B901E0042070BDDAB221462846FFF707
:101F5000A7FC0028F7D0012070BDFEE770B5ADF5F5
:101F60008C6D0D460646FFF72DFB012818D02FA0DB
:101F700000F0EAF8012232A18BA801F009FB0D283C
:101F800010D000282AD02FA000F0DEF8122231490C
:101F9000684601F031FB0446E043400720D022E0D0
:101FA0002DA0E5E731A000F0CFF80022114628A0CF
:101FB00001F016F808B132A0E6E735A000F0C4F849
:101FC00001221FA1002001F0E3FA01221CA18BA82D
:101FD00001F0DEFA0028D9D131A0D5E73BA0D3E744
:101FE0003EA000F0B1F86846839900F071FE0CB194
:101FF00040A00BE043A000F0A7F80DF25C432A4696
:102000003146684601F038FC68B145A000F09CF804
:10201000684600F0CFFD012209A1002001F0B8FAC6
:102020000DF58C6D70BD43A0F0E700005344BFA8D0
:10203000B3F5CABCBBAFB3C9B9A6A3A1200D0A00B2
:10204000303A0000B9D2D4D8CAA7B0DC21200D0A9A
:1020500000000000040000205344BFA8B3F5CABC30
:10206000BBAFCAA7B0DC21200D0A0000C3BBD3D090
:10207000CEC4BCFECFB5CDB321200D0A00000000B8
:10208000B8F1CABDBBAFCAA7B0DC21200D0A000061
:10209000B8F1CABDBBAFB3C9B9A621200D0A000073
:1020A0005344BFA8D2D1BEADB3C9B9A6B9D2D4D812
:1020B000A3ACBFC9D2D4BDF8BDF8D0D0CEC4BCFE4D
:1020C000D0B4C8EBB2E2CAD4210D0A00B9D2D4D838
:1020D000B3C9B9A621200D0A00000000BFA8B4E6CC
:1020E000B4A2D2D1C2FAA3ACD0B4C8EBCAA7B0DCB8
:1020F000210D0A00B4F2BFAACEC4BCFECAA7B0DC50
:10210000210D0A00B4F2BFAAB3C9B9A62FB4B4BD59
:10211000A8CEC4BCFEB3C9B9A6A3A1200D0A000075
:10212000CEC4BCFED0B4C8EBCAA7B0DCA3A1200DBE
:102130000A000000CEC4BCFED0B4C8EBB3C9B9A637
:10214000A3A1200D0A0000000FB4054B10B503A990
:10215000044A029800F018F810BC5DF814FB000067
:102160009D3E00085C00002002E008C8121F08C164
:10217000002AFAD170477047002001E001C1121F08
:10218000002AFBD1704700002DE9FF4F8DB09B4620
:102190000F460446002606E025280BD05A460F9924
:1021A0009047641C761C20780028F5D111B0304689
:1021B000BDE8F08F0025A8460122984900E00543BC
:1021C00014F8013F203B02FA03F00842F7D12078CF
:1021D0002E2817D114F8010F45F004052A280ED037
:1021E0006FF02F022078A0F1300109290AD808EBFE
:1021F000880102EB410100EB0108641CF2E757F88B
:10220000048B641C20786C280DD004DC4C2812D080
:102210006A2811D104E074280DD07A280CD10AE084
:1022200045F4001507E0617845F48015814202D13C
:10223000641C05F58015641C2078692844D008DCEE
:102240000028B3D0582867D063280FD0642808D15D
:102250003AE0702865D0732812D075285AD07828B3
:102260005AD05A460F999047761CD5E017F8040BC0
:102270008DF8000000208DF80100E946012003E000
:1022800057F8049B4FF0FF3069074FF0000501D469
:102290000AE06D1C45450DDA8542FADB19F8051098
:1022A0000029F6D106E06D1C8542FCDB19F805100B
:1022B0000029F8D12E4404E019F8010B5A460F9971
:1022C00090476D1EF8D2A7E00A200021CDE9080151
:1022D000C5F3025002280CD001CFC117021E71F1C4
:1022E00000020CDA0023D0EB030063EB01012D2286
:1022F00008E0FF1D27F00707F7E80201EEE72A05CF
:1023000004D52B228DF8282001223CE0EA073AD0A0
:102310002022F7E70A2000E010200021CDE9080183
:1023200007E01020002145F00405CDE908014FF039
:102330000808C5F30250022810D001CF00214FF049
:10234000000A2A0720D52278702A0DD0DDE908C3BB
:102350008CF0100C5CEA030C0CD015E0FF1D27F08C
:102360000707F7E80201EAE740228DF828204FF03E
:10237000010A0CE050EA010306D030238DF8283022
:102380008DF82920022292462278582A04D024A2CD
:102390000DF120090B9209E026A2F9E7DDE90823F7
:1023A000FDF7E4FE0B9B9B5C09F8013D50EA01023E
:1023B000F4D1ADEB090020300890680701D44FF04C
:1023C00001080899884503DD0898A8EB000000E0A3
:1023D00000208046002506E00AA85A46405D0F9975
:1023E00090476D1C761C5545F6DB04E030205A46BC
:1023F0000F999047761CB8F10001A8F10108F5DCAF
:1024000005E019F8010B5A460F999047761C089978
:10241000481E08900029F4DC641CC4E60928010069
:10242000303132333435363738396162636465664A
:10243000000000003031323334353637383941420C
:10244000434445460000000010B50446002084F8CF
:102450000402401EC4F82C02204601F0C0FE08B160
:10246000032010BD94F8FE0194F8FF1140EA01200A
:10247000A0F52A41553901D0022010BD94F836004C
:1024800094F8391094F8372040EA016094F8381035
:10249000090441EA0221084320F07F410D488142AE
:1024A00001D1002010BD94F8521094F8552094F8F2
:1024B000533041EA026194F85420120442EA0322A4
:1024C000114321F07F41814201D1002010BD012044
:1024D00010BD00004641540000E0401C02780AB1E3
:1024E0008A42FAD10078704770B4002214461C4D1D
:1024F00002EB420355F823C0BCF1000F11D0D0F815
:102500000062B4450ED105EB8303D0F80862D3F81E
:1025100004C0B44506D11B89B0F806C2634504D097
:1025200000E00124521C022AE2D3022A01D0A1B900
:1025300008E024B9022902D070BC1220704770BC98
:102540000020704702EB420005EB80004089B0F5A7
:10255000807F02D070BC0020704770BC1020704794
:10256000F800002010B40021074B8C4601EB41021B
:1025700053F82240844201D143F822C0491C022969
:10258000F4D310BC70470000F8000020D0F82422DB
:10259000121DD0F80002490A90F80202B1FBF0F0D7
:1025A00052F8041B21B1884204D2116808447047D4
:1025B00000207047401A121DF2E7891ED0F814223D
:1025C000921E8A4201D800207047D0F8282290F845
:1025D000020201FB002070472DE9F04105460F463D
:1025E000002F08D03946284601F064FC02280BD29F
:1025F0000120BDE8F081D5F80C621EB1D5F81402B7
:10260000B04209D8012607E0B0F1FF3FF1D0D5F87C
:1026100014128142EDD83E463446641CD5F81402AB
:10262000A04205D80224022E02D20020BDE8F0818B
:102630002146284601F03EFC48B1B0F1FF3FF5D0FD
:102640000128F3D0B442E8D10020BDE8F0816FF05A
:1026500070422146284601F0DEFD28B927B1224606
:102660003946284601F0D7FD28B1012814D00124AD
:102670002046BDE8F081C5F80C42D5F81002B0F153
:10268000FF3FF5D0401EC5F8100295F8050240F056
:10269000010085F80502EBE74FF0FF34E8E70000A2
:1026A0002DE9F05F8B46DBF8007000E07F1C397885
:1026B0002F29FBD05C29F9D0D0F818A20B222021B9
:1026C000504601F084FD00252E46A8464FF008092B
:1026D000404608F101083C5C202C0BD92F2C09D076
:1026E0005C2C07D02E2C01D04E4516D3B9F1080F23
:1026F0000AD107E007EB0800CBF80000202C30D807
:1027000004202FE02E2C02D00620BDE8F09F0826E2
:102710004FF00B09A806050EDAE7802C05D345F02B
:1027200003052148204410F8804C20A02146FFF7E3
:10273000D3FE10B10620BDE8F09FA4F14100192896
:1027400002D845F0020507E0A4F16100192803D87A
:1027500045F001054130C4B23046761C0AF800400D
:10276000B6E7002026B19AF80010E52903D005E06D
:102770000620BDE8F09F05218AF80010B9F1080F86
:1027800001D1A9060D0E05F00301012901D140F088
:10279000100005F00C01042901D140F008008AF86E
:1027A0000B000020BDE8F09F36450008222A2B2CA4
:1027B0003A3B3C3D3E3F5B5D7C7F0000401E022873
:1027C00013D20B4B00EB400103EB81025089B0F5B3
:1027D000807F00D1002008B1401E80B2508110B926
:1027E000002043F8210000207047022070470000BD
:1027F000F800002070B505460E460021284600F07E
:102800001DF9A0B90024D5F81012D5F8000201F086
:10281000E6FC60B9D5F814120A78E52A0BD052B15B
:1028200000240121284600F034F80028EBD00428C9
:1028300000D1072070BD641CB442F8D0F1E770B538
:1028400004460021204600F0F9F8002820D1D4F8F1
:102850001012D4F8000201F0C2FC0546BDB9D4F84C
:102860001402017821B1C17A11F0080F02D007E0FB
:1028700004250CE00B22D4F8181201F093FC30B1BF
:102880000021204600F005F80546002DDFD028463F
:1028900070BD2DE9F04104460D46B4F80602471C10
:1028A0003804000C06D0D4F8100218B117F00F0F3E
:1028B00003D092E00420BDE8F081401CC4F810026F
:1028C000D4F80C1241B1D4F8000290F80222521E42
:1028D00012EA171F09D080E0D4F80002B0F808020D
:1028E000B8427AD80420BDE8F08101F0E3FA064648
:1028F000012E02D80220BDE8F081B6F1FF3F1AD0C8
:10290000D4F80002D0F81412B1425DD8B5B1D4F8B1
:102910000C12FFF761FE0646300012D0012E13D0D4
:10292000B6F1FF3F13D0D4F8000201F0ACFD88B13E
:102930000120BDE8F0810120BDE8F0810420BDE860
:10294000F0810720BDE8F0810220BDE8F081012080
:10295000BDE8F0814FF400720021D4F8000201F0CC
:1029600036FC3146D4F80002FFF727FED4F80012F7
:10297000C1F82C020025D4F8000290F802020028C9
:102980001BD94FF00108D4F8000280F80482D4F873
:10299000000201F078FD10B10120BDE8F081D4F80B
:1029A0000002D0F82C12491CC0F82C126D1CD4F86F
:1029B000000290F80202A842E5D8D4F80002D0F84C
:1029C0002C12491BC0F82C12C4F80C623146D4F802
:1029D0000002FFF7F2FDC4F81002A4F80672D4F862
:1029E000000207F00F0100EB4110C4F814020020B0
:1029F000BDE8F08170B5044601212046FFF7FAFEDC
:102A00000546CDB9D4F81012D4F8000201F0E7FB66
:102A100005468DB920220021D4F8140201F0D7FB1D
:102A20000B22D4F81812D4F8140201F0C7FBD4F822
:102A30000012012081F80402284670BD70B50446DA
:102A40000D46A4F80652D4F80832012B05D0D4F86C
:102A50000002D0F81412994201D8022070BD2BB99F
:102A600090F80012032901D1D0F82432BBB190F8BC
:102A700002020601B54220D31946D4F8000201F043
:102A800019FA0346B3F1FF3F12D0022B05D3D4F855
:102A90000002D0F8140298420CD8022070BDB0F8A1
:102AA0000812A94201D8022070BDD0F8240209E022
:102AB000012070BDAD1BB542DED21946D4F800022C
:102AC000FFF77BFDC4F80C3268B100EB1510C4F8B9
:102AD0001002D4F8000205F00F0100EB4110C4F819
:102AE0001402002070BD022070BD000010B500224D
:102AF00008490B5C002B0AD101220A540A1801EB89
:102B00008000127A406801681046884702461046E5
:102B100010BD000010010020054B03EB000C03EB7F
:102B200080009CF808C040680369604618470000B0
:102B30001001002030B4DFF818C00CEB00040CEBDF
:102B40008000247A4068D0F808C0204630BC604736
:102B50001001002004490A1801EB8000127A406835
:102B600041681046084700001001002030B4DFF82B
:102B700018C00CEB00040CEB8000247A4068D0F8FD
:102B80000CC0204630BC60471001002000200849DE
:102B900000E0401C022805D200EB400251F8222040
:102BA000002AF6D1022801D001207047002070478A
:102BB000F800002010B50446204600F0F9FD00287A
:102BC0000DD1204601F091FC002808D1D4F828024C
:102BD000FFF7F4FD002802D10021C4F8001210BD57
:102BE0002DE9F74F8B46144600226946204600F037
:102BF0004FFF804626685FEA080065D1D6F8149238
:102C0000D6F81002A9F10201884202D8CBF80000E0
:102C10005AE096F800A20025BAF1010F05D0D6F8C7
:102C2000207200200024C8B124E00224214630464E
:102C300001F040F9B0F1FF3F03D0012804D030B1DA
:102C400006E04FF0010835E04FF0020832E06D1C5D
:102C5000D6F81402641C8442E8D32BE039467F1C6A
:102C6000304601F0BCFA80465FEA080022D13446C3
:102C70004FF40070BAF1020F0DD02178E27863783A
:102C800041EA0261A278120442EA0322114331F0C0
:102C9000704109D009E02178627851EA022100D11F
:102CA0006D1CA41C801E02E06D1C241D001FB9F1C8
:102CB0000109B8D1C6F8105296F8050240F001009B
:102CC00086F80502CBF8005003B04046BDE8F08F0F
:102CD0002DE9F84F04460D46204601F006FC009011
:102CE000009810B10098BDE8F88F94F8070200280A
:102CF000F9D1D4F824024FF0010A002879D0B5F1B7
:102D0000FF3F3DD0D4F80C02A84200D20546C4F8DB
:102D10000852002D00F06081691E2046FFF736FC46
:102D2000C4F81402D4F8002201461046FFF745FC0F
:102D30000146002966D0D4F800026B1E90F80222EA
:102D4000521E02EA53225518B4F80812C905C90DDB
:102D500000F04281D4F81822AA4200F03D8194F894
:102D6000061211F0400F58D090F8010201232146BD
:102D7000FFF7FCFEE0B384F807A20120BDE8F88F5E
:102D8000D0F800B000F104080226D4F8101231B3D4
:102D900089460025B61C0F466D1CD4F8000201F0D0
:102DA00089F80146012904D8022084F80702BDE809
:102DB000F88FB1F1FF3F1DD0781C8142EBD05E450A
:102DC00007D808F10400C8F8005000F10408C0F862
:102DD0000090D4F80002D0F814028842D8D8D4F871
:102DE000240206605E450AD80020C8F80000F3E01F
:102DF0000DE024E084F807A20120BDE8F88F11203F
:102E00000090E9E0022084F80702BDE8F88F94F80A
:102E1000060220F0400084F80602D4F800020123E4
:102E20002A4690F801022146FFF784FE20B184F87B
:102E300007A20120BDE8F88FC4F81852CCE0D4F8FE
:102E40000C02A84205D294F8061211F0020F00D12C
:102E50000546D4F808020027C4F80872002D75D082
:102E6000D4F8002292F802124E0278B1691E401E78
:102E7000B1FBF6F1B0FBF6F3994207D3711E88431C
:102E8000C4F808022D1AD4F8141210E0D4F8101265
:102E900059B900211046FFF79FFB0146012915D0C3
:102EA000B1F1FF3F17D0C4F81012C4F8141271B377
:102EB000B5423CD994F8060210F0020F12D0D4F8B3
:102EC0000002FFF789FB014651B110E0022084F8AF
:102ED0000702BDE8F88F84F807A20120BDE8F88F4B
:102EE000354624E0D4F8000200F0E4FF0146B1F1D9
:102EF000FF3F0DD0012905D9D4F80002D0F8140203
:102F000088420AD8022084F80702BDE8F88F1DE045
:102F100084F807A20120BDE8F88FC4F81412D4F891
:102F200008023044C4F80802AD1BB542C2D8D4F838
:102F300008022844C4F80802E805C00D06D0D4F8F9
:102F40000002FFF73AFBE8B100EB5527B4F808029E
:102F5000C005C00D32D0D4F81822BA422ED094F851
:102F6000060210F0400F18D0D4F8000201232146C9
:102F700090F80102FFF7FAFD48B184F807A201209A
:102F8000BDE8F88F022084F80702BDE8F88F94F8B6
:102F9000060220F0400084F80602D4F80002012363
:102FA0003A4690F801022146FFF7C4FD20B184F8AB
:102FB00007A20120BDE8F88FC4F81872D4F80C12EB
:102FC000D4F80802884207D9C4F80C0294F8060223
:102FD00040F0200084F806020098BDE8F88F000059
:102FE0002DE9F74F88B090460998012803D90BB016
:102FF0001320BDE8F08F08A800F0C9FF002803DA0D
:103000000BB00B20BDE8F08FFE4951F8204074B1A1
:10301000002184F80012C0B205900598FFF766FD04
:1030200010F0010F07D00BB00320BDE8F08F0BB0FC
:103030000C20BDE8F08F10F0040F03D00BB00A2075
:10304000BDE8F08F02AA01210598FFF765FD10B9D0
:103050000298802803D20BB00120BDE8F08F0999B7
:1030600011B14FF0000901E04FF03F09A0EB090159
:103070000291A8F1010018EA000F01D04FF00008FA
:10308000B8F1000F0ED14FF4FA60B1FBF0F200205E
:10309000DD4B00E0401C33F810C09445FAD8DB4A01
:1030A00032F81080B8F5007F01D34FEA5828B8F104
:1030B000000F01D14FF00108B8F1800F01D94FF096
:1030C0008008B1FBF8F0012640F6F672904200D37A
:1030D00002264FF6F672904200D30326032E1AD032
:1030E000012E21D04000001D00F2FF10470A0125EB
:1030F0002020019009EB050B0BEB0700019A00EB78
:10310000020A0AEB0800A0EB0900884212D90BB0B2
:103110000E20BDE8F08F40F2072202EB8000470A44
:10312000202500200190E5E700EB4000401C40080E
:10313000C01CD9E703AA03210598FFF7EDFC20B9CD
:10314000039810B1B0F5004F01D901200390039806
:103150000AEB0001491E401E21EA0000A0EB0A0014
:103160000390032E0BD007440298411BCA1B019900
:10317000511AB1FBF8F10491022E03D007E0054487
:103180008344F1E7049940F6F672914206D3032E88
:1031900008D104994FF6F672914203D20BB00E207B
:1031A000BDE8F08F032E02D0012E03D008E04FF0CF
:1031B0000C0A0DE0B0F5803F02D24FF0010A07E0A3
:1031C000B0F5803F02D24FF0040A01E04FF0060A4A
:1031D000099810B14FF0F00A3CE04FF40072002162
:1031E000204600F0F4FF04F5DF700121417081708A
:1031F0000022C27080F804A0FE214171029943F6BA
:10320000C1634944B1FBF3F103913F2343EA910CBD
:1032100080F806C0C171037242728272C272029952
:1032200001730A0A42730A0C8273090EC173552096
:1032300084F8FE01AA2084F8FF0101230022214620
:103240000598FFF793FC18B10BB00120BDE8F08F93
:103250004FF0F80A4FF400720021204600F0B7FF4B
:103260000B226BA1204600F0A9FF0021E172022091
:10327000207384F80D80A573280AE0730120207460
:10328000032E0BD040026074000AA0740298B0F5BF
:10329000803F05D2E074000A20750CE00020F2E7C0
:1032A00084F82000020A84F82120020C84F82220ED
:1032B000000E84F8230084F815A03F20207600201B
:1032C0006076FF21A176E07684F81C904FEA192001
:1032D00060774FEA1940A0774FEA1960E07700F075
:1032E00054FE039080212922032E28D084F8270041
:1032F000030A84F82830030C84F82930000E84F87F
:103300002A00A775380AE07584F8241084F826206E
:10331000132242A104F12B0000F050FF552084F845
:10332000FE01AA2084F8FF0101234A4621460598A0
:10333000FFF71CFCC0B30BB00120BDE8F08F84F890
:103340004300030A84F84430030C84F84530000E2F
:1033500084F8460084F82470380A84F82500380C74
:1033600084F82600380E84F82700022084F82C0008
:10337000002084F82D0084F82E0084F82F0001230B
:1033800084F8303084F83100062384F8323084F831
:10339000330084F8401084F84220132224A104F161
:1033A000470000F00BFFB9E7FFE7032E06D101232A
:1033B00009F1060221460598FFF7D8FB5D464FF05C
:1033C000000B6AF0FF000790C0B206904FF4007245
:1033D0000021204600F0FBFECDF80CA0032E33D0D8
:1033E000012E2FD06FF0FF0040EA0A0003902070FA
:1033F0000398000A60700398000CA0700398000EF8
:10340000E07038E058000020B6450008CC450008C0
:10341000EBFE904D53444F53352E30004E4F204E0F
:10342000414D4520202020464154202020202000CE
:103430004E4F204E414D45202020204641543332EE
:10344000202020005148CFE707980390069820706D
:103450000398000A60700398000CA0700398000E97
:10346000E070FF2020716071A071E07120726072C5
:10347000A0720F20E0722A466D1C01232146059898
:10348000FFF774FB18B10BB00120BDE8F08F4FF4CB
:1034900000720021204600F09AFE01200390012FC7
:1034A00010D92A466D1C012321460598FFF75EFBC3
:1034B00018B10BB00120BDE8F08F0398401C0390B9
:1034C000B842EED30BF1010BBBF1000F3FF47EAF1E
:1034D000032E01D0DDF804802A466D1C012321460D
:1034E0000598FFF743FB18B10BB00120BDE8F08F42
:1034F000B8F10108F0D1032E3AD15220207060704B
:103500006120A0704121E170722284F8E42184F8E6
:10351000E52184F8E61184F8E7010498401E84F858
:10352000E801010A84F8E911010C84F8EA11000E9F
:1035300084F8EB01022084F8EC01002084F8ED010E
:1035400084F8EE0184F8EF01552084F8FE01AA20EA
:1035500084F8FF01012309F1010221460598FFF7D4
:1035600005FB012309F1070221460598FFF7FEFA42
:10357000002211460598FFF7CFFA18B10BB00120D1
:10358000BDE8F08F0BB00020BDE8F08F00FFFF001A
:103590002DE9F74181B0164602980090684600F088
:1035A000F6FC0446002C03DA04B00B20BDE8F081E1
:1035B000104F57F824504FF0000825B12846FEF769
:1035C000D1FF85F800820198002801D080F80082A0
:1035D00047F8240001D0012E03D004B00020BDE83C
:1035E000F081002202A901A800F052FA04B0BDE85F
:1035F000F0810000580000202DE9F747ADF50D7D62
:103600000646002E0FD04FF00008C6F8008202F0E8
:103610001F0727F001028EA984A800F039FA054699
:10362000280005D0BFE00DF5107D0920BDE8F0872A
:1036300001A88A9004A88E9900F0EEFB0546899CAB
:1036400065B924B137F0010003D0012102E006255D
:1036500004E0002104A8FEF747FF054617F01C0F01
:1036600055D075B1042D08D1FFF790FA20B104A808
:10367000FFF7C0F9054600E0122547F00807899CCE
:1036800009E0E07A10F0110F01D0072503E017F0F0
:10369000040F00D00825CDBB17F0080F45D000F06F
:1036A00074FCA073010AE173010C2174000E6074B4
:1036B00084F80B8084F81C8084F81D8084F81E80B8
:1036C00084F81F802146849800F0E2FC81460021A6
:1036D000204600F073FE8499012081F80402B9F1BC
:1036E000000F22D08498D0F82CA24946849800F08C
:1036F0001AFE0546280018D18499A9F10100C1F8E5
:103700000C025146849800F06AFD05460DE065B94B
:10371000E07A10F0100F01D0042506E017F0020F38
:1037200003D010F0010F00D00725C5B917F0080F1E
:1037300001D047F020078498D0F82C02C6F81C026C
:10374000C6F8204237F0010001D0012100E000213D
:1037500004A800F043FCC6F8280200B9022515BBF6
:1037600086F8067286F807822146849800F090FC5D
:10377000C6F81002207FE17F627F40EA0160A17FEE
:10378000090441EA02210843C6F80C02C6F808827F
:10379000C6F81882C6F824828498C6F80002B0F8E9
:1037A0000602A6F804020DF5107D2846BDE8F08754
:1037B00070B50446204600F098FE0146002959D114
:1037C00094F8060210F0200F54D010F0400F12D0E1
:1037D000D4F800020123214690F80102D4F81822FF
:1037E000FFF7C4F908B1012070BD94F8060220F07B
:1037F000400084F80602D4F81C12D4F8000200F04D
:10380000EEFC0146002935D1D4F82052E87A40F088
:103810002000E87294F80C022877B4F80C02000A31
:103820006877D4F80C02000CA877D4F80C02000ECC
:10383000E8772846D4F8101200F0C0FD00F0A5FB90
:10384000A875010AE975010C2976000E687600203A
:10385000A874E87494F8060220F0200084F80602A8
:10386000D4F80012012081F80402D4F8000200F01C
:10387000ADFD0146084670BD2DE9F05F04460F46D8
:10388000164698460020C8F80000204600F02DFE9D
:10389000002818D194F80702002814D194F80602E1
:1038A00010F0020F0ED0D4F80802811900D30026C0
:1038B000002E7DD04FF00109D4F80812C805C00DC4
:1038C00003D0B1E00720BDE8F09FD4F8002292F8C1
:1038D0000202401E00EA512000F0FF0ABAF1000F78
:1038E0002DD131B1D4F8240258B12046FEF74EFE56
:1038F0000CE0D4F8100248B900211046FEF76CFE27
:1039000004E01046D4F81412FEF766FE00284FD0EB
:10391000012808D0B0F1FF3F0AD0C4F81402D4F84F
:10392000101251B10BE0022084F80702BDE8F09FAD
:1039300084F807920120BDE8F09FC4F8100294F8C3
:10394000060210F0400F15D0D4F8000201232146E2
:1039500090F80102D4F81822FFF708F920B184F892
:1039600007920120BDE8F09F94F8060220F0400085
:1039700084F80602D4F81412D4F80002FEF71DFEF3
:10398000E0B100EB0A0B750A95B3D4F800020AEB1C
:10399000050290F802128A4201D9A1EB0A0590F8BB
:1039A00001022B465A463946FFF7E0F858B100E0CD
:1039B0005DE084F807920120BDE8F09F022084F8C2
:1039C0000702BDE8F09FD4F81802A0EB0B00A84254
:1039D0000CD207EB40214FF40072204600F0EEFBC2
:1039E00094F8060220F0400084F806026D022FE0F1
:1039F000FFE7D4F81802584514D0D4F80C12D4F8C4
:103A0000080288420ED2D4F8000201235A4690F8E8
:103A100001022146FFF78EF820B184F807920120B9
:103A2000BDE8F09FC4F818B2B4F80802C0F308006B
:103A3000C0F50075B54200D9354620442A463946BE
:103A400000F0BCFB94F8060240F0400084F8060247
:103A50002F44D4F808022844C4F80802D8F800001B
:103A60002844C8F80000761B002E7FF425AFD4F858
:103A70000C12D4F80802884201D9C4F80C0294F858
:103A8000060240F0200084F806020020BDE8F09F06
:103A90002DE9F043804685B0084616460027C8F851
:103AA000007000F074FA0546280003D505B00B201D
:103AB000BDE8F083D44850F82540CCB1C8F80040A8
:103AC00094F8000230B194F80102FFF743F810F0C7
:103AD000010F11D084F80072E8B284F80102FFF7F8
:103AE00005F810F0010F13D005B00320BDE8F083F6
:103AF00005B00C20BDE8F08336B110F0040F03D000
:103B000005B00A20BDE8F08305B00020BDE8F083D1
:103B100036B110F0040F03D005B00A20BDE8F083E1
:103B2000002529462046FEF78FFC012826D10021DA
:103B3000E84604EB011000F5DF70027952B1027A19
:103B4000C37A42EA0362837A407A1B0443EA002084
:103B5000104300E0002048F82100491C0429E8D364
:103B6000002658F8265025B129462046FEF76CFC61
:103B700000E0022010B1761C042EF2D3032804D0FA
:103B800038B105B00D20BDE8F08305B00120BDE8D7
:103B9000F083E07A217B40EA0120B0F5007F03D07A
:103BA00005B00D20BDE8F083A07DE17D40EA012055
:103BB00068B994F8240094F8271094F8252040EA76
:103BC000016094F82610090441EA02210843C4F870
:103BD0001802217C84F80312012905D0022903D0A0
:103BE00005B00D20BDE8F08301FB00F9637B84F88C
:103BF000023213B1591E0B4203D005B00D20BDE8AF
:103C0000F083617CA27C41EA0222A4F8082212F02F
:103C10000F0F03D005B00D20BDE8F083E17C94F8D0
:103C200014C041EA0C2179B994F8201094F823C00B
:103C300094F8216041EA0C6194F822C04FEA0C4CE0
:103C40004CEA062C41EA0C0194F80EC0E67B4CEAE3
:103C50000628B8F1000F09D008EB090C0CEB121C78
:103C6000614507D205B00D20BDE8F08305B00D20F9
:103C7000BDE8F083A1EB0C01B1FBF3F171B30126B8
:103C800040F6F673994200D302264FF6F673994236
:103C900000D30326891CC4F81412C4F81C5205EB87
:103CA0000803C4F82032AC44C4F828C2032E19D04B
:103CB0007AB303EB0902C4F82422022E2ED001F0BD
:103CC000010201EB410102EB510101F2FF11B0EBE6
:103CD000512F25D205B00D20BDE8F08305B00D2091
:103CE000BDE8F0831AB105B00D20BDE8F08394F86B
:103CF0002C2094F82F3094F82DC042EA036294F8F7
:103D00002E301B0443EA0C231A43C4F824228900F2
:103D1000DBE7FFE705B00D20BDE8F0834900D4E7FD
:103D20004FF0FF30C4F81002C4F80C02802084F871
:103D30000502032E58D194F8300094F8311040EA6F
:103D40000120012850D1691C204600F048FAE0BB50
:103D500084F8057294F8FE0194F8FF1140EA0120FE
:103D6000A0F52A4155393FD12078E178627840EAC0
:103D70000160A178090441EA0221084323498842ED
:103D800032D194F8E40194F8E71194F8E52140EA7F
:103D9000016094F8E611090441EA022108431C4934
:103DA000884221D194F8E80194F8EB1194F8E921C4
:103DB00040EA016094F8EA11090441EA022108434B
:103DC000C4F8100294F8EC0100E00DE094F8EF1153
:103DD00094F8ED2140EA016094F8EE11090441EAFB
:103DE00002210843C4F80C0284F8006209490888DB
:103DF000401C0880A4F806022046FEF7B3FB05B07D
:103E00000020BDE8F08300005800002052526141BC
:103E1000727241615400002073B50446019908781C
:103E20002F2801D05C2801D1481C01900025C4F83E
:103E3000085201980078202807D200212046FEF77A
:103E4000FDFDC4F8145202B070BD01A92046FEF772
:103E500027FC0028F7D12046FEF7F1FCD4F8181211
:103E6000C97A38B10428EED111F0040FEBD1052046
:103E700002B070BD11F0040FFAD1D4F81412C87A50
:103E800010F0100F06D0D4F8000200F001F9C4F8C9
:103E90000802DAE7052002B070BD000013B54FF646
:103EA000FF73012269460248FDF784FA00981CBDA1
:103EB000B80000202DE9F04104460D46022D03D341
:103EC000D4F81402A84201D801260BE04FF0FF36C7
:103ED00094F80002012808D0F70D02282BD00328FF
:103EE0003AD001263046BDE8F08105EB5507D4F8FD
:103EF000200200EB5721204600F071F90028F1D193
:103F0000C7F3080007F10108275CD4F8200200EB92
:103F10005821204600F063F90028E3D1C8F30800D7
:103F2000205C47EA002015F0010F01D00609D9E70F
:103F3000C0F30B06D6E7D4F8200200EB152120468B
:103F400000F04DF90028CDD107EA45002044017862
:103F5000407841EA0026C5E7D4F8200200EBD511ED
:103F6000204600F03CF90028BCD107EA8500204437
:103F70000178C27841EA026182784078120442EA0C
:103F80000020084320F07046ACE70020704710B4D2
:103F900004464FF0FF30D4F800C0BCF1000F0BD046
:103FA000614600E0491C0A78212A01D33A2AF9D156
:103FB0000A783A2A02D0002010BC70479CF80030E2
:103FC0000CF10102303B0A2BF6D28A42F4D1002BCD
:103FD000F2D11846491C216010BC704770B4002211
:103FE0002A4CD0F800C202EB420354F82350654536
:103FF0000BD104EB8303D0F808625D68B54204D1AD
:104000001B89B0F80652AB4202D0521C022AEAD3F6
:10401000022A1BD1002200E0521C022A05D202EB28
:10402000420354F82330002BF6D1022A18D002EBB9
:10403000420344F823C004EB8303D0F808C2C3F85A
:1040400004C0B0F8060218810020588159B102EB73
:10405000420004EB8000408928B170BC002070470A
:1040600070BC0020704711B14FF4807005E002EB86
:10407000420004EB80004089401C02EB420104EB4B
:104080008101488170BC501C70470000F80000207E
:104090000246887ECB7E40EA032092F80022032A63
:1040A00005D10A7D497D42EA012140EA014070477D
:1040B00086B0FCF7DBFAFDF7E0FC00242E48009404
:1040C000019402940394816941F004018161806943
:1040D0002A4D00F004000490224610212846FCF7E7
:1040E000AFFA102000900120CDE9010402200390D6
:1040F00069462846FCF7ACF9FDF7DAF9FDF7CAF98D
:1041000020481F4901604FF4E131C0E901140C213E
:10411000C460C0E904418461C461FDF7ADF80122C7
:1041200019491848FDF71AF918A0FEF70DF8FCF721
:1041300099F8154D4FF4FA760B35A5F10C04124899
:1041400017210B30FDF70AFF3046FCF76DF9287890
:104150000A30287068780A3068702078401C207017
:1041600005E00DA0FDF7F0FF3046FCF75DF9207883
:104170000A28E4D9F5E700000010024000080140D9
:1041800000380140B800002003000020206D616964
:104190006E200D0A00000000207768696C65200D14
:1041A0000A0000000023521E06D310F8013B11F84C
:1041B00001CBB3EB0C03F6D018467047521E05D363
:1041C00011F8013B00F8013B521EF9D27047521E14
:1041D00004D3C9B200F8011B521EFBD2704770B560
:1041E00004460D460026D4F82C02A84211D02046E1
:1041F00000F049F9064666B994F8010201232A46FF
:104200002146FEF797FC10B14FF0FF350126C4F8A8
:104210002C52304670BD2DE9F04704460D46164637
:10422000022D03D3D4F81402A84202D80220BDE81C
:10423000F08794F8000206F0FF094FF0010801280A
:1042400008D040F2FF1702283CD003284ED00220AD
:10425000BDE8F08705EB5507D4F8200200EB5721A5
:104260002046FFF7BCFF0028F2D1C7F3080007F192
:10427000010A204415F0010F03D0017869F31F11E2
:1042800000E03146017084F80482D4F8200200EB8B
:104290005A212046FFF7A3FF0028D9D1CAF308010D
:1042A000214415F0010F02D0C6F3071205E00A7889
:1042B000C6F3032302F0F0021A430A7084F8048262
:1042C000BDE8F087D4F8200200EB15212046FFF767
:1042D00086FF0028F4D107EA4501214481F80090C7
:1042E000320A4A7084F80482BDE8F087D4F82002CC
:1042F00000EBD5112046FFF772FF0028F4D107EA42
:10430000850121444FF07043CA7803EA02623243C8
:104310000A70130A4B70130C8B70120ECA7084F85B
:104320000482BDE8F0872DE9F04104460E46022ED6
:1043300003D3D4F81402B04201D802272AE00027A0
:1043400031462046FFF7B6FD05461DB3012D0AD0C4
:10435000B5F1FF3F09D0002231462046FFF75BFF51
:104360000746BFB903E0022714E0012712E0D4F8A2
:104370001002B0F1FF3F08D0401CC4F8100294F8BE
:10438000050240F0010084F805022E46D4F814021C
:10439000B042D5D83846BDE8F081000001B582B002
:1043A00064200090012301AA02A90348FCF7BCFD88
:1043B0009DF804000EBD00006000002081760A0A0E
:1043C000C2760A0C0275090E4175704770B5044635
:1043D000204600F058F80546002D52D194F800020E
:1043E000032846D194F80502012842D14202002157
:1043F0002046FFF7ECFE552084F8FE01AA2084F841
:10440000FF015220207060706120A0704121E17096
:10441000722284F8E42184F8E52184F8E61184F816
:10442000E701D4F8100284F8E801010A84F8E911E0
:10443000010C84F8EA11000E84F8EB01D4F80C02A8
:1044400084F8EC01010A84F8ED11010C84F8EE11F6
:10445000000E84F8EF01D4F81C02421CC4F82C2290
:1044600094F8010201232146FEF780FB002084F826
:104470000502002294F801021146FEF74DFB00B13F
:104480000125284670BD2DE9F0410446002794F827
:104490000402002826D0D4F82C6294F801020123EB
:1044A00032462146FEF762FB08B101271AE00020E0
:1044B00084F80402D4F82002D4F81812301A884282
:1044C00010D294F80352022D0CD3D4F818020644EB
:1044D00094F80102012332462146FEF747FB6D1E88
:1044E000022DF2D23846BDE8F08110B5002812D076
:1044F000D0F8001279B191F8002262B1B1F8062229
:10450000B0F80402824206D191F80102FEF722FBC4
:1045100010F0010F01D0092010BD002010BD0000D7
:104520000000000000000102030406070809000063
:10453000000001020304809A90B68EB78F80D2D318
:10454000D4D8D7DE8E8F909292E299E3EAEB599914
:104550009A9D9C9D9E9FB5D6E0E9A5A5A6A7A8A972
:10456000AAABAC21AEAFB0B1B2B3B4B5B6B7B8B9BF
:10457000BABBBCBDBEBFC0C1C2C3C4C5C7C7C8C922
:10458000CACBCCCDCECFD0D1D2D3D4D5D6D7D8D913
:10459000DADBDCDDDEDFE0E1E2E3E5E5E6E7E7E903
:1045A000EAEBEDEDEEEFF0F1F2F3F4F5F6F7F8F9F2
:1045B000FAFBFCFDFEFF0004000200018000400049
:1045C00020001000080004000200000000800040ED
:1045D0000020001000080040002000100008000427
:1045E00000020000044600080000002060000000F7
:1045F000682100086446000860000020C014000024
:1046000078210008FF00000068656C6C6F2E7478DC
:104610007400303120777269746520627566662097
:10462000746F207364200D0A00000000951E0008BE
:10463000251F0008031F0008391F0008B51E0008C9
:10464000000000000000000000A24A040100000079
:10465000100000000000000000000000000000004A
:044660000000000056
:04000005080000ED02
:00000001FF
