:020000040800F2
:10000000A80600200501000809240008E91E0008D0
:10001000BD230008A90600087D2B00080000000091
:10002000000000000000000000000000612800083F
:10003000C506000800000000232600086328000809
:100040001F0100081F0100081F0100081F01000810
:100050001F0100081F0100081F0100081F01000800
:100060001F0100081F0100081F0100081F010008F0
:100070001F0100081F010008AD060008B9060008AE
:100080001F0100081F0100081F0100081F010008D0
:100090001F0100081F0100081F010008C706000813
:1000A0001F0100081F0100081F0100081F010008B0
:1000B0001F0100081F0100081F0100081F010008A0
:1000C0001F0100081F0100081F0100081F01000890
:1000D0001F010008712B00081F0100081F01000804
:1000E0001F0100081F0100081F010008DFF810D0E1
:1000F00000F04AFA00480047C1340008AFF300801E
:10010000A80600200648804706480047FEE7FEE7AD
:10011000FEE7FEE7FEE7FEE7FEE7FEE7FEE7FEE7B7
:10012000E7280008ED000008202A04DB203A21FA25
:1001300002F00021704721FA02F3D040C2F1200200
:100140009140084319467047D2B201E000F8012BF4
:10015000491EFBD270470022F6E710B513460A4647
:1001600004461946FFF7F0FF204610BD10B50022E7
:1001700000E0521C835C8C5CA34201D1002BF8D1BF
:10018000D8B2E1B2401A10BD30B50B46014600208E
:100190002022012409E021FA02F59D4205D303FA49
:1001A00002F5491B04FA02F52844151EA2F10102CA
:1001B000F1DC30BD2DE9F05F0546002092469B46FC
:1001C00088460646814640241BE02846414647466D
:1001D0002246FFF7A9FF53465A46C01A914110D351
:1001E00011461846224600F0E1F92D1A67EB010886
:1001F0004F4622460120002100F0D8F917EB0009F4
:100200004E41201EA4F10104DFDC484631462A4657
:100210004346BDE8F09F2DE9FE4F804681EA03008A
:10022000C00F0C46009021F0004123F00045B8EBD0
:100230000200A94105D24046214690461C460B4685
:10024000024623F00040104347D0270DC7F30A00B1
:10025000C3F30A510290401A019040286BDAC3F3AD
:10026000130040F4801B0098924620B10023D2EB8B
:10027000030A63EB0B0B01985946C0F1400250464C
:1002800000F094F906460D4650465946019A00F092
:100290009CF910EB08006141002487EA115284EABE
:1002A000E7731A4340D0009A62B3019A012A4FEAD9
:1002B000075215DC001B61EB02014FF0004202EA1D
:1002C0000752CDE90042001C41F5801132462B4611
:1002D00000F09CF903B0BDE8F08F40462146F9E7F5
:1002E000001B61EB0201001C41F5801300185B410B
:1002F0002018A2F5001747EB030140EAD570B619A4
:100300006D4111E06D084FEA360645EAC0754FEAC7
:100310000752001B61EB0201001C41F580114908E6
:100320004FEA30000019514132462B4603B0BDE878
:10033000F04F00F05CB90098012240000023D0EBA0
:10034000020263EBE073009821464FEAE074B8EBD9
:10035000000061EB0401E9E783F000435BE781F013
:10036000004158E72DE9FE4F81EA030404F0004400
:1003700021F0004100944FF0000B23F0004350EABD
:1003800001045ED052EA03045BD0C3F30A54C1F304
:100390000A552C44A4F2F3340194A0FB0254C1F397
:1003A000130141F48011C3F3130343F4801301FBE1
:1003B000024400FB034E840A970A44EA815447EA48
:1003C0008357A4FB076802958D0A05FB07854FEA52
:1003D000932C04FB0C542705029D4FEA065847EA6C
:1003E0001637B5EB08056EEB070C870E920E47EA41
:1003F000811742EA8312A7FB0201B6EB0B0164EB03
:1004000000042B0D43EA0C335E1844EB1C50DA4613
:100410005146E7FB0201C5F313044FEA0B3343EAED
:1004200014534FEA0432019C43EA0603A4F10C047E
:100430000294009CCDE900B400F0E8F803B0BDE8F8
:10044000F08F00200146F9E72DE9F04D81EA030421
:1004500004F0004B21F0004514464FF0000A23F051
:10046000004150EA050220D054EA01021DD0C5F334
:100470000A570246C5F31303C1F31300C1F30A562A
:1004800040F4801543F48013A7EB0608101BD646F2
:1004900008F2FD3873EB050002D308F1010801E012
:1004A00092185B41B8F1000F03DA00200146BDE865
:1004B000F08D00204FF48011064684460EE0171B95
:1004C00073EB050705D3121B63EB050306434CEAE8
:1004D000010C49084FEA300092185B4150EA0107CD
:1004E000EDD152EA030012D082EA040083EA05014A
:1004F000084305D0101BAB4106D20122002306E0C1
:1005000000224FF0004302E06FF0010253101AEB9B
:1005100006004CEB085110EB0A0041EB0B01BDE863
:10052000F04D00F064B8C1F30A52C1F3130140F278
:10053000FF3341F480119A4202DA002001467047ED
:1005400040F233439A42A2F2334202DC5242FFF7B6
:10055000EBBD00F02BB8000030B5041E71F10004B3
:1005600004DB4FF00044404264EB0101141E73F1C0
:10057000000405DB1C464FF00043524263EB0403CA
:10058000994208BF904230BD064C074D06E0E06836
:1005900040F0010394E8070098471034AC42F6D3CA
:1005A000FFF7A8FD483E0008683E0008202A04DB4B
:1005B000203A00FA02F1002070479140C2F1200376
:1005C00020FA03F3194390407047202A06DBCB172B
:1005D000203A41FA02F043EAE07306E041FA02F3FE
:1005E000D040C2F12002914008431946704710B52F
:1005F000141E73F1000408DA401C41F10001921846
:100600005B411A4301D120F0010010BD2DE9F04DEE
:1006100092469B4611B1B1FA81F202E0B0FA80F243
:1006200020329046FFF7C2FF04460F4640EA0A0018
:1006300041EA0B0153465A46084313D0114653EA88
:10064000010019D0C8F140025046FFF76DFD054684
:100650000E46504659464246FFF7A8FF084305D0CC
:10066000012004E020463946BDE8F08D0020054316
:1006700046EAE0762C4337430A986305E40AA0EB88
:1006800008000022FD0A44EA47540A3002D500203F
:100690000146E9E7010510196941DDE9084500193E
:1006A0006941BDE8F04DA2E7FEE70000014800F017
:1006B0007FB8000060020020014800F079B8000017
:1006C0001C02002070474FF4807000F067B972B6CA
:1006D000FEE710B590F821100022022905D0042170
:1006E000816380F82020012010BD01680B6823F091
:1006F0000E030B6001680B6823F001030B6090F898
:100700004030C46B012101FA03F3636080F82110CB
:1007100080F82020104610BD10B590F8211000245C
:10072000022903D00421816301243DE001680A68A5
:1007300022F00E020A6001680A6822F001020A60D3
:100740001A4A0168914201D1012121E0174A14326D
:10075000914201D110211BE0144A2832914201D16B
:10076000891515E0114A3C32914201D189140FE0FC
:100770000E4A5032914202D14FF4803108E00B4AC8
:100780006432914202D14FF4801101E04FF0807148
:10079000064A083A5160012180F82110002180F8B2
:1007A0002010416B01B18847204610BD080002406F
:1007B0002DE9F05FC16B0C6801680B68D0F840C090
:1007C000042202FA0CF2494DDFF824A1494E4A4FA7
:1007D000DFF828B1DFF828E122422CD05A072AD5C9
:1007E0000A68920603D40A6822F004020A600168CB
:1007F000A94201D1042219E0514501D1402215E05E
:10080000B14202D14FF4806210E0B94202D14FF4FC
:1008100080420BE0594502D14FF4802206E0714539
:1008200002D14FF4800201E04FF080622F49083975
:100830004A60C16A3BE04FF0020808FA0CF818EA77
:10084000040F4FF000094FF0010235D05FEA8378C2
:1008500032D50B689B0605D40B6823F00A030B60A6
:1008600080F821200168A94201D1022219E05145F6
:1008700001D1202215E0B14202D14FF4007210E004
:10088000B94202D14FF400520BE0594502D14FF466
:10089000003206E0714502D14FF4001201E04FF042
:1008A0000072124908394A6080F82090816A002954
:1008B0001AD0BDE8F05F0847082505FA0CF5254277
:1008C00012D01B0710D50B6823F00E030B6090F8B5
:1008D0004010C36B02FA01F15960826380F8212055
:1008E00080F82090016BE2E7BDE8F09F080002402D
:1008F0001C00024030000240440002405800024008
:100900006C00024030B528B308C8134914221944BA
:10091000B1FBF2F18900C163104981630221417783
:100920001A6843F6F0718A43D0E900142143D0E9F4
:1009300002452C43214304692143446921438469CE
:10094000214311431960002141630122427701775D
:10095000084630BD012030BDF8FFFDBF0000024059
:1009600070B5044600F024F90546601C02D0044826
:100970000078044400F01CF9401BA042FAD370BD7B
:1009800004000020B0F5807F04D14FF400510248EC
:1009900000F000B97047000000100140044910B594
:1009A0000A68024202D00860FFF7ECFF10BD0000A9
:1009B000140401402DE9F84FDFF8B8910024A9F1A3
:1009C000040B23460F2709F1040AABF1040EC9E01A
:1009D0000125A5402A40AA427DD1674ED1F804C026
:1009E000ACEB0608B44532D014DCBCF1030F3AD0AE
:1009F00009DCBCF1000F2AD0BCF1010F1CD0BCF106
:100A0000020F31D11DE0BCF1110F17D0BCF1120F54
:100A10002AD119E0B8F5881F19D006DCB8F5803F57
:100A200015D0B8F5801F1FD111E0B8F5001F0ED00A
:100A3000B8F5041F18D10AE0CB6815E0CB681B1D80
:100A400012E0CB6808330FE0CB680C330CE08B6806
:100A50002BB1012B4FF0080303D0456104E00423C0
:100A600002E0056100E00023FF2A01D8064601E00C
:100A700000F104064FEA840501D9A5F12005D6F856
:100A8000008007FA05FC28EA0C0803FA05F548EA95
:100A90000508C6F800804D68ED0062D5374DAE6997
:100AA00046F00106AE61AD6924F0030605F00105CC
:100AB0000095334D06EB050CDCF80850A607360F01
:100AC00007FA06F825EA0805DFF8B880404503D1A3
:100AD0004FF0000817E044E0DFF8AC80404502D159
:100AE0004FF001080FE0DFF8A480404502D14FF03D
:100AF000020808E0DFF89880404502D14FF0030873
:100B000001E04FF0040808FA06F848EA0508CCF8B6
:100B100008804D68D9F80060ED024D4601D51643B6
:100B200000E096432E604D68DAF80060AD0255464D
:100B300001D5164300E096432E604D68DBF8006057
:100B4000AD035D4601D5164300E096432E604D6827
:100B5000DEF80060ED03754601D5164300E09643CC
:100B60002E60641C0D682A46E5407FF431AFBDE875
:100B7000F88F00000804014000001110001002402E
:100B80000000014000080140000C0140001001403D
:100B900000140140C26821EA02030A4043EA02410C
:100BA000016170470AB1016170470904FBE7000069
:100BB00001488068704700000400002070B5040000
:100BC00025D094F83D00002520B984F83C502046FB
:100BD00000F04EF9242084F83D002068016821F0DF
:100BE000010101602068016841F400410160206852
:100BF000016821F40041016000F064FB4D4A616826
:100C0000914201D84C4900E04C49884201D2012070
:100C100070BD4B492368B0FBF1F15E6826F03F06DA
:100C20000E435E606368934206D94FF4967359434E
:100C30004FF47A73B1FBF3F12368491C1E6A26F066
:100C40003F06314319626168914210D84900401E45
:100C5000B0FBF1F2521CC2F30B02042A01D20420B1
:100C600022E0B0FBF1F0401CC0F30B001CE0A268D6
:100C7000F2B301EBC10303EB0116431EB3FBF6F322
:100C80005B1C43F480431B0549D092B301EBC102C6
:100C900002EB0111401EB0FBF1F0401CC0F30B0051
:100CA00040F4804040F400402168CA694CF6FF736C
:100CB0009A431043C861D4E90710014320680268D1
:100CC00022F0C00211430160D4E90301014320680E
:100CD000826848F2FF339A4311438160D4E90501E9
:100CE00008432168CA6822F0FF021043C86001E08F
:100CF0000EE016E02068016841F001010160256402
:100D0000202084F83D00256384F83E50002070BD0B
:100D100001EB4106431EB3FBF6F35B1CB3E7012076
:100D2000C2E701EB4101401EB0FBF1F0401CC0F3F3
:100D30000B00B7E7A086010080841E0000093D007B
:100D400040420F002DE9F84F1F4690468A46044660
:100D5000DDF82890FFF72CFF054694F83D00202889
:100D60007FD11923012240492046009501F04EF918
:100D7000002876D194F83C00012872D0012084F834
:100D80003C0020680168C90703D1016841F00101F6
:100D900001602068016821F400610160212084F86D
:100DA0003D00102084F83E0000262664C4F824800C
:100DB0006785608D20852D48E0622B464A46514666
:100DC000204601F0A9F890B9206841698069009037
:100DD00036E02A464946204601F0BEF950B1206C63
:100DE000042804D12068016841F4007101600120E9
:100DF000BDE8F88F606A216800780861606A401C6D
:100E00006062618D491E6185218D491E89B22185EF
:100E100022685369DB435B070BD451B10078106142
:100E2000606A401C6062608D401E6085208D401E9F
:100E300020852A464946204601F0BCF80028CED13C
:100E4000208D0028C5D154F83D0B016841F4007194
:100E50000160202004F81E09E67766770020C7E7C6
:100E6000FFE70220C4E70000020010000000FFFFBF
:100E700010B586B0002100910191029103910068A4
:100E80000F4988421AD10F4CA06940F00800A061B8
:100E9000A069694600F008000490C020009012206C
:100EA0000190032003900848FFF784FDE06940F4B7
:100EB0000010E061E06900F40010049006B010BD7D
:100EC0000054004000100240000C014002488168BC
:100ED000027811448160704704000020074810B573
:100EE000016841F010010160032000F075F80F2047
:100EF00000F006F800F024F8002010BD00200240A9
:100F000070B50D4D04464FF47A712878B1FBF0F0BE
:100F10000A490968B1FBF0F000F077FD48B9102CE0
:100F200007D200222146501E00F036F800206C60E7
:100F300070BD012070BD00000400002010000020E2
:100F40000C4808B5816941F001018161816901F0B6
:100F500001010091C16941F08051C161C06900F097
:100F6000805000900448416821F0E06141F0007138
:100F7000416008BD0010024000000140002809DB6C
:100F800000F01F02012191404009800000F1E020A3
:100F9000C0F8001170470000F0B40E4B1B680C46FF
:100FA000C3F30223C3F10705042D00D90425191D3D
:100FB000072901D2002300E0DB1E012606FA05F115
:100FC000491E214099409E40761E16403143F0BC98
:100FD00001F0FABD0CED00E0064900F007020868D8
:100FE0004FF6FF03184040EA0220034A104308600E
:100FF000704700000CED00E00000FA0501490120F7
:101000000862704700000E4210B501460020234CD4
:10101000012922D0022939D010291DD16168226806
:10102000D20119D51E48C1F38342C903805C0AD599
:1010300061681B4AC1F34041921E515C194AB2FBE0
:10104000F1F1484301E0184948436168490203D47B
:1010500040000321B0FBF1F010BD226AC2F3012170
:10106000012903D1920701D5C80310BD022905D17A
:10107000626A920702D549F6404010BD0329FCD1AF
:1010800021688903F9D54FF2244010BD00F02AF9F8
:101090006168C1F38131491C4900DBE7001002405F
:1010A000203E000800127A0000093D002DE9F843B7
:1010B00005460078354CC00754D0E0690026C000D2
:1010C00008D4E06940F08050E061E069012600F05A
:1010D000805000902E480168C90512D401688046EE
:1010E00041F480710160FFF763FD074605E000BF32
:1010F000FFF75EFDC01B642823D8D8F80000C005A8
:10110000F6D5206A10F4407021D0A98801F440710E
:1011100081421CD0206A1F49012220F440700A60DD
:1011200000220A602062C00711D0FFF741FD074688
:1011300041F2883808E000BFFFF73AFDC11B414586
:1011400002D90320BDE8F883206A8007F4D5206A1D
:10115000696820F44070084320621EB1E06920F005
:101160008050E0612878800705D56068A96820F480
:101170004040084360602878C00605D56068E9688B
:1011800020F48000084360600020DBE7001002408C
:1011900000700040400442422DE9F0470F46050030
:1011A00061D0434E306800F00700B84209D2306881
:1011B00020F0070038433060306800F00700B84284
:1011C00051D128683B4C810712D5400703D5606890
:1011D00040F4E06060602878000703D5606840F460
:1011E000605060606068A96820F0F00008436060AB
:1011F0002878C00728D06868012810D02168022804
:1012000010D0890700292EDA616821F0030101431B
:101210006160FFF7CDFC804641F288390DE021681E
:101220008903EFE78901EDE7FFF7C2FCA0EB0801B6
:10123000494502D90320BDE8F0876068696800F07D
:101240000C00B0EB810FEFD1306800F00700B8421E
:101250000BD9306820F0070038433060306800F068
:101260000700B84201D00120E5E72878400705D5FE
:101270006068E96820F4E06008436060287800074F
:1012800006D56068296920F4605040EAC1006060BA
:1012900000F038F86168084AC1F30311515CC84096
:1012A0000649086006480068FFF72AFE0020C2E7EA
:1012B0000020024000100240303E000810000020D4
:1012C000080000200448054900684968044AC1F341
:1012D0000221515CC84070471000002000100240FD
:1012E000403E00080448054900684968044AC1F3C3
:1012F000C221515CC840704710000020001002401D
:10130000403E00080E4A51680E4801F00C03042BC1
:1013100011D0082B0FD10C48C1F38343C903C05C23
:101320000AD55168084AC1F34041921E515C054AF2
:101330005043B0FBF1F07047044948437047000048
:101340000010024000127A000E3E000800093D0025
:101350002DE9F84F040070D02078C04DC00749D067
:101360006868C0F38100012807D06868C0F3810075
:10137000022809D16868C00306D52868800339D5DA
:1013800060680028E7D035E06068B0F5803F0BD09A
:1013900010B1B0F5A02F11D0286820F4803028605B
:1013A000286820F4802002E0286840F4803028601B
:1013B000606890B1FFF7FCFB06460AE0286840F43D
:1013C00080202860F0E700BFFFF7F2FB801B642855
:1013D00073D828688003F7D50CE0FFF7E9FB0646D1
:1013E00005E000BFFFF7E4FB801B6428F0D8286805
:1013F0008003F7D420789A4E80074FF001094FF010
:10140000000839D5686810F00C0F07D06868C0F381
:101410008100022809D16868C00306D428688007C3
:1014200014D52069012808D110E02069B0B1C6F8B0
:101430000090FFF7BDFB074605E00AE1FFF7B8FBA8
:10144000C01B0228C4D828688007F7D528686169BE
:1014500020F0F80040EAC10028600DE0C6F80080E6
:10146000FFF7A6FB074604E0FFF7A2FBC01B02281C
:1014700023D828688007F7D4207800072CD579482E
:10148000A169D9B1C0F80090FFF792FB074604E0CC
:10149000FFF78EFBC01B02280FD8686A8007F7D5BC
:1014A00071484FF4FA510068B0FBF1F0009000BFB2
:1014B0000098411E0091FAD20EE080E0C0F8008052
:1014C000FFF776FB074604E0FFF772FBC01B02281C
:1014D00075D8686A8007F7D42078400760D5E86936
:1014E0000027C00008D4E86940F08050E861E8694E
:1014F000012700F0805000905C480168C90513D4B2
:101500000168834641F480710160FFF751FB824618
:1015100006E000BFFFF74CFBA0EB0A0064284ED8A2
:10152000DBF80000C005F5D5E06801280AD008B155
:10153000052813D0286A20F001002862286A20F0CC
:10154000040002E0286A40F001002862E06841F2ED
:10155000883B98B1FFF72CFB82460BE0286A40F0ED
:1015600004002862EEE700BFFFF722FBA0EB0A01B0
:1015700059455AD8286A8007F6D50CE0FFF718FBC2
:10158000824605E0FFF714FBA0EB0A0159454CD851
:10159000286A8007F6D41FB1E86920F08050E8611E
:1015A000E06988B36968C1F38101022944D0022847
:1015B000C6F8608004D0FFF7FBFA044638E034E058
:1015C000FFF7F6FA074604E0FFF7F2FAC01B02281D
:1015D0002BD828688001F7D4206AB0F5803F05D168
:1015E0006868A16820F4003008436860D4E9080105
:1015F0000843696821F4741108436860C6F8609074
:10160000FFF7D6FA044606E025E000BFFFF7D0FA60
:10161000001B022809D828688001F7D51BE000BF0D
:10162000FFF7C6FA001B022802D90320BDE8F88F95
:1016300028688001F4D40EE00128F7D06868226A97
:1016400000F48031914204D1616A00F47010884244
:1016500001D00120EAE70020E8E700000010024086
:10166000000042428004424210000020007000400E
:10167000F8B505004FF0000016460C46009006D065
:101680002CB100226946284600F019F808B1012063
:10169000F8BD287B2070E87BE070697B6170A97BD6
:1016A000A17056B100F0C7FFE070607800F0C3FF92
:1016B0006070A07800F0BFFFA0700020F8BD2DE999
:1016C000F04791460C465FEA00084AD084B3D8F848
:1016D00000004068400744D4404601F04BF84FF406
:1016E00061620546B0FBF2F1B0FBF2F302FB13506E
:1016F0003C23B0FBF3F0B5FBF2F6607002FB165032
:10170000B0FBF3F203FB1200A070182931D31820AC
:10171000B1FBF0F7B1FBF0F200FB12102070404675
:1017200001F021F8411C04D0A84202D9461B02E076
:1017300017E04FF0FF36A7EB071000EB4000C0EBBF
:10174000001005EBC0152946404601F062F840B98B
:10175000701C01D0711900E03146404601F045F897
:1017600010B10120BDE8F0873946404600F06EFF19
:1017700000E02170B9F1000F0BD0207800F05BFF82
:101780002070607800F057FF6070A07800F053FF81
:10179000A0700020E6E7000070B5040003D0607C74
:1017A000002610B105E0012070BD2674204600F02F
:1017B0003DF802206074204600F00AF9042550BB71
:1017C000204600F09AFF30BB2068416821F00701F5
:1017D0004160A06820B11448016821F00101016056
:1017E0001148001F0168A26821F460711143016073
:1017F0006068411C04D10120FFF706FC58B1401E6F
:101800002268C0F303419160216880B2C86020461D
:1018100000F08EFF08B16574C5E7E67301206073C0
:10182000A0736074002070BD306C004008B5006883
:10183000084988420DD1FFF7E1FB0748C16941F033
:101840000061C161C069054900F00060009001209D
:10185000086008BD00280040001002403C044242DD
:101860002DE9F0410D4604003BD0C5B3207C012892
:101870003AD04FF0010884F8108002206074E878B4
:1018800072B300F0CFFEE073687800F0CBFE6073B7
:10189000A87800F0C7FEA073C2B2617BE07B00F0C5
:1018A00079FF20732870204600F064FF4FF46161D7
:1018B000B0FBF1F1002518292DD91822B1FBF2F166
:1018C000A1EB011101EB4101C1EB011100EBC116CC
:1018D0003146204600F09DFF0427C8B90BE000E028
:1018E00004E00120BDE8F0810220FBE7E0736878A6
:1018F0006073A878CFE7204600F035FF411C0AD07E
:10190000B04208D206490144204600F06EFF10B1F3
:1019100067742574E5E784F8118025740020E1E7F9
:10192000805101002DE9F0410D46040024D01DB383
:10193000207C012823D04FF0010884F81080022079
:1019400060742878EAB100F06DFE4FF4616100FB2D
:1019500001F6687800F066FEC0EB001006EB80062A
:10196000A87800F05FFE35182946204600F051FFA8
:101970000026042710BB0FE00120BDE8F081022003
:10198000FBE74FF4616148436978C1EB011100EB5B
:101990008100A9784518E7E72068416821F0050132
:1019A0004160204600F0DFFE411C0AD0A84208D268
:1019B00006490144204600F018FF10B167742674F0
:1019C000DAE784F8118026740020D6E78051010000
:1019D00070B504000AD02068416821F00801416018
:1019E000FFF7E6F805464FF47A7608E0012070BD6F
:1019F000FFF7DEF8401BB04201D9032070BD20681C
:101A000040680007F4D5002070BD10B5401EB0F14D
:101A1000807F01D3012010BD4FF0E02460610F21D1
:101A2000601701F0D1F80020A0610720206100209C
:101A300010BD704770470000F8B50168044608689B
:101A4000CA684B6910F00F0F4FF0000559D003F032
:101A5000010602F49077374365D0C10705D0D10560
:101A600003D5616C41F001016164410705D5D907D7
:101A700003D0616C41F002016164810705D5D9078B
:101A800003D0616C41F004016164010707D502F0E5
:101A90002001314303D0616C41F008016164616C45
:101AA00000293AD0800604D5900602D5204600F0E1
:101AB0004AFF20684069616CC0F38010090700D4B8
:101AC00060B3204600F018FF20684069400621D529
:101AD0002068143050E8001F21F0400140E8001257
:101AE000002AF5D1E06BA8B16D494163E06BFEF7C8
:101AF00013FE002811D0E06B416B01B0BDE8F0404F
:101B0000084783060FD593060DD52046BDE8F8405B
:101B100000F019BF2046FFF78DFFF8BD2046FFF704
:101B200089FF6564F8BD266B2023012E7CD1C60693
:101B30007AD5D60678D508684868009048694FF08D
:101B40000206400640D5E16B086840680004000CBE
:101B5000E8D0A28D8242E5D9E085886920282DD081
:101B600020680C3050E8001F21F4807140E800121A
:101B7000002AF5D12068143050E8001F21F001013F
:101B800040E80012002AF5D12068143050E8001F08
:101B900021F0400140E80012002AF5D184F84230DB
:101BA000256320680C3050E8001F21F0100140E848
:101BB0000012002AF5D1E06BFEF78BFD6663A08D65
:101BC000E18D401A81B22AE0A08DE18D401A81B2E8
:101BD000E08D0028A6D00029A4D022680C3252E85B
:101BE000000F20F4907042E80007002FF5D1206824
:101BF000143050E8002F22F0010240E80027002FA7
:101C0000F5D184F84230256320680C3050E8002F6D
:101C100022F0100240E80023002BF5D16663204635
:101C2000FFF707FFF8BDFFE705062BD5150629D5F9
:101C300094F841002128F5D1A068B0F5805F01D16A
:101C40002069B0B1206A411C216221680078486097
:101C5000E08C401E0004000CE084E3D12068C168E1
:101C600021F08001C1602068C16841F04001C1607D
:101C7000D8E7206A0088C0F308004860206A801C0A
:101C80002062E5E74006CDD55006CBD5CA68204690
:101C900022F04002CA6084F8413000F024F9C1E724
:101CA000E928000870B5040004D094F8410000252C
:101CB00010B106E0012070BD84F84050204600F0CD
:101CC00023F8242084F841002068C16821F40051E1
:101CD000C160204600F098FE2068016921F490411F
:101CE00001612068416921F02A0141612068C168D1
:101CF00041F40051C1606564202084F8410084F8FB
:101D000042006563002070BD2DE9F04186B00024DB
:101D10000646009401940294039400682E49884278
:101D200057D12E48816941F480418161816901F474
:101D300080410491816941F0040181618069284DED
:101D400000F0040004904FF4007000900220019015
:101D50000320039069462846FEF72CFE2815CDE99E
:101D60000004694628460294FEF724FE1E4D1D48D5
:101D70004FF08008C5E90004C5E902482C618714CA
:101D80006C61C5E906472846FEF7BCFD08B1FEF7C1
:101D90009EFCF5636E62144D12484435143801C53B
:101DA0001020A5E81101104845F8104944306C6135
:101DB000C5E90647FEF7A6FD08B1FEF788FCB56346
:101DC0000022012125206E62FFF7E6F82520FFF7AB
:101DD000D5F806B0BDE8F08100380140001002409F
:101DE00000080140580002401C02002090F84230D8
:101DF000202B01D00220704721B11AB100230363C8
:101E000000F05EBE0120704700680E49884218D17C
:101E10000D4801780A290FD0B0F80031421C9954BE
:101E2000B0F8001111F10101A0F8001106490122DA
:101E300001F58270FFF7DABF012180F8021100215D
:101E4000F2E7704700380140D00000202DE9F84348
:101E5000044690F841001F4616460D46202802D041
:101E60000220BDE8F8837DB176B1002060642120B6
:101E700084F84100FEF79CFEA6848046E684A068B4
:101E8000B0F5805F02D003E00120EAE7206910B1DD
:101E90002E4600250EE000260CE08021204600F0B2
:101EA0002AFEA0B9AEB116F8010B21684860E08C9B
:101EB000401EE084E08C43464FF00002009700286B
:101EC000EBD14FF04001204600F015FE30B1032069
:101ED000C7E735F8020BC0F30800E6E7202084F8D6
:101EE00041000020BDE77047FEE701684A69D24320
:101EF00052050FD46FF480624A61002140F8301F10
:101F0000202242738173026942F00402026101736C
:101F10000120704700207047F8B50446C06A1E468D
:101F20000D461746082807D0012805D010F5803F38
:101F300002D0206B122804D12068016841F480711E
:101F40000160134600224FF001112046009600F078
:101F50005DF840B120680068C00502D54FF40070FC
:101F600020640320F8BD2069B0F5804F0ED0062014
:101F7000216800EAD51040F0F000086133463A4687
:101F80000B49204600F08AF878B902E005F0FE001F
:101F900000E0E8B221680861054933463A46891FE6
:101FA000204600F07BF80028DCD00120F8BD0000BE
:101FB0000800010070B516460D4604461EE0204696
:101FC000FFF793FF08B1012070BD681C16D0FEF723
:101FD000EFFD801BA84200D885B920684069C04346
:101FE00040070BD5002044F8300F20216173A07307
:101FF000216941F0200121612073E4E720684069F4
:10200000C0434007DBD4002070BD00002DE9F0473D
:10201000984617460D460446C1F30746DDF8209062
:102020002AE000BFB8F1FF3F26D0FEF7C1FDA0EBCC
:102030000901414502D8B8F1000F1DD12068012ED9
:1020400016D0806925EA00000004000C12D00020A0
:10205000B84211D1002044F8300F20216173A073E1
:10206000216941F02001216120730120BDE8F08742
:102070004069E7E70120EBE72068012E0AD080697C
:1020800025EA00000004000C06D00020B842C9D0A8
:102090000020EBE74069F3E70120F7E72DE9F0477F
:1020A000984616460D4604464FF000094FF0200AA8
:1020B000C1F3074723E020684069C043400515D4B9
:1020C0002068016841F40071016021686FF480604C
:1020D0004861C4F8309084F83DA084F83E90216CAB
:1020E00041F00401216484F83C9021E0701C06D08A
:1020F000FEF75EFDA0EB0800B04203D816B1012F39
:102100001FD021E02068012F15D0806925EA00004A
:102110000004000C18D000BF44F8309F84F80DA0D4
:1021200084F80E90216941F02001216184F80C901F
:102130000120BDE8F087406925EA00000004000C9A
:10214000EAD12068406901E02068806925EA000042
:102150000004000CAFD1ECE770B516460D460446FE
:102160001EE02046FFF7C1FE08B1012070BD681CCB
:1021700016D0FEF71DFD801BA84200D885B9206847
:102180004069C04300060BD5002044F8300F2021E1
:102190006173A073216941F0200121612073E4E79C
:1021A00020684069C0430006DBD4002070BD0000F9
:1021B000174808B5416941F001014161406915497D
:1021C00000F001000090144801604FF4804141602C
:1021D000402181608021C1600021016141618161F4
:1021E000C161FEF78FFB08B1FEF771FA00220121F1
:1021F0000E20FEF7D1FE0E20FEF7C0FE00220121C8
:102200000F20FEF7C9FEBDE808400F20FEF7B6BE5E
:1022100000100240080002402400002030B585B0C4
:10222000002000900190029003902248816941F0C3
:1022300010018161816901F010010491816941F00F
:1022400020018161816901F020010491816941F0DF
:1022500004018161816901F004010491816941F007
:10226000080181618069012200F00800124D5403C9
:10227000049021462846FEF795FC00940124022094
:10228000CDE90240694601942846FEF793FB2002FF
:1022900000900A48CDE9010469460948FEF78AFB27
:1022A000002202211720FEF777FE1720FEF766FEB8
:1022B00005B030BD001002400010014000002110A8
:1022C000000801400D4810B50B4901600C49416000
:1022D00000214FF480428160C0E9031241618161B5
:1022E000C1610162FEF76AFC002803D0BDE810401E
:1022F000FEF7EDB910BD000000540040680000205A
:10230000A08601001CB50020019000901A481949D0
:1023100001604FF0FF3141604FF480718160FFF741
:102320003BFA08B1FEF7D3F917208DF804003B20E3
:102330008DF805008DF80600002201A90E48FFF770
:10234000F1FA08B1FEF7C3F906208DF800008DF808
:1023500001001E208DF8020018208DF803000022D5
:1023600069460548FFF77CFA002801D0FEF7AFF96F
:102370001CBD000000280040BC00002010B50E4C21
:102380000C480C2120604FF4E13060600020A06018
:10239000E060C4E90401A061E0612046FFF782FC2F
:1023A00008B1FEF794F92068C16841F02001C160CE
:1023B00010BD000000380140D4010020FEE70000FD
:1023C0001CB5002269460E48FFF779F9002201A9E1
:1023D0000B48FFF74DF90B489DF8071001809DF859
:1023E000051041809DF8061081809DF80010C18085
:1023F0009DF8011001819DF8021041811CBD000073
:10240000BC00002018000020FEE770B5002404F195
:10241000B000C0B2002100F011FA0021084600F01F
:102420000DFA0021102000F009FA002540210020BB
:1024300000F004FA6D1CEDB2802DF7D3641CE4B2F9
:10244000082CE4D370BD10B56420FEF789FA002192
:10245000AE2000F0F3F90021202000F0EFF9002178
:10246000102000F0EBF90021084600F0E7F9002108
:10247000102000F0E3F90021B02000F0DFF9002186
:10248000C82000F0DBF90021402000F0D7F900213E
:10249000812000F0D3F90021FF2000F0CFF90021C6
:1024A000A12000F0CBF90021C82000F0C7F90021DD
:1024B000A62000F0C3F90021A82000F0BFF90021F8
:1024C0003F2000F0BBF90021A42000F0B7F9002163
:1024D000D32000F0B3F90021084600F0AFF9002145
:1024E000D52000F0ABF90021F02000F0A7F9002181
:1024F000D92000F0A3F90021222000F09FF900214B
:10250000DA2000F09BF90021122000F097F9002159
:10251000DB2000F093F90021202000F08FF900214A
:102520008D2000F08BF90021142000F087F90021A4
:10253000BDE81040AF2000F081B910B50446B031BD
:10254000C8B2002100F07AF9102040EA14100021EE
:1025500000F074F904F00F00BDE81040002100F015
:102560006DB900002DE9F041203A00240D46804667
:10257000D6B27F2803D900208D1C8046EDB2102BE7
:10258000294610D0FFF7D9FF164906EB460001EBAC
:1025900040054021285D00F051F9641CE4B2062C8E
:1025A000F7D3BDE8F081FFF7C8FF0F4F04EB06102B
:1025B0004021385C00F042F9641CE4B2082CF5D3E9
:1025C0006D1CE9B24046FFF7B8FF002404EB06108B
:1025D00038444021007A00F031F9641CE4B2082C40
:1025E000F4D3DEE7F43500081C3800082DE9F0418B
:1025F000984617460E46044600250DE043463146F0
:102600002046FFF7AFFF0834E4B2782C02D900244B
:10261000B61CF6B26D1CEDB27A5D002AEED1BDE8B3
:10262000F0817047010901EB810100F00F0000EB20
:102630004100C0B27047002102E00A38C0B2491C14
:102640000A28FAD2090740EA116070472DE9F041E3
:1026500004460025C07B627BA37B42E0012A16D0A2
:10266000032A14D0052A12D0072A10D0082A0ED027
:102670000A2A0CD00C2A0AD0042A10D0062A0ED01E
:10268000092A0CD00B2A0AD0022A0DD028E01F2BD1
:102690000CD30C2A05D101221346401C20E01E2B2E
:1026A00004D30123521C1BE01C2B02D203F10103B3
:1026B00016E011D183B29E0710D16426B3FBF6F762
:1026C00006FB173636B94FF4C876B3FBF6F706FBB0
:1026D00017331BB91D2303E01D2B01D10322012356
:1026E0006D1C8D42BAD3D1B2E0736173DAB2A273BA
:1026F00000F050F82073BDE8F08170B50446FEF795
:1027000057FA05464FF47A7606E0FEF751FA401B79
:10271000B04201D9032070BD206840688006F4D51E
:102720002068416841F010014160002070BD000048
:1027300070B504460068416821F010014160FEF761
:1027400037FA05464FF47A7607E000BFFEF730FA15
:10275000401BB04201D9032070BD2068406880064C
:10276000F4D5002070BD0168086A496A89B241EA5F
:1027700000407047006881698AB2C1698BB2816983
:1027800089B28A4203D0C06961F31F40704743EAAF
:1027900002407047F0B56424C1EBC1030927A500CE
:1027A000072603EB01130329B3FBF7F100F5FA60E9
:1027B000114401440AD2401EB0FBF4F201EB900137
:1027C000B0FBF5F0891A0844001D08E0B0FBF4F2F4
:1027D00001EB9001B0FBF5F0891A0844801CB0FBB6
:1027E000F6F106FB1100C0B2F0BD70B50D4606460D
:1027F0000024FFF782FF48B93168280C086231686D
:10280000A8B248623046FFF793FF00B1012420468A
:1028100070BD70B50D4606460024FFF76EFF48B93F
:102820003168280C88613168A8B2C8613046FFF76A
:102830007FFF00B10124204670BD00001CB50223BB
:102840008DF804108DF805004FF6FF70009001AA76
:1028500078210248FEF776FA1CBD000068000020CF
:102860007047FEF733BB70B594B028216846FDF77A
:1028700072FC14210AA8FDF76EFC00250F950920B3
:10288000012410950090119512954FF48030049416
:102890000694CDE901050226CDE907604FF4E0106A
:1028A00009906846FEF754FD08B172B6FEE70F20A6
:1028B000CDE90A064FF48060CDE90C5002210AA848
:1028C0000E95FEF769FC08B172B6FEE74FF4007092
:1028D000CDE90F400FA8FEF7E9FB002801D072B642
:1028E000FEE714B070BD704710B5406A0021C18585
:1028F000C184FFF79FF810BD01680C3151E8002F2B
:1029000022F4907241E80023002BF5D101681431C4
:1029100051E8002F22F0010241E80023002BF5D1FD
:10292000016B012909D101680C3151E8002F22F017
:10293000100241E80023002BF5D1202180F842103D
:1029400000210163704708B590F84210222901D098
:10295000022008BD82684FF480539A4201D1016978
:1029600021B1816A9A421BD04AB10AE00268816AA9
:102970005268C2F308020A80816A891C08E0026971
:1029800072B10268526802F07F020A70816A491CC3
:102990008162C18D491E0904090CC18503D01BE069
:1029A00002685268F1E70168CA6822F02002CA6032
:1029B0000168CA6822F48072CA6001684A6922F01C
:1029C00001024A61202180F8421000214163026B1C
:1029D000012A03D0FFF718FA002008BD016301683F
:1029E0000C3151E8002F22F0100241E80023002BA7
:1029F000F5D101680A68D20602D50A6849680091D3
:102A0000818DFFF716F8E7E770B5044600680169A5
:102A1000E26821F44051114301612169A068084333
:102A2000616908432168CA6841F20C639A43024312
:102A3000CA6020684169A26921F440711143416173
:102A40001E492068884202D1FEF74CFC01E0FEF7E7
:102A500039FC00EBC00101EB0012606864218000CA
:102A6000B2FBF0F3B3FBF1F36FF018067343B2FB64
:102A7000F0F5B2FBF0F605EB8305322303EB051509
:102A8000B5FBF1F5B6FBF1F605F0F00505EB061523
:102A9000B2FBF0F6B2FBF0F0B0FBF1F06FF0180211
:102AA000504306EB800003EB0010B0FBF1F021680F
:102AB00000F00F002844886070BD0000003801401D
:102AC00081628285C28500214164222180F8421002
:102AD000016921B10168CA6842F48072CA60016864
:102AE0004A6942F001024A610068C16841F0200170
:102AF000C160002070472DE9F041984617460E4608
:102B00000446069D27E0681C25D02DB1FEF750F83D
:102B1000A0EB0800A8421ED920680C3050E8001F26
:102B200021F4D07140E80012002AF5D12068143059
:102B300050E8001F21F0010140E80012002AF5D101
:102B4000202084F8410084F84200002084F84000EE
:102B50000320BDE8F0812068006836EA000004D058
:102B60000020B842CFD00020F3E70120F9E70000B1
:102B70000148FEF761BF0000D4010020FEE700001D
:102B80000FB4054B10B503A9044A029800F0FEF8F3
:102B900010BC5DF814FB00009D34000814000020F8
:102BA0000FB4084B10B504A902AA039800F0EEF880
:102BB000044602A9002000F06CFC204610BC5DF821
:102BC00014FB0000933400080907090E002804DBF9
:102BD00000F1E02080F80014704700F00F0000F1D1
:102BE000E02080F8141D704702E008C8121F08C1D9
:102BF000002AFAD170477047002001E001C1121F7E
:102C0000002AFBD1704700002DE9FF5F82B0002150
:102C1000DDE90430020DDDF840B0034318D044F67E
:102C20001050A2F2FF3242431514119801281FD010
:102C3000A5EB0B00401C5FEA000A4FF000064E4F68
:102C4000DFF83891B046504615D5CAF1000413E0BC
:102C5000119801244AA3012801D16FEA0B010298BF
:102C6000119AC0E90031C0E9024206B0BDE8F09F08
:102C7000CBF10000DFE704460021404A491842EB4F
:102C80000450CDE9001012E0E00707D032463B4681
:102C900040464946FDF766FB8046894632463B463C
:102CA00010461946FDF75EFB06460F466410002CE1
:102CB000EAD1DDE90401DDE90023BAF1000F06DA0B
:102CC000FDF750FB42464B46FDF74CFB05E0FDF798
:102CD000BBFB42464B46FDF7B7FB04460E460022BF
:102CE000284BFDF739FC03D84FF0FF30014607E0D1
:102CF0000022254B20463146FDF78DFAFDF713FCE7
:102D0000102409E0002C0ADB0A220023FDF752FA06
:102D1000039B30321A55641E50EA0102F2D1641C42
:102D2000039AC4F111031444119A012A03D0012219
:102D300008430DD10AE0084304D000204FF0110BE6
:102D4000119072E7A3EB0B056D1E0DE05B4504DDF2
:102D50004FF0000205F1010504E003DA4FF0000234
:102D6000A5F10105002AECD002981199C0E90231C1
:102D7000C0E9004579E70000000014400000F03F82
:102D8000300000000000F0430000E03F2DE9FF4F5D
:102D900095B09A46884606460025EEE1252877D16B
:102DA00000242746F94A0121039400E0044316F861
:102DB000013F203B01FA03F01042F7D130782A2876
:102DC00011D06FF02F033078A0F13002092A16D805
:102DD000039A44F0020402EB820203EB4202104425
:102DE000761C0390EFE758F8042B0392002A03DACD
:102DF000504244F40054039044F00204761C3078AE
:102E00002E2816D116F8010F44F004042A280DD0FC
:102E10006FF02F023078A0F13003092B09D807EBAF
:102E2000870302EB4303C718761CF3E758F8047BCB
:102E3000761C30786C280FD006DC4C2817D0682818
:102E40000DD06A2814D104E0742810D07A280FD14C
:102E50000DE044F400140AE044F4801401E044F46A
:102E600040147278824202D104F58014761C761CDC
:102E7000307866280BD013DC582877D009DC00287E
:102E800075D04528F6D04628F4D047281AD193E1CA
:102E900018E0632835D0642879D0652812D18BE1F9
:102EA000702873D008DC6728F1D069286FD06E28AD
:102EB0000DD06F2806D1ACE073282CD0752874D0C3
:102EC000782853D05246179990476D1C54E1C4F3AB
:102ED0000250022809D003280DD0D8F80010042889
:102EE0000DD00D6008F1040846E1D8F80010EA178B
:102EF000C1E90052F6E7D8F800100D80F2E70D7036
:102F0000F0E718F8041B8DF8001000208DF8010080
:102F1000EB46012003E058F804BB4FF0FF30610797
:102F20004FF0000102D40DE009F101018946B942D8
:102F30000FDA8145F8DB1BF809100029F4D108E00D
:102F400009F1010189468142FADB1BF809100029C9
:102F5000F6D103985346A0EB090721463846179A45
:102F600000F080FA284400EB090507E044E008E19E
:102F70000DE01BF8010B524617999047B9F1010972
:102F8000F7D2534621463846179AF2E039E00A2133
:102F9000C4F302524FF0000B0091022A06D058F8F9
:102FA000040BC117032A09D00AE023E008F1070047
:102FB00020F00702F2E80201904605E000B2C117D6
:102FC000042A01D140B2C117002906DA0A460021BD
:102FD000404261EB02012D2202E0220504D52B22A2
:102FE0008DF80420012203E0E20701D02022F7E758
:102FF000914657E00A2100E010214FF0000B0091AC
:103000000BE010214FF0000B44F00404082700915E
:1030100003E008204FF0000B0090C4F30252022A94
:1030200005D058F8040B0021032A08D008E008F165
:10303000070020F00702F2E80201904603E080B2A8
:10304000042A00D1C0B24FF0000922072AD53278F5
:10305000702A07D0DDF800C08CF0100C5CEA0B0C75
:1030600005D00EE040228DF80420012208E050EA4D
:10307000010306D030238DF804308DF8052002229C
:103080009146009B83F0080353EA0B030AD150EAF0
:10309000010201D1620705D530228DF804204FF0DE
:1030A00001097F1E3278582A04D039A20C920CAA4A
:1030B00002920BE03BA2F9E75B46009AFDF77AF833
:1030C0000C9B9B5C029A521E0292137050EA010202
:1030D000F2D1029804A9081A00F1200B600702D56A
:1030E00024F4803400E001275F4502DDA7EB0B00EC
:1030F00000E0002000EB0B01009003984944401AC7
:103100000390E00306D453462146179A039800F033
:10311000A9F90544002706E001A85246C05D1799A9
:1031200090476D1C7F1C4F45F6DBE0030CD55346E2
:103130002146179A039800F095F9054404E03020E1
:103140005246179990476D1C0099481E009000291F
:10315000F5DC08E00298029952460078491C029179
:10316000179990476D1CBBF10001ABF1010BF1DC2D
:103170005BE100F065F90544761C307800287FF4A7
:103180000DAE19B02846BDE8F08F000009280100F7
:1031900030313233343536373839616263646566CD
:1031A000000000003031323334353637383941428F
:1031B0004344454600000000600700D4062708F19C
:1031C000070020F00700F0E80223804603F0004CDF
:1031D0005FEA0C0001D097A009E0200501D596A078
:1031E00005E0E00701D095A001E0AFF24C0013909C
:1031F000307823F0004365280CD006DC452809D040
:1032000046281DD047287FD13BE0662818D0672884
:103210007AD136E00021112F01DB112000E0781C6B
:10322000CDE9000104A90CA8FFF7EEFCDDE90D01D2
:103230000C9A4FF0000B07F10109109200914EE03B
:103240004FF000400097CDE9011004A90CA8FFF74A
:10325000DBFCDDE90D020C9B0F994FF0000B914652
:103260001093009211B9791C00EB0109B7EB09002A
:1032700003D4C0F1FF3B07F10109A9EB070001905E
:1032800042E0012F00DA01270021112F01DD11207A
:1032900000E03846CDE9000104A90CA8FFF7B4FC12
:1032A000DDE90D010C9A00914FF0000BB946109228
:1032B00021070FD4009A4A4503DA914601E0A9F1AB
:1032C0000109B9F1010F05DD109AA9F10101515C65
:1032D0003029F4D0B84202DA10F1040F03DA0121E8
:1032E000CDE9011010E0002803DC8344A9EB0001C4
:1032F00002E0411C494500DD8946A0EB0B00401C63
:1033000001904FF000400290200705D401984845F5
:1033100002DB4FF0FF30019000208DF84B00029847
:103320000DF14B07B0F1004F25D002200C902B205F
:103330000D90029800280CDA404202902D200D904A
:1033400007E00A210298FCF71FFF3031029007F8CE
:10335000011D0C99481E0C900029F2DC02980028EF
:10336000EFD1791E0D980870307800F0200040F001
:10337000450007F8020D11A8C01BC01D029013984C
:10338000007800B1012000EB0901019801EBE07128
:10339000029801440398401A401E0390E00306D4AB
:1033A00053462146179A039800F05CF80544139899
:1033B000007818B15246179990476D1CE00323D549
:1033C00053462146179A039800F04CF805441BE039
:1033D000BBF1000F07DB0098584504DD10981799E2
:1033E00010F80B0001E017993020524690470198E1
:1033F0000BF1010B401E05F10105019004D12E20B7
:103400005246179990476D1CB9F10001A9F10109C5
:10341000DEDC05E017F8010B5246179990476D1C4A
:103420000299481E02900029F4DC53462146179A5F
:1034300003989EE62D0000002B00000020000000F5
:103440002DE9F041044600251E461746880404D4A1
:1034500005E039462020B0476D1C641EF9D528468A
:10346000BDE8F0812DE9F041044600251E46904656
:10347000C80301D5302700E02027880404D505E0E3
:1034800041463846B0476D1C641EF9D52846BDE854
:10349000F0810A68531C0B601070704713B54FF62B
:1034A000FF73012269460548FEF7D0FC0348006817
:1034B0000168C9434906FBD400981CBDD401002013
:1034C0009EB0FDF70BFDFFF7CEF9FEF7A7FEFEF766
:1034D0006FFEFEF753FFFEF7F5FEFEF713FFFEF754
:1034E000B2FFFEF792FF012228492948FEF77EFC31
:1034F000284C264DFEF764FF6088A28826A18DE83F
:103500000700228824A325A104A8FFF749FB6389AB
:1035100025A2218924A08DE80F00E38823A226A1FB
:1035200011A8FFF73DFB00210C2304AA0846FFF772
:103530005DF80C2311AA02210020FFF757F86089DB
:103540003B2801D1FEF761FF95F802010128D1D196
:10355000002085F802011CA1681CFCF707FE60B979
:10356000681CFFF70DFB1A4801781AA0FFF708FB4B
:103570004FF400511B48FDF70DFB1BA0FFF700FBAC
:10358000FF21681CFCF7E7FDB4E70000D000002035
:10359000D4010020180000202F00000025642573AE
:1035A00025642573256400003A00000054696D65A8
:1035B00020697320000000002573256425732564AD
:1035C00025732564000000004C45440D00000000F8
:1035D0000000002074656D702069732025640D0A59
:1035E0000000000000100140554152545F464C411C
:1035F000470D0A000000000000000000002F00003E
:1036000000000700070000147F147F1400242A7FA5
:103610002A12006264081323003649552250000024
:103620000503000000001C224100000041221C0094
:103630000014083E08140008083E0808000000A016
:103640006000000808080808000060600000002012
:1036500010080402003E5149453E0000427F4000F0
:10366000004261514946002141454B310018141276
:103670007F10002745454539003C4A494930000143
:103680007109050300364949493600064949291E92
:1036900000003636000000005636000000081422F4
:1036A00041000014141414140000412214080002F4
:1036B0000151090600324959513E007C1211127C19
:1036C000007F49494936003E41414122007F414146
:1036D000221C007F49494941007F09090901003E38
:1036E0004149497A007F0808087F0000417F410076
:1036F000002040413F01007F08142241007F4040EC
:103700004040007F020C027F007F0408107F003ED3
:103710004141413E007F09090906003E4151215EB9
:10372000007F091929460046494949310001017FB6
:103730000101003F4040403F001F2040201F003F4C
:103740004038403F006314081463000708700807FE
:1037500000615149454300007F41410000552A5511
:103760002A55000041417F0000040201020400408C
:1037700040404040000001020400002054545478AE
:10378000007F4844443800384444442000384444CE
:10379000487F00385454541800087E09010200186C
:1037A000A4A4A47C007F080404780000447D4000A9
:1037B000004080847D00007F102844000000417F8D
:1037C0004000007C04180478007C08040478003869
:1037D0004444443800FC242424180018242418FCF1
:1037E000007C0804040800485454542000043F445A
:1037F0004020003C4040207C001C2040201C003C1D
:103800004030403C004428102844001CA0A0A07C6C
:10381000004464544C4414141414141400000000A4
:10382000000000000000000000000000000000F8A0
:1038300000000000000000333000000000100C0603
:10384000100C0600000000000000000040C078409E
:10385000C0784000043F04043F040400007088FC6A
:1038600008300000001820FF211E0000F008F000C2
:10387000E018000000211C031E211E0000F0088833
:10388000700000001E2123241927211010160E009D
:10389000000000000000000000000000000000E048
:1038A000180402000000000718204000000204185D
:1038B000E00000000040201807000000404080F0B9
:1038C000804040000202010F01020200000000F0EF
:1038D000000000000101011F0101010000000000C3
:1038E0000000000080B07000000000000000000038
:1038F00000000000000101010101010100000000C1
:103900000000000000303000000000000000000057
:1039100080601804006018060100000000E0100834
:103920000810E000000F102020100F00001010F809
:10393000000000000020203F202000000070080848
:1039400008887000003028242221300000300888C8
:10395000884830000018202020110E000000C020F0
:1039600010F8000000070424243F240000F8088811
:10397000880808000019212020110E0000E010889E
:1039800088180000000F112020110E0000380808D0
:10399000C83808000000003F0000000000708808E0
:1039A00008887000001C222121221C0000E0100861
:1039B0000810E0000000312222110F00000000C0BA
:1039C000C000000000000030300000000000008057
:1039D0000000000000008060000000000000804047
:1039E0002010080000010204081020004040404060
:1039F00040404000040404040404040000081020B3
:103A000040800000002010080402010000704808F7
:103A10000808F0000000003036010000C030C8285F
:103A2000E810E0000718272423140B000000C0381A
:103A3000E0000000203C23020227382008F8888894
:103A400088700000203F202020110E00C0300808A0
:103A500008083800071820202010080008F8080877
:103A60000810E000203F202020100F0008F8888870
:103A7000E8081000203F20202320180008F888883C
:103A8000E8081000203F200003000000C0300808B4
:103A90000838000007182020221E020008F808003D
:103AA0000008F808203F210101213F20000808F804
:103AB000080800000020203F202000000000080827
:103AC000F8080800C08080807F00000008F888C0E7
:103AD00028180800203F20012638200008F8080098
:103AE00000000000203F20202020300008F8F800CF
:103AF000F8F80800203F003F003F200008F830C0E1
:103B00000008F808203F200007183F00E0100808D0
:103B10000810E0000F10202020100F0008F80808FF
:103B20000808F000203F210101010000E010080812
:103B30000810E0000F18242438504F0008F8888837
:103B400088887000203F2000030C30200070880817
:103B5000080838000038202121221C00180808F825
:103B6000080818000000203F2000000008F80800A6
:103B70000008F808001F202020201F000878880077
:103B800000C83808000007380E010000F80800F8E7
:103B90000008F800033C0700073C03000818688091
:103BA0008068180820302C03032C30200838C80007
:103BB000C83808000000203F200000001008080856
:103BC000C83808002038262120201800000000FEF8
:103BD000020202000000007F40404000000C30C0A4
:103BE00000000000000000010638C00000020202D0
:103BF000FE000000004040407F0000000000040282
:103C000002020400000000000000000000000000AC
:103C1000000000008080808080808080000202049C
:103C20000000000000000000000000000000808094
:103C3000808000000019242222223F2008F8008002
:103C400080000000003F112020110E0000000080C5
:103C500080800000000E1120202011000000008054
:103C60008088F800000E112020103F200000808086
:103C700080800000001F222222221300008080F09A
:103C8000888888180020203F2020000000008080C5
:103C900080808000006B94949493600008F800800A
:103CA00080800000203F210000203F200080989865
:103CB000000000000020203F2020000000000080C5
:103CC0009898000000C08080807F000008F8000005
:103CD00080808000203F24022D302000000808F85A
:103CE000000000000020203F202000008080808015
:103CF00080808000203F20003F20003F80800080A7
:103D000080800000203F210000203F2000008080B4
:103D100080800000001F202020201F008080008065
:103D20008000000080FFA12020110E000000008014
:103D300080808000000E112020A0FF808080800005
:103D40008080800020203F21200001000000808032
:103D5000808080000033242424241900008080E027
:103D6000808000000000001F2020000080800000F4
:103D700000808000001F202020103F2080808000D5
:103D80000080808000010E300806010080800080E5
:103D9000008080800F300C030C300F00008080000A
:103DA000808080000020312E0E3120008080800035
:103DB0000080808080818E701806010000808080E5
:103DC000808080000021302C222130000000000083
:103DD000807C020200000000003F40400000000024
:103DE000FF00000000000000FF0000000002027C55
:103DF000800000000040403F00000000000601017C
:103E0000020204040000000000000000010202039E
:103E10000405060708090A0B0C0D0E0F101001020D
:103E200002030405060708090A0B0C0D0E0F1010FB
:103E3000000000000000000001020304060708095A
:103E40000000000001020304683E0008000000209A
:103E500018000000E82B0008803E00081800002031
:103E600090060000F82B000802000000010000008E
:103E700010000000000000000024F400000000001A
:04000005080000ED02
:00000001FF
