:020000040800F2
:10000000901300200501000815290008612300084D
:10001000B9280008A90600089B3800080000000065
:10002000000000000000000000000000BD340008D7
:10003000C5060008000000002F2B0008BF34000890
:100040001F0100081F0100081F0100081F01000810
:100050001F0100081F0100081F0100081F01000800
:100060001F0100081F0100081F0100081F010008F0
:100070001F0100081F010008AD060008B9060008AE
:100080001F0100081F0100081F0100081F010008D0
:100090001F0100081F0100081F010008C706000813
:1000A0001F0100081F0100081F0100081F010008B0
:1000B0001F0100081F0100081F0100081F010008A0
:1000C0001F0100081F0100081F0100081F01000890
:1000D0001F010008C93700081F0100081F010008A0
:1000E0001F0100081F0100081F010008DFF810D0E1
:1000F00000F04AFA00480047F55D0008AFF30080C1
:10010000901300200648804706480047FEE7FEE7B8
:10011000FEE7FEE7FEE7FEE7FEE7FEE7FEE7FEE7B7
:100120003D350008ED000008202A04DB203A21FAC2
:1001300002F00021704721FA02F3D040C2F1200200
:100140009140084319467047D2B201E000F8012BF4
:10015000491EFBD270470022F6E710B513460A4647
:1001600004461946FFF7F0FF204610BD10B50022E7
:1001700000E0521C835C8C5CA34201D1002BF8D1BF
:10018000D8B2E1B2401A10BD30B50B46014600208E
:100190002022012409E021FA02F59D4205D303FA49
:1001A00002F5491B04FA02F52844151EA2F10102CA
:1001B000F1DC30BD2DE9F05F0546002092469B46FC
:1001C00088460646814640241BE02846414647466D
:1001D0002246FFF7A9FF53465A46C01A914110D351
:1001E00011461846224600F0E1F92D1A67EB010886
:1001F0004F4622460120002100F0D8F917EB0009F4
:100200004E41201EA4F10104DFDC484631462A4657
:100210004346BDE8F09F2DE9FE4F804681EA03008A
:10022000C00F0C46009021F0004123F00045B8EBD0
:100230000200A94105D24046214690461C460B4685
:10024000024623F00040104347D0270DC7F30A00B1
:10025000C3F30A510290401A019040286BDAC3F3AD
:10026000130040F4801B0098924620B10023D2EB8B
:10027000030A63EB0B0B01985946C0F1400250464C
:1002800000F094F906460D4650465946019A00F092
:100290009CF910EB08006141002487EA115284EABE
:1002A000E7731A4340D0009A62B3019A012A4FEAD9
:1002B000075215DC001B61EB02014FF0004202EA1D
:1002C0000752CDE90042001C41F5801132462B4611
:1002D00000F09CF903B0BDE8F08F40462146F9E7F5
:1002E000001B61EB0201001C41F5801300185B410B
:1002F0002018A2F5001747EB030140EAD570B619A4
:100300006D4111E06D084FEA360645EAC0754FEAC7
:100310000752001B61EB0201001C41F580114908E6
:100320004FEA30000019514132462B4603B0BDE878
:10033000F04F00F05CB90098012240000023D0EBA0
:10034000020263EBE073009821464FEAE074B8EBD9
:10035000000061EB0401E9E783F000435BE781F013
:10036000004158E72DE9FE4F81EA030404F0004400
:1003700021F0004100944FF0000B23F0004350EABD
:1003800001045ED052EA03045BD0C3F30A54C1F304
:100390000A552C44A4F2F3340194A0FB0254C1F397
:1003A000130141F48011C3F3130343F4801301FBE1
:1003B000024400FB034E840A970A44EA815447EA48
:1003C0008357A4FB076802958D0A05FB07854FEA52
:1003D000932C04FB0C542705029D4FEA065847EA6C
:1003E0001637B5EB08056EEB070C870E920E47EA41
:1003F000811742EA8312A7FB0201B6EB0B0164EB03
:1004000000042B0D43EA0C335E1844EB1C50DA4613
:100410005146E7FB0201C5F313044FEA0B3343EAED
:1004200014534FEA0432019C43EA0603A4F10C047E
:100430000294009CCDE900B400F0E8F803B0BDE8F8
:10044000F08F00200146F9E72DE9F04D81EA030421
:1004500004F0004B21F0004514464FF0000A23F051
:10046000004150EA050220D054EA01021DD0C5F334
:100470000A570246C5F31303C1F31300C1F30A562A
:1004800040F4801543F48013A7EB0608101BD646F2
:1004900008F2FD3873EB050002D308F1010801E012
:1004A00092185B41B8F1000F03DA00200146BDE865
:1004B000F08D00204FF48011064684460EE0171B95
:1004C00073EB050705D3121B63EB050306434CEAE8
:1004D000010C49084FEA300092185B4150EA0107CD
:1004E000EDD152EA030012D082EA040083EA05014A
:1004F000084305D0101BAB4106D20122002306E0C1
:1005000000224FF0004302E06FF0010253101AEB9B
:1005100006004CEB085110EB0A0041EB0B01BDE863
:10052000F04D00F064B8C1F30A52C1F3130140F278
:10053000FF3341F480119A4202DA002001467047ED
:1005400040F233439A42A2F2334202DC5242FFF7B6
:10055000EBBD00F02BB8000030B5041E71F10004B3
:1005600004DB4FF00044404264EB0101141E73F1C0
:10057000000405DB1C464FF00043524263EB0403CA
:10058000994208BF904230BD064C074D06E0E06836
:1005900040F0010394E8070098471034AC42F6D3CA
:1005A000FFF7A8FD2C6C00084C6C0008202A04DB27
:1005B000203A00FA02F1002070479140C2F1200376
:1005C00020FA03F3194390407047202A06DBCB172B
:1005D000203A41FA02F043EAE07306E041FA02F3FE
:1005E000D040C2F12002914008431946704710B52F
:1005F000141E73F1000408DA401C41F10001921846
:100600005B411A4301D120F0010010BD2DE9F04DEE
:1006100092469B4611B1B1FA81F202E0B0FA80F243
:1006200020329046FFF7C2FF04460F4640EA0A0018
:1006300041EA0B0153465A46084313D0114653EA88
:10064000010019D0C8F140025046FFF76DFD054684
:100650000E46504659464246FFF7A8FF084305D0CC
:10066000012004E020463946BDE8F08D0020054316
:1006700046EAE0762C4337430A986305E40AA0EB88
:1006800008000022FD0A44EA47540A3002D500203F
:100690000146E9E7010510196941DDE9084500193E
:1006A0006941BDE8F04DA2E7FEE70000014800F017
:1006B00033B9000024030020014800F02DB90000E8
:1006C000E002002070474FF4807000F01BBA72B651
:1006D000FEE70022AFF3008030B50E4B0546012047
:1006E0005C7A012C15D8587A00241C54587A03EBF4
:1006F000800045605D7A03F108002A54587A421C54
:100700005A72303008703A2048702F208870CC70B0
:10071000002030BD8003002000B5ADF50F7D02F054
:100720005FFC012819D017A003F0AEF901221AA12D
:10073000684604F093FD18B1214618A003F0A4F90F
:100740008CAA8DA914A004F040F940B121461CA048
:1007500003F09AF90DF50F7D00BD22A0E4E78C9817
:100760008D9AD0F8141290F80202891E414350432A
:10077000C0F3CF22C1F3CF218B1A1FA003F084F95D
:10078000E8E700005344BFA8B3F5CABCBBAFB3C988
:10079000B9A6A3A1200D0A00303A000046696C6595
:1007A00053797374656D204D6F756E746564204662
:1007B00061696C656420282564290D0A0000000029
:1007C00047657420534443617264204361706163E0
:1007D000697479204661696C656420282564290D57
:1007E0000A0000005344BFA8B3F5CABCBBAFCAA7F8
:1007F000B0DC21200D0A00000D0A2564204D4220A6
:10080000746F74616C2064726976652073706163C3
:10081000652E0D0A2564204D4220617661696C6168
:10082000626C652E0D0A2564204D4220207573658B
:10083000642E0D0A0000000010B590F8211000226F
:10084000022905D00421816380F82020012010BDF9
:1008500001680B6823F00E030B6001680B6823F03E
:1008600001030B6090F84030C46B012101FA03F3DF
:10087000636080F8211080F82020104610BD000031
:1008800010B590F821100024022903D004218163BF
:1008900001243DE001680A6822F00E020A60016846
:1008A0000A6822F001020A601A4A0168914201D1E5
:1008B000012121E0174A1432914201D110211BE09D
:1008C000144A2832914201D1891515E0114A3C326F
:1008D000914201D189140FE00E4A5032914202D167
:1008E0004FF4803108E00B4A6432914202D14FF458
:1008F000801101E04FF08071064A083A51600121F1
:1009000080F82110002180F82010416B01B1884748
:10091000204610BD080002402DE9F05FC16B0C6855
:1009200001680B68D0F840C0042202FA0CF2494D6D
:10093000DFF824A1494E4A4FDFF828B1DFF828E15B
:1009400022422CD05A072AD50A68920603D40A6894
:1009500022F004020A600168A94201D1042219E0D0
:10096000514501D1402215E0B14202D14FF48062DD
:1009700010E0B94202D14FF480420BE0594502D158
:100980004FF4802206E0714502D14FF4800201E06D
:100990004FF080622F4908394A60C16A3BE04FF04E
:1009A000020808FA0CF818EA040F4FF000094FF09B
:1009B000010235D05FEA837832D50B689B0605D4F7
:1009C0000B6823F00A030B6080F821200168A9421C
:1009D00001D1022219E0514501D1202215E0B14296
:1009E00002D14FF4007210E0B94202D14FF400522C
:1009F0000BE0594502D14FF4003206E0714502D1B7
:100A00004FF4001201E04FF00072124908394A60B9
:100A100080F82090816A00291AD0BDE8F05F08476D
:100A2000082505FA0CF5254212D01B0710D50B68D6
:100A300023F00E030B6090F84010C36B02FA01F133
:100A40005960826380F8212080F82090016BE2E7F2
:100A5000BDE8F09F080002401C0002403000024048
:100A600044000240580002406C00024030B528B3F8
:100A700008C8134914221944B1FBF2F18900C1637B
:100A800010498163022141771A6843F6F0718A4365
:100A9000D0E900142143D0E902452C4321430469E5
:100AA0002143446921438469214311431960002192
:100AB0004163012242770177084630BD012030BDF5
:100AC000F8FFFDBF0000024070B5044600F024F9B5
:100AD0000546601C02D004480078044400F01CF96C
:100AE000401BA042FAD370BD40000020B0F5807FCB
:100AF00004D14FF40051024800F000B970470000E3
:100B000000100140044910B50A68024202D0086092
:100B1000FFF7ECFF10BD0000140401402DE9F84F71
:100B2000DFF8B8910024A9F1040B23460F2709F13F
:100B3000040AABF1040EC9E00125A5402A40AA42EF
:100B40007DD1674ED1F804C0ACEB0608B44532D075
:100B500014DCBCF1030F3AD009DCBCF1000F2AD041
:100B6000BCF1010F1CD0BCF1020F31D11DE0BCF172
:100B7000110F17D0BCF1120F2AD119E0B8F5881F58
:100B800019D006DCB8F5803F15D0B8F5801F1FD10D
:100B900011E0B8F5001F0ED0B8F5041F18D10AE017
:100BA000CB6815E0CB681B1D12E0CB6808330FE063
:100BB000CB680C330CE08B682BB1012B4FF0080392
:100BC00003D0456104E0042302E0056100E0002356
:100BD000FF2A01D8064601E000F104064FEA840529
:100BE00001D9A5F12005D6F8008007FA05FC28EA0E
:100BF0000C0803FA05F548EA0508C6F800804D68B8
:100C0000ED0062D5374DAE6946F00106AE61AD69C3
:100C100024F0030605F001050095334D06EB050CA5
:100C2000DCF80850A607360F07FA06F825EA08058B
:100C3000DFF8B880404503D14FF0000817E044E0EA
:100C4000DFF8AC80404502D14FF001080FE0DFF83B
:100C5000A480404502D14FF0020808E0DFF89880F8
:100C6000404502D14FF0030801E04FF0040808FAB4
:100C700006F848EA0508CCF808804D68D9F8006005
:100C8000ED024D4601D5164300E096432E604D68B7
:100C9000DAF80060AD02554601D5164300E09643F0
:100CA0002E604D68DBF80060AD035D4601D516434C
:100CB00000E096432E604D68DEF80060ED03754657
:100CC00001D5164300E096432E60641C0D682A4649
:100CD000E5407FF431AFBDE8F88F00000804014023
:100CE0000000111000100240000001400008014007
:100CF000000C01400010014000140140C26821EACC
:100D000002030A4043EA0241016170470AB10161EE
:100D100070470904FBE70000014880687047000045
:100D20004000002070B5040025D094F83D00002557
:100D300020B984F83C50204600F04EF9242084F875
:100D40003D002068016821F0010101602068016810
:100D500041F4004101602068016821F40041016014
:100D600000F064FB4D4A6168914201D84C4900E0B3
:100D70004C49884201D2012070BD4B492368B0FB29
:100D8000F1F15E6826F03F060E435E6063689342B1
:100D900006D94FF4967359434FF47A73B1FBF3F1CC
:100DA0002368491C1E6A26F03F06314319626168B8
:100DB000914210D84900401EB0FBF1F2521CC2F320
:100DC0000B02042A01D2042022E0B0FBF1F0401C07
:100DD000C0F30B001CE0A268F2B301EBC10303EB0C
:100DE0000116431EB3FBF6F35B1C43F480431B0563
:100DF00049D092B301EBC10202EB0111401EB0FBDE
:100E0000F1F0401CC0F30B0040F4804040F400407F
:100E10002168CA694CF6FF739A431043C861D4E94C
:100E2000071001432068026822F0C00211430160EC
:100E3000D4E9030101432068826848F2FF339A43F2
:100E400011438160D4E9050108432168CA6822F092
:100E5000FF021043C86001E00EE016E02068016860
:100E600041F0010101602564202084F83D002563E4
:100E700084F83E50002070BD01EB4106431EB3FBD9
:100E8000F6F35B1CB3E70120C2E701EB4101401E12
:100E9000B0FBF1F0401CC0F30B00B7E7A0860100E7
:100EA00080841E0000093D0040420F002DE9F84FEC
:100EB0001F4690468A460446DDF82890FFF72CFF2F
:100EC000054694F83D0020287FD11923012240498E
:100ED0002046009501F0D6FA002876D194F83C001F
:100EE000012872D0012084F83C0020680168C907FD
:100EF00003D1016841F0010101602068016821F41B
:100F000000610160212084F83D00102084F83E003B
:100F100000262664C4F824806785608D20852D48CE
:100F2000E0622B464A465146204601F031FA90B91C
:100F3000206841698069009036E02A46494620468B
:100F400001F046FB50B1206C042804D120680168F0
:100F500041F4007101600120BDE8F88F606A2168EA
:100F600000780861606A401C6062618D491E61857D
:100F7000218D491E89B2218522685369DB435B07B5
:100F80000BD451B100781061606A401C6062608DC2
:100F9000401E6085208D401E20852A4649462046F9
:100FA00001F044FA0028CED1208D0028C5D154F894
:100FB0003D0B016841F400710160202004F81E0916
:100FC000E67766770020C7E7FFE70220C4E7000066
:100FD000020010000000FFFF10B586B00021009154
:100FE00001910291039100680F4988421AD10F4C78
:100FF000A06940F00800A061A069694600F00800FF
:101000000490C02000901220019003200390084813
:10101000FFF784FDE06940F40010E061E06900F44E
:101020000010049006B010BD0054004000100240B3
:10103000000C0140024881680278114481607047C9
:1010400040000020074810B5016841F01001016020
:10105000032000F075F80F2000F006F800F024F8E7
:10106000002010BD0020024070B50D4D04464FF425
:101070007A712878B1FBF0F00A490968B1FBF0F009
:1010800000F0FFFE48B9102C07D200222146501E66
:1010900000F036F800206C6070BD012070BD0000CB
:1010A000400000204C0000200C4808B5816941F048
:1010B00001018161816901F001010091C16941F083
:1010C0008051C161C06900F08050009004484168BF
:1010D00021F0E06141F00071416008BD0010024064
:1010E00000000140002809DB00F01F0201219140AF
:1010F0004009800000F1E020C0F8001170470000B6
:10110000F0B40E4B1B680C46C3F30223C3F1070572
:10111000042D00D90425191D072901D2002300E060
:10112000DB1E012606FA05F1491E214099409E402A
:10113000761E16403143F0BC02F0CABC0CED00E054
:10114000064900F0070208684FF6FF03184040EA1E
:101150000220034A10430860704700000CED00E0D5
:101160000000FA05014901200862704700000E42A4
:1011700010B501460020234C012922D0022939D084
:1011800010291DD161682268D20119D51E48C1F30A
:101190008342C903805C0AD561681B4AC1F34041A0
:1011A000921E515C194AB2FBF1F1484301E0184923
:1011B00048436168490203D440000321B0FBF1F0C9
:1011C00010BD226AC2F30121012903D1920701D582
:1011D000C80310BD022905D1626A920702D549F6FB
:1011E000404010BD0329FCD121688903F9D54FF295
:1011F000244010BD00F02AF96168C1F38131491C17
:101200004900DBE700100240126B000800127A0070
:1012100000093D002DE9F84305460078354CC0072C
:1012200054D0E0690026C00008D4E06940F0805046
:10123000E061E069012600F0805000902E480168CE
:10124000C90512D40168804641F480710160FFF73E
:1012500063FD074605E000BFFFF75EFDC01B642885
:1012600023D8D8F80000C005F6D5206A10F44070E5
:1012700021D0A98801F4407181421CD0206A1F4905
:10128000012220F440700A6000220A602062C00738
:1012900011D0FFF741FD074641F2883808E000BF52
:1012A000FFF73AFDC11B414502D90320BDE8F88391
:1012B000206A8007F4D5206A696820F440700843EA
:1012C00020621EB1E06920F08050E061287880073C
:1012D00005D56068A96820F440400843606028781C
:1012E000C00605D56068E96820F4800008436060A6
:1012F0000020DBE700100240007000404004424242
:101300002DE9F0470F46050061D0434E306800F0EC
:101310000700B84209D2306820F007003843306037
:10132000306800F00700B84251D128683B4C810773
:1013300012D5400703D5606840F4E060606028780B
:10134000000703D5606840F4605060606068A96879
:1013500020F0F000084360602878C00728D0686853
:10136000012810D02168022810D0890700292EDA20
:10137000616821F0030101436160FFF7CDFC804605
:1013800041F288390DE021688903EFE78901EDE733
:10139000FFF7C2FCA0EB0801494502D90320BDE8D4
:1013A000F0876068696800F00C00B0EB810FEFD146
:1013B000306800F00700B8420BD9306820F0070011
:1013C00038433060306800F00700B84201D0012097
:1013D000E5E72878400705D56068E96820F4E06013
:1013E000084360602878000706D56068296920F402
:1013F000605040EAC100606000F038F86168084A57
:10140000C1F30311515CC8400649086006480068F2
:10141000FFF72AFE0020C2E7002002400010024031
:10142000226B00084C0000204400002004480549BD
:1014300000684968044AC1F30221515CC840704702
:101440004C00002000100240326B0008044805499F
:1014500000684968044AC1F3C221515CC840704722
:101460004C00002000100240326B00080E4A516808
:101470000E4801F00C03042B11D0082B0FD10C489F
:10148000C1F38343C903C05C0AD55168084AC1F35C
:101490004041921E515C054A5043B0FBF1F0704749
:1014A00004494843704700000010024000127A00CF
:1014B000006B000800093D002DE9F84F040070D0D2
:1014C0002078C04DC00749D06868C0F3810001286A
:1014D00007D06868C0F38100022809D16868C0039A
:1014E00006D52868800339D560680028E7D035E044
:1014F0006068B0F5803F0BD010B1B0F5A02F11D0CF
:10150000286820F480302860286820F4802002E0D9
:10151000286840F480302860606890B1FFF7FCFBD9
:1015200006460AE0286840F480202860F0E700BF03
:10153000FFF7F2FB801B642873D828688003F7D577
:101540000CE0FFF7E9FB064605E000BFFFF7E4FB10
:10155000801B6428F0D828688003F7D420789A4E3E
:1015600080074FF001094FF0000839D5686810F086
:101570000C0F07D06868C0F38100022809D16868A1
:10158000C00306D42868800714D52069012808D133
:1015900010E02069B0B1C6F80090FFF7BDFB074628
:1015A00005E00AE1FFF7B8FBC01B0228C4D8286891
:1015B0008007F7D52868616920F0F80040EAC1008B
:1015C00028600DE0C6F80080FFF7A6FB074604E0A0
:1015D000FFF7A2FBC01B022823D828688007F7D496
:1015E000207800072CD57948A169D9B1C0F80090BE
:1015F000FFF792FB074604E0FFF78EFBC01B0228B3
:101600000FD8686A8007F7D571484FF4FA5100681F
:10161000B0FBF1F0009000BF0098411E0091FAD29B
:101620000EE080E0C0F80080FFF776FB074604E09C
:10163000FFF772FBC01B022875D8686A8007F7D4D1
:101640002078400760D5E8690027C00008D4E86921
:1016500040F08050E861E869012700F08050009078
:101660005C480168C90513D40168834641F4807160
:101670000160FFF751FB824606E000BFFFF74CFB1D
:10168000A0EB0A0064284ED8DBF80000C005F5D5B1
:10169000E06801280AD008B1052813D0286A20F094
:1016A00001002862286A20F0040002E0286A40F065
:1016B00001002862E06841F2883B98B1FFF72CFBFB
:1016C00082460BE0286A40F004002862EEE700BF83
:1016D000FFF722FBA0EB0A0159455AD8286A800778
:1016E000F6D50CE0FFF718FB824605E0FFF714FB88
:1016F000A0EB0A0159454CD8286A8007F6D41FB1DF
:10170000E86920F08050E861E06988B36968C1F356
:101710008101022944D00228C6F8608004D0FFF776
:10172000FBFA044638E034E0FFF7F6FA074604E037
:10173000FFF7F2FAC01B02282BD828688001F7D4E3
:10174000206AB0F5803F05D16868A16820F40030B8
:1017500008436860D4E908010843696821F47411FA
:1017600008436860C6F86090FFF7D6FA044606E0C2
:1017700025E000BFFFF7D0FA001B022809D828682F
:101780008001F7D51BE000BFFFF7C6FA001B022857
:1017900002D90320BDE8F88F28688001F4D40EE058
:1017A0000128F7D06868226A00F48031914204D1A0
:1017B000616A00F47010884201D00120EAE700203D
:1017C000E8E700000010024000004242800442426C
:1017D0004C00002000700040F8B505004FF00000FC
:1017E00016460C46009006D02CB1002269462846C9
:1017F00000F019F808B10120F8BD287B2070E87BC3
:10180000E070697B6170A97BA17056B101F099F914
:10181000E070607801F095F96070A07801F091F9BE
:10182000A0700020F8BD2DE9F04791460C465FEA14
:1018300000084AD084B3D8F800004068400744D478
:10184000404601F01DFA4FF461620546B0FBF2F12B
:10185000B0FBF2F302FB13503C23B0FBF3F0B5FBFB
:10186000F2F6607002FB1650B0FBF3F203FB1200BD
:10187000A070182931D31820B1FBF0F7B1FBF0F2BA
:1018800000FB12102070404601F0F3F9411C04D017
:10189000A84202D9461B02E017E04FF0FF36A7EB43
:1018A000071000EB4000C0EB001005EBC015294607
:1018B000404601F034FA40B9701C01D0711900E0C3
:1018C0003146404601F017FA10B10120BDE8F0871B
:1018D0003946404601F040F900E02170B9F1000FAF
:1018E0000BD0207801F02DF92070607801F029F9F3
:1018F0006070A07801F025F9A0700020E6E70000F4
:1019000070B5040003D0607C002610B105E0012012
:1019100070BD2674204600F03DF802206074204619
:1019200000F00AF9042550BB204601F06CF930BBE9
:101930002068416821F007014160A06820B1144887
:10194000016821F0010101601148001F0168A268CF
:1019500021F46071114301606068411C04D10120D1
:10196000FFF706FC58B1401E2268C0F303419160A6
:10197000216880B2C860204601F060F908B1657442
:10198000C5E7E67301206073A0736074002070BD2A
:10199000306C004008B50068084988420DD1FFF757
:1019A000E1FB0748C16941F00061C161C0690549B7
:1019B00000F0006000900120086008BD0028004091
:1019C000001002403C0442422DE9F0410D46040063
:1019D0003BD0C5B3207C01283AD04FF0010884F8F1
:1019E000108002206074E87872B301F0A1F8E0730F
:1019F000687801F09DF86073A87801F099F8A073F9
:101A0000C2B2617BE07B01F04BF920732870204665
:101A100001F036F94FF46161B0FBF1F100251829AE
:101A20002DD91822B1FBF2F1A1EB011101EB41011B
:101A3000C1EB011100EBC1163146204601F06FF9F0
:101A40000427C8B90BE000E004E00120BDE8F08104
:101A50000220FBE7E07368786073A878CFE7204640
:101A600001F007F9411C0AD0B04208D206490144EE
:101A7000204601F040F910B167742574E5E784F859
:101A8000118025740020E1E7805101002DE9F0412B
:101A90000D46040024D01DB3207C012823D04FF034
:101AA000010884F81080022060742878EAB101F0FF
:101AB0003FF84FF4616100FB01F6687801F038F8F7
:101AC000C0EB001006EB8006A87801F031F835185D
:101AD0002946204601F023F90026042710BB0FE019
:101AE0000120BDE8F0810220FBE74FF4616148432B
:101AF0006978C1EB011100EB8100A9784518E7E78F
:101B00002068416821F005014160204601F0B1F8EC
:101B1000411C0AD0A84208D206490144204601F0DF
:101B2000EAF810B167742674DAE784F81180267435
:101B30000020D6E78051010070B504000AD020686B
:101B4000416821F008014160FFF7E6F805464FF4CF
:101B50007A7608E0012070BDFFF7DEF8401BB04246
:101B600001D9032070BD206840680007F4D500202B
:101B700070BD70B5040009D0606A002540B12561D0
:101B80006561A56294F8510040B10CE0012070BD80
:101B90006068B0F5827FF4D0E561F2E784F85050D8
:101BA000204600F03FF8022084F8510020680168C8
:101BB00021F040010160A088218900F4827001F4C5
:101BC00004410843A18901F400610843217C01F02C
:101BD00002010843217D01F001010843218B01F43A
:101BE00000710843217F01F03801084394F8201068
:101BF00001F080010843218D01F400510843216860
:101C00000860A069042101EA10402168486020684A
:101C1000C16921F40061C1616565012084F851004A
:101C2000002070BD30B585B000240094019402946A
:101C3000039400681449884223D11448816941F40F
:101C400080518161816901F480510491816941F081
:101C50000401816180690E4D00F004000490A02011
:101C60000090022001900320039069462846FEF769
:101C700055FF4020CDE90004694628460294FEF74E
:101C80004DFF05B030BD00000030014000100240A3
:101C9000000801402DE9FF4F81B0044690F8500044
:101CA00000260E9F1D4693464FF0010901280FD0D4
:101CB0004FF0010A84F850A0FFF72EF8804694F800
:101CC0005100616801280DD0B1F5827F08D103E091
:101CD000022005B0BDE8F08FA16809B9042801D041
:101CE0000226C9E00298002865D0BBF1000FFBD0A6
:101CF000002DF9D094F85100042802D0052084F872
:101D0000510000206065C4F838B0E587A5870299C6
:101D10002163E586A5862064606420680168490621
:101D200003D4016841F040010160E068B0F5006F44
:101D3000606803D0F0B3012D47D081E008B1012DD8
:101D40003CD1206B21680088C860206B801C206318
:101D5000E08E401EE08631E02068816889070FD55B
:101D6000E18E69B1B9F1010F0AD1216B0988C16017
:101D7000206B801C2063E08E401EE0864FF000093F
:101D800020688168C9070CD0E18F51B1C068A16B90
:101D90000880A06B801CA063E08F401EE0874FF09E
:101DA0000109FEF7B9FFA0EB0800B84206D3781C82
:101DB00004D001E009E05BE003265BE0E08E002850
:101DC000CAD1E08F0028C7D140E0206B216800789D
:101DD0000873206B401C2063E08E401EE0862FE0DD
:101DE0002068816889070FD5E18E69B1B9F1010FCB
:101DF0000AD1216B09780173206B401C2063E08EAF
:101E0000401EE0864FF0000920688168C9070CD0A9
:101E1000E18F51B1C068A16B0870A06B401CA0633A
:101E2000E08F401EE0874FF00109FEF775FFA0EB41
:101E30000800B84202D3781C02D0BAE7002FB8D00D
:101E4000E08E0028CCD1E08F0028C9D14246394627
:101E5000204601F0AFFA18B10126202060650BE0A2
:101E6000A06818B92068C16880680090606D08B1EA
:101E7000012601E084F851A0002084F8500030468B
:101E800027E710B5401EB0F1807F01D3012010BDBF
:101E90004FF0E02460610F21601701F019FE00206F
:101EA000A06107202061002010BD7047704700002E
:101EB000F8B5016804460868CA684B6910F00F0F4E
:101EC0004FF0000559D003F0010602F49077374334
:101ED00065D0C10705D0D10503D5616C41F0010182
:101EE0006164410705D5D90703D0616C41F0020157
:101EF0006164810705D5D90703D0616C41F0040105
:101F00006164010707D502F02001314303D0616C01
:101F100041F008016164616C00293AD0800604D563
:101F2000900602D5204601F039FB20684069616CBB
:101F3000C0F38010090700D460B3204601F007FB0E
:101F400020684069400621D52068143050E8001F01
:101F500021F0400140E80012002AF5D1E06BA8B161
:101F60006D494163E06BFEF78BFC002811D0E06BFC
:101F7000416B01B0BDE8F040084783060FD59306DA
:101F80000DD52046BDE8F84001F008BB2046FFF71C
:101F90008DFFF8BD2046FFF789FF6564F8BD266B0D
:101FA0002023012E7CD1C6067AD5D60678D50868BE
:101FB0004868009048694FF00206400640D5E16B42
:101FC000086840680004000CE8D0A28D8242E5D980
:101FD000E085886920282DD020680C3050E8001F4B
:101FE00021F4807140E80012002AF5D120681430F5
:101FF00050E8001F21F0010140E80012002AF5D14D
:102000002068143050E8001F21F0400140E8001221
:10201000002AF5D184F84230256320680C3050E85E
:10202000001F21F0100140E80012002AF5D1E06BFA
:10203000FEF702FC6663A08DE18D401A81B22AE0B2
:10204000A08DE18D401A81B2E08D0028A6D0002934
:10205000A4D022680C3252E8000F20F4907042E8BD
:102060000007002FF5D12068143050E8002F22F02F
:10207000010240E80027002FF5D184F842302563A3
:1020800020680C3050E8002F22F0100240E80023B6
:10209000002BF5D166632046FFF707FFF8BDFFE789
:1020A00005062BD5150629D594F841002128F5D130
:1020B000A068B0F5805F01D12069B0B1206A411CF1
:1020C0002162216800784860E08C401E0004000C0A
:1020D000E084E3D12068C16821F08001C1602068FC
:1020E000C16841F04001C160D8E7206A0088C0F3B0
:1020F00008004860206A801C2062E5E74006CDD5D4
:102100005006CBD5CA68204622F04002CA6084F847
:10211000413000F024F9C1E73F35000870B50400F4
:1021200004D094F84100002510B106E0012070BDF4
:1021300084F84050204600F023F8242084F8410021
:102140002068C16821F40051C160204601F088FA7E
:102150002068016921F4904101612068416921F002
:102160002A0141612068C16841F40051C160656481
:10217000202084F8410084F842006563002070BD8F
:102180002DE9F04186B000240646009401940294A3
:10219000039400682E49884257D12E48816941F442
:1021A00080418161816901F480410491816941F03C
:1021B000040181618069284D00F0040004904FF40F
:1021C0000070009002200190032003906946284689
:1021D000FEF7A4FC2815CDE90004694628460294C0
:1021E000FEF79CFC1E4D1D484FF08008C5E9000419
:1021F000C5E902482C6187146C61C5E90647284689
:10220000FEF734FC08B1FEF762FAF5636E62144D16
:1022100012484435143801C51020A5E811011048B2
:1022200045F8104944306C61C5E90647FEF71EFCCD
:1022300008B1FEF74CFAB5630022012125206E6239
:10224000FEF75EFF2520FEF74DFF06B0BDE8F081EA
:1022500000380140001002400008014058000240D0
:10226000E002002090F84230202B01D0022070477D
:1022700021B11AB10023036301F04EBA0120704767
:1022800000680E49884218D10D4801780A290FD0FC
:10229000B0F80031421C9954B0F8001111F101015D
:1022A000A0F800110649012201F58270FFF7DABF9C
:1022B000012180F802110021F2E770470038014047
:1022C000940100202DE9F843044690F841001F4690
:1022D00016460D46202802D00220BDE8F8837DB1C5
:1022E00076B100206064212084F84100FEF714FDDF
:1022F000A6848046E684A068B0F5805F02D003E043
:102300000120EAE7206910B12E4600250EE00026E4
:102310000CE08021204601F01AFAA0B9AEB116F8FF
:10232000010B21684860E08C401EE084E08C43464D
:102330004FF0000200970028EBD14FF040012046FB
:1023400001F005FA30B10320C7E735F8020BC0F3FE
:102350000800E6E7202084F841000020BDE7704730
:10236000FEE701684A69D24352050FD46FF48062D8
:102370004A61002140F8301F2022427381730269B4
:1023800042F004020261017301207047002070478F
:10239000F8B50446C06A1E460D461746082807D001
:1023A000012805D010F5803F02D0206B122804D1FF
:1023B0002068016841F480710160134600224FF0EB
:1023C00001112046009600F05DF840B120680068D9
:1023D000C00502D54FF4007020640320F8BD2069C9
:1023E000B0F5804F0ED00620216800EAD51040F0ED
:1023F000F000086133463A460B49204600F08AF85F
:1024000078B902E005F0FE0000E0E8B2216808615A
:10241000054933463A46891F204600F07BF80028DC
:10242000DCD00120F8BD00000800010070B51646A0
:102430000D4604461EE02046FFF793FF08B1012039
:1024400070BD681C16D0FEF767FC801BA84200D840
:1024500085B920684069C04340070BD5002044F887
:10246000300F20216173A073216941F020012161A7
:102470002073E4E720684069C0434007DBD40020B4
:1024800070BD00002DE9F047984617460D460446FA
:10249000C1F30746DDF820902AE000BFB8F1FF3F06
:1024A00026D0FEF739FCA0EB0901414502D8B8F16E
:1024B000000F1DD12068012E16D0806925EA00008A
:1024C0000004000C12D00020B84211D1002044F8C2
:1024D000300F20216173A073216941F02001216137
:1024E00020730120BDE8F0874069E7E70120EBE7B2
:1024F0002068012E0AD0806925EA00000004000C43
:1025000006D00020B842C9D00020EBE74069F3E7CD
:102510000120F7E72DE9F047984616460D46044698
:102520004FF000094FF0200AC1F3074723E020686D
:102530004069C043400515D42068016841F400712A
:10254000016021686FF480604861C4F8309084F8BD
:102550003DA084F83E90216C41F00401216484F890
:102560003C9021E0701C06D0FEF7D6FBA0EB0800E3
:10257000B04203D816B1012F1FD021E02068012FEF
:1025800015D0806925EA00000004000C18D000BFB7
:1025900044F8309F84F80DA084F80E90216941F032
:1025A0002001216184F80C900120BDE8F08740698A
:1025B00025EA00000004000CEAD12068406901E02F
:1025C0002068806925EA00000004000CAFD1ECE728
:1025D00070B516460D4604461EE02046FFF7C1FEC4
:1025E00008B1012070BD681C16D0FEF795FB801B5A
:1025F000A84200D885B920684069C04300060BD5C1
:10260000002044F8300F20216173A073216941F04C
:10261000200121612073E4E720684069C04300067F
:10262000DBD4002070BD0000174808B5416941F0B7
:10263000010141614069154900F001000090144812
:1026400001604FF480414160402181608021C16080
:102650000021016141618161C161FEF707FA08B1A2
:10266000FEF735F8002201210E20FEF749FD0E206D
:10267000FEF738FD002201210F20FEF741FDBDE8E5
:1026800008400F20FEF72EBD001002400800024057
:102690008400002010B504490448FEF71AF80249E6
:1026A000491E087010BD0000650000205000002089
:1026B0002DE9F04186B000252B4800950195029543
:1026C0000395816941F010018161816901F0100178
:1026D0000491816941F020018161816901F020014B
:1026E0000491816941F004018161816901F0040173
:1026F0000491816941F0080181618069012200F043
:1027000008001A4F5403049021463846FEF7FEFA9B
:10271000DFF85C80002210214046FEF7F7FA0094B3
:1027200001240226CDE90246694638460194FEF7A7
:10273000F5F910208DE8710069464046FEF7EEF984
:10274000200200900B48CDE9010469464046FEF79F
:10275000E5F9002202211720FEF7D2FC1720FEF730
:10276000C1FC06B0BDE8F08100100240001001403D
:1027700000080140000021100D4810B50B49016010
:102780000C49416000214FF480428160C0E903128E
:1027900041618161C1610162FEF7C4FA002803D082
:1027A000BDE81040FDF793BF10BD0000005400408D
:1027B000C8000020A08601001CB5002001900090F8
:1027C0001A48194901604FF0FF3141604FF48071A0
:1027D0008160FFF795F808B1FDF779FF17208DF8B4
:1027E00004003B208DF8050037208DF806000022FC
:1027F00001A90E48FFF74AF908B1FDF768FF02206A
:102800008DF8000007218DF801108DF802001820C6
:102810008DF80300002269460448FFF7D5F8002828
:1028200001D0FDF754FF1CBD002800402801002006
:10283000104810B50E4901604FF4827141600021CB
:1028400002228160C0E90312012242615202C0E902
:1028500006210162416281620A21C162FFF789F9A2
:10286000002803D0BDE81040FDF731BF10BD0000C7
:10287000003001403C01002010B50E4C0C480C21EA
:1028800020604FF4E13060600020A060E060C4E9A7
:102890000401A061E0612046FFF740FC08B1FDF7AC
:1028A00016FF2068C16841F02001C16010BD000022
:1028B0000038014098020020FEE700001CB500220D
:1028C00001A91248FEF7AFFF002269460F48FEF744
:1028D00083FF0E489DF803100C3801809DF801100D
:1028E00041809DF8021081809DF80410C1809DF800
:1028F000051001819DF8061041819DF800000449F2
:1029000051F82000091F08601CBD000028010020AC
:1029100020000020FEE770B5002404F1B000C0B232
:10292000002100F0B9FD0021084600F0B5FD0021AE
:10293000102000F0B1FD00254021002000F0ACFD8A
:102940006D1CEDB2802DF7D3641CE4B2082CE4D3E7
:1029500070BD10B56420FEF7B7F80021AE2000F07E
:102960009BFD0021202000F097FD0021102000F0A9
:1029700093FD0021084600F08FFD0021102000F09B
:102980008BFD0021B02000F087FD0021C82000F061
:1029900083FD0021402000F07FFD0021812000F018
:1029A0007BFD0021FF2000F077FD0021A12000F039
:1029B00073FD0021C82000F06FFD0021A62000F06B
:1029C0006BFD0021A82000F067FD00213F2000F0F2
:1029D00063FD0021A42000F05FFD0021D32000F062
:1029E0005BFD0021084600F057FD0021D52000F0D6
:1029F00053FD0021F02000F04FFD0021D92000F010
:102A00004BFD0021222000F047FD0021DA2000F0DC
:102A100043FD0021122000F03FFD0021DB2000F0EB
:102A20003BFD0021202000F037FD00218D2000F02B
:102A300033FD0021142000F02FFD0021BDE81040DF
:102A4000AF2000F029BD10B50446B031C8B2002156
:102A500000F022FD102040EA1410002100F01CFDBF
:102A600004F00F00BDE81040002100F015BD00008B
:102A70002DE9F041203A00240D468046D6B27F2849
:102A800003D900208D1C8046EDB2102B294610D0B2
:102A9000FFF7D9FF164906EB460001EB4005402140
:102AA000285D00F0F9FC641CE4B2062CF7D3BDE805
:102AB000F081FFF7C8FF0F4F04EB06104021385C90
:102AC00000F0EAFC641CE4B2082CF5D36D1CE9B2FA
:102AD0004046FFF7B8FF002404EB061038444021BD
:102AE000007A00F0D9FC641CE4B2082CF4D3DEE7D1
:102AF000E66200080E6500082DE9F0419846174689
:102B00000E46044600250DE0434631462046FFF7B9
:102B1000AFFF0834E4B2782C02D90024B61CF6B218
:102B20006D1CEDB27A5D002AEED1BDE8F0817047F0
:102B3000010901EB810100F00F0000EB4100C0B280
:102B40007047002102E00A38C0B2491C0A28FAD2B4
:102B5000090740EA116070472DE9F041044600255D
:102B6000C07B627BA37B42E0012A16D0032A14D0EB
:102B7000052A12D0072A10D0082A0ED00A2A0CD013
:102B80000C2A0AD0042A10D0062A0ED0092A0CD00A
:102B90000B2A0AD0022A0DD028E01F2B0CD30C2AB6
:102BA00005D101221346401C20E01E2B04D3012333
:102BB000521C1BE01C2B02D203F1010316E011D1C1
:102BC00083B29E0710D16426B3FBF6F706FB1736D7
:102BD00036B94FF4C876B3FBF6F706FB17331BB9CB
:102BE0001D2303E01D2B01D1032201236D1C8D4207
:102BF000BAD3D1B2E0736173DAB2A27300F050F8C5
:102C00002073BDE8F08170B50446FEF785F80546EF
:102C10004FF47A7606E0FEF77FF8401BB04201D908
:102C2000032070BD206840688006F4D520684168A4
:102C300041F010014160002070BD000070B50446F5
:102C40000068416821F010014160FEF765F8054613
:102C50004FF47A7607E000BFFEF75EF8401BB04203
:102C600001D9032070BD206840688006F4D500209B
:102C700070BD0168086A496A89B241EA004070473C
:102C8000006881698AB2C1698BB2816989B28A425E
:102C900003D0C06961F31F40704743EA02407047A8
:102CA000F0B56424C1EBC1030927A500072603EB97
:102CB00001130329B3FBF7F100F5FA601144014455
:102CC0000AD2401EB0FBF4F201EB9001B0FBF5F02C
:102CD000891A0844001D08E0B0FBF4F201EB9001F2
:102CE000B0FBF5F0891A0844801CB0FBF6F106FB36
:102CF0001100C0B2F0BD70B50D4606460024FFF7C6
:102D000082FF48B93168280C08623168A8B248626D
:102D10003046FFF793FF00B10124204670BD70B527
:102D20000D4606460024FFF76EFF48B93168280CAF
:102D300088613168A8B2C8613046FFF77FFF00B1F3
:102D40000124204670BD000070B5ADF58C6D1446B1
:102D50000D46064600F044F9012819D02DA000BF09
:102D600000F092FE012230A18BA802F077FA0D2824
:102D700010D000282AD02DA000F086FE0122214686
:102D8000684602F099FA0446E043400720D022E06A
:102D90002AA0E5E72EA000F077FE0022114626A02B
:102DA00001F0C0FF08B12FA0E6E732A000F06CFEF2
:102DB00001221DA1002002F051FA01221AA18BA8C4
:102DC00002F04CFA0028D9D12EA0D5E738A0D3E7DD
:102DD0003BA000F059FE0CB13FA00BE042A000F078
:102DE00053FE0DF25C432A463146684602F03AFB38
:102DF00068B144A000F048FE684601F0D1FD012210
:102E000009A1002002F02AFA0DF58C6D70BD42A0D8
:102E1000F0E700005344BFA8B3F5CABCBBAFB3C9C9
:102E2000B9A6A3A1200D0A00303A0000B9D2D4D827
:102E3000CAA7B0DC21200D0A000000005344BFA83F
:102E4000B3F5CABCBBAFCAA7B0DC21200D0A000095
:102E5000C3BBD3D0CEC4BCFECFB5CDB321200D0AA9
:102E600000000000B8F1CABDBBAFCAA7B0DC21208A
:102E70000D0A0000B8F1CABDBBAFB3C9B9A6212085
:102E80000D0A00005344BFA8D2D1BEADB3C9B9A644
:102E9000B9D2D4D8A3ACBFC9D2D4BDF8BDF8D0D074
:102EA000CEC4BCFED0B4C8EBB2E2CAD4210D0A0035
:102EB000B9D2D4D8B3C9B9A621200D0A00000000A8
:102EC000BFA8B4E6B4A2D2D1C2FAA3ACD0B4C8EBC6
:102ED000CAA7B0DC210D0A00B4F2BFAACEC4BCFE62
:102EE000CAA7B0DC210D0A00B4F2BFAAB3C9B9A6C3
:102EF0002FB4B4BDA8CEC4BCFEB3C9B9A6A3A1204B
:102F00000D0A0000CEC4BCFEB6C1C8A1CAA7B0DC81
:102F1000A3A1200D0A000000CEC4BCFEB6C1C8A10A
:102F2000B3C9B9A6A3A1200D0A000000044B20B12B
:102F3000002210211846FDF7E9BE0122F9E7000042
:102F40000008014070B5054601220021092000F06B
:102F5000F9F910F0FF0404D11021284600F066F9B9
:102F600004460020FFF7E2FF0CB1012070BD0020F5
:102F700070BD1FB56846FFF7E5FF10B1002004B033
:102F800010BD9DF800100120B0EB911F09D19DF8F4
:102F900008209DF8091000EB022008440004800975
:102FA000EDE79DF805009DF80A1000F00F0000EB1A
:102FB000D1109DF809109DF8072001F0030100EBE6
:102FC00041019DF80800800900EB82009DF8062071
:102FD00002F0030200EB8220401CC91F8840CEE7AC
:102FE0002DE9F843DFF874913820C9F81C0000205F
:102FF000FFF79CFF0024FF2003F0BCF8641CA4B280
:103000000A2CF8D3142400219522084600F09AF9DE
:10301000C5B2012D02D0641EA4B2F4D2504E0027D6
:10302000012D77706FD187224FF4D571082000F001
:1030300089F94FF6FE78012823D00122002137209C
:1030400000F080F901220021292000F07BF9C0B2B4
:10305000012859D80220707042A000F015FD4446A6
:1030600001220021372000F06DF9012200212920E2
:1030700000F068F910F0FF0554D0641EA4B2EFD23E
:1030800050E000246F46FF2003F074F83855641CAC
:10309000A4B2042CF7D39DF8020001284AD19DF870
:1030A0000300AA2846D144464FF08048012200215F
:1030B000372000F047F901224146292000F042F96B
:1030C00010F0FF0502D0641EA4B2EFD2DCB10122E1
:1030D00000213A2000F036F9A8B90024FF2003F0BF
:1030E00049F83855641CA4B2042CF7D39DF80000AD
:1030F000400603D50620707020A002E00420707006
:1031000024A000F0C1FC15E00120707044460122AB
:103110000021104600F016F910F0FF0502D0641EE1
:10312000A4B2F4D22CB101225102102000F00AF90D
:1031300000B177700120FFF7F9FE0020C9F81C00EC
:103140001AA000F0A1FC707810B10020BDE8F8834F
:103150000DB12846FAE7AA20F8E700003C0100205C
:103160000000002054686973205344206361726436
:103170002069732056312E780D0A00005468697357
:1031800020534420636172642069732056322E7884
:103190000D0A00005468697320534420636172640F
:1031A0002069732056322E300D0A00005350495FBB
:1031B000496E697465640D0A000000002DE9F04154
:1031C0000646194815464078062800D049024FF4B3
:1031D0000077012D4FF001021AD0122000F0B2F852
:1031E0003946304600F022F86D1E044606F500769A
:1031F00015F0FF0501D0002CF2D0012200210C2097
:1032000000F0A0F80020FFF791FE2046BDE8F08115
:10321000112000F097F810F0FF04F3D13946304642
:1032200000F004F80446EDE70000002070B5054604
:103230000C460120FFF77AFEFF2002F09BFF0646B6
:103240006420FDF741FCFE2EF6D103E002F092FF70
:1032500005F8010B641EA4B24FF0FF00F6D202F095
:1032600089FFFF2002F086FF002070BD70B50C467C
:103270000546FF2002F07EFFFF28FAD1204602F02B
:1032800079FFFD2C18D000244FF40076285D02F061
:1032900071FF641CA4B2B442F8D3FF2002F06AFFAD
:1032A000FF2002F067FFFF2002F064FF00F01F0024
:1032B000052801D0022070BD002070BD70B5064603
:1032C0001F4815460C464078062800D04C02012DB8
:1032D00014D0012809D001220021372000F032F853
:1032E00001222946172000F02DF80122214619203D
:1032F00000F028F810F0FF040BD01BE0012221465B
:10330000182000F01FF810F0FF0413D1FE21304602
:103310000DE0FC213046FFF7A9FF6D1E06F5007693
:1033200015F0FF0501D00028F3D0FD210020FFF7A4
:103330009DFF04460020FFF7F9FD204670BD000008
:10334000000000202DE9F041054617460C460020FC
:10335000FFF7ECFD1420FDF7B7FB0120FFF7E6FDBA
:10336000134E307802F006FFFF28FAD145F04000F6
:1033700002F000FF200E02F0FDFEC4F3074002F051
:10338000F9FEC4F3072002F0F5FEE0B202F0F2FE0F
:10339000384602F0EFFE0C2D02D1307802F0EAFE42
:1033A000FF2002F0E7FE0106FAD4BDE8F08100003C
:1033B0000000002038B50B46009204460022802110
:1033C00000F008F8002804D0606D40F0200060652F
:1033D000032038BD2DE9F8431E4691468846044631
:1033E000089DFDF799FC401B351AFDF795FC074633
:1033F00025480068C0F3CB30684338E0701C37D0F4
:10340000FDF78AFCC01BA84203D215B1009860B337
:103410002CE02068416821F0E00141606068B0F56F
:10342000827F0BD1A068B0F5004F02D0B0F5806F5D
:1034300004D12068016821F040010160A06AB0F564
:10344000005F09D12068016821F400510160206803
:10345000016841F400510160012084F8510000200E
:1034600084F850000320BDE8F8830025401E00903A
:103470002068816838EA010004D000214945BDD1A7
:103480000020F0E70121F9E74C0000200149C86164
:10349000704700003C0100201CB502238DF8041089
:1034A0008DF805004FF6FF70009001AA78210248C0
:1034B000FDF7FCFC1CBD0000C80000207047FDF7B4
:1034C000B9BD70B594B028216846FCF744FE1421BC
:1034D0000AA8FCF740FE002401250F940A20009062
:1034E0001020CDE9045012944FF460101094119400
:1034F0000226CDE90840CDE906566846FDF7DCFF17
:1035000008B172B6FEE70F20CDE90A068020CDE9AA
:103510000C0402210AA80E94FDF7F2FE08B172B65F
:10352000FEE74FF40070CDE90F500FA8FDF772FED3
:10353000002801D072B6FEE714B070BD704710B518
:10354000406A0021C185C184FEF7B0FC10BD01684E
:103550000C3151E8002F22F4907241E80023002B37
:10356000F5D10168143151E8002F22F0010241E841
:103570000023002BF5D1016B012909D101680C3121
:1035800051E8002F22F0100241E80023002BF5D172
:10359000202180F8421000210163704708B590F89F
:1035A0004210222901D0022008BD82684FF48053C6
:1035B0009A4201D1016921B1816A9A421BD04AB174
:1035C0000AE00268816A5268C2F308020A80816ACE
:1035D000891C08E0026972B10268526802F07F0239
:1035E0000A70816A491C8162C18D491E0904090C57
:1035F000C18503D01BE002685268F1E70168CA6820
:1036000022F02002CA600168CA6822F48072CA608F
:1036100001684A6922F001024A61202180F84210C3
:1036200000214163026B012A03D0FEF729FE00202E
:1036300008BD016301680C3151E8002F22F010022F
:1036400041E80023002BF5D101680A68D20602D5B3
:103650000A6849680091818DFEF727FCE7E70000C2
:1036600070B5044600680169E26821F440511143D5
:1036700001612169A0680843616908432168CA683B
:1036800041F20C639A430243CA6020684169A2690F
:1036900021F44071114341611E492068884202D1E2
:1036A000FDF7D4FE01E0FDF7C1FE00EBC00101EB28
:1036B0000012606864218000B2FBF0F3B3FBF1F309
:1036C0006FF018067343B2FBF0F5B2FBF0F605EBB2
:1036D0008305322303EB0515B5FBF1F5B6FBF1F6D7
:1036E00005F0F00505EB0615B2FBF0F6B2FBF0F0C5
:1036F000B0FBF1F06FF01802504306EB800003EBD3
:103700000010B0FBF1F0216800F00F002844886041
:1037100070BD00000038014081628285C2850021B1
:103720004164222180F84210016921B10168CA6810
:1037300042F48072CA6001684A6942F001024A613B
:103740000068C16841F02001C160002070472DE988
:10375000F041984617460E460446069D27E0681C31
:1037600025D02DB1FDF7D8FAA0EB0800A8421ED94C
:1037700020680C3050E8001F21F4D07140E800129E
:10378000002AF5D12068143050E8001F21F0010113
:1037900040E80012002AF5D1202084F8410084F886
:1037A0004200002084F840000320BDE8F08120683A
:1037B000006836EA000004D00020B842CFD00020D4
:1037C000F3E70120F9E700000148FEF771BB0000B4
:1037D0009802002010B5FFF703FC002809D038201C
:1037E000FFF754FEFF2002F0C5FC0020FFF74EFE5D
:1037F000012010BD10B5144641B101291DD0022988
:1038000014D0032915D00424204610BD0120FFF751
:103810008DFB1420FDF758F9FF2002F0ABFCFF28C8
:10382000F7D100242046FFF781FBEDE74FF400704D
:1038300000E0082010800024E6E7FFF79AFB2060F4
:10384000F9E770B514460D460BB148B901E0042004
:1038500070BDDAB221462846FFF7B0FC0028F7D049
:10386000012070BD002804D0012803D0022801D017
:10387000012070470020704770B514460D460BB10B
:1038800048B901E0042070BDDAB221462846FFF7AE
:1038900015FD0028F7D0012070BDFEE770B5ADF52D
:1038A0008C6D14460D460646FFF79AFB012819D089
:1038B0002FA000BF00F0E8F8012232A18BA801F090
:1038C000CDFC0D2810D000282AD02FA000F0DCF865
:1038D00012222146684601F0EFFC0446E04340070F
:1038E00020D022E02CA0E5E730A000F0CDF80022A7
:1038F000114628A001F016FA08B131A0E6E734A07D
:1039000000F0C2F801221FA1002001F0A7FC012253
:103910001CA18BA801F0A2FC0028D9D130A0D5E7CA
:103920003AA0D3E73DA000F0AFF86846839901F0D4
:10393000B7F80CB13FA00BE042A000F0A5F80DF2E3
:103940005C432A463146684601F0AEFE68B144A0A9
:1039500000F09AF8684601F023F8012209A100203E
:1039600001F07CFC0DF58C6D70BD42A0F0E700000D
:103970005344BFA8B3F5CABCBBAFB3C9B9A6A3A192
:10398000200D0A00303A0000B9D2D4D8CAA7B0DC62
:1039900021200D0A000000005344BFA8B3F5CABCA3
:1039A000BBAFCAA7B0DC21200D0A0000C3BBD3D037
:1039B000CEC4BCFECFB5CDB321200D0A000000005F
:1039C000B8F1CABDBBAFCAA7B0DC21200D0A000008
:1039D000B8F1CABDBBAFB3C9B9A621200D0A00001A
:1039E0005344BFA8D2D1BEADB3C9B9A6B9D2D4D8B9
:1039F000A3ACBFC9D2D4BDF8BDF8D0D0CEC4BCFEF4
:103A0000D0B4C8EBB2E2CAD4210D0A00B9D2D4D8DE
:103A1000B3C9B9A621200D0A00000000BFA8B4E672
:103A2000B4A2D2D1C2FAA3ACD0B4C8EBCAA7B0DC5E
:103A3000210D0A00B4F2BFAACEC4BCFECAA7B0DCF6
:103A4000210D0A00B4F2BFAAB3C9B9A62FB4B4BD00
:103A5000A8CEC4BCFEB3C9B9A6A3A1200D0A00001C
:103A6000CEC4BCFED0B4C8EBCAA7B0DCA3A1200D65
:103A70000A000000CEC4BCFED0B4C8EBB3C9B9A6DE
:103A8000A3A1200D0A0000000FB4054B10B503A937
:103A9000044A029800F0FEF810BC5DF814FB000028
:103AA000115C0008740000200FB4084B10B504A985
:103AB00002AA039800F0EEF8044602A9002000F0E4
:103AC0006CFC204610BC5DF814FB00009B43000812
:103AD0000907090E002804DB00F1E02080F800143B
:103AE000704700F00F0000F1E02080F8141D7047CF
:103AF00002E008C8121F08C1002AFAD170477047B7
:103B0000002001E001C1121F002AFBD17047000014
:103B10002DE9FF5F82B00021DDE90430020DDDF800
:103B200040B0034318D044F61050A2F2FF32424393
:103B30001514119801281FD0A5EB0B00401C5FEA5B
:103B4000000A4FF000064E4FDFF83891B04650465D
:103B500015D5CAF1000413E0119801244AA30128E5
:103B600001D16FEA0B010298119AC0E90031C0E956
:103B7000024206B0BDE8F09FCBF10000DFE704464B
:103B80000021404A491842EB0450CDE9001012E0F0
:103B9000E00707D032463B4640464946FCF7E2FB89
:103BA0008046894632463B4610461946FCF7DAFB0A
:103BB00006460F466410002CEAD1DDE90401DDE978
:103BC0000023BAF1000F06DAFCF7CCFB42464B4665
:103BD000FCF7C8FB05E0FCF737FC42464B46FCF718
:103BE00033FC04460E460022284BFCF7B5FC03D8F4
:103BF0004FF0FF30014607E00022254B20463146BA
:103C0000FCF709FBFCF78FFC102409E0002C0ADB11
:103C10000A220023FCF7CEFA039B30321A55641EA9
:103C200050EA0102F2D1641C039AC4F11103144456
:103C3000119A012A03D0012208430DD10AE008435A
:103C400004D000204FF0110B119072E7A3EB0B058D
:103C50006D1E0DE05B4504DD4FF0000205F101052E
:103C600004E003DA4FF00002A5F10105002AECD0D0
:103C700002981199C0E90231C0E9004579E70000D6
:103C8000000014400000F03F300000000000F0434E
:103C90000000E03F2DE9FF4F95B09A468846064662
:103CA0000025EEE1252877D100242746F94A012195
:103CB000039400E0044316F8013F203B01FA03F0AF
:103CC0001042F7D130782A2811D06FF02F033078C6
:103CD000A0F13002092A16D8039A44F0020402EB3C
:103CE000820203EB42021044761C0390EFE758F87F
:103CF000042B0392002A03DA504244F40054039048
:103D000044F00204761C30782E2816D116F8010FE4
:103D100044F004042A280DD06FF02F023078A0F16F
:103D20003003092B09D807EB870302EB4303C718BD
:103D3000761CF3E758F8047B761C30786C280FD09B
:103D400006DC4C2817D068280DD06A2814D104E06E
:103D5000742810D07A280FD10DE044F400140AE042
:103D600044F4801401E044F440147278824202D199
:103D700004F58014761C761C307866280BD013DC92
:103D8000582877D009DC002875D04528F6D0462879
:103D9000F4D047281AD193E118E0632835D064287D
:103DA00079D0652812D18BE1702873D008DC6728A0
:103DB000F1D069286FD06E280DD06F2806D1ACE005
:103DC00073282CD0752874D0782853D05246179970
:103DD00090476D1C54E1C4F30250022809D0032817
:103DE0000DD0D8F8001004280DD00D6008F104089B
:103DF00046E1D8F80010EA17C1E90052F6E7D8F812
:103E000000100D80F2E70D70F0E718F8041B8DF834
:103E1000001000208DF80100EB46012003E058F867
:103E200004BB4FF0FF3061074FF0000102D40DE0FA
:103E300009F101018946B9420FDA8145F8DB1BF827
:103E400009100029F4D108E009F1010189468142F5
:103E5000FADB1BF809100029F6D103985346A0EBB2
:103E6000090721463846179A00F080FA284400EBEB
:103E7000090507E044E008E10DE01BF8010B52469C
:103E800017999047B9F10109F7D2534621463846B0
:103E9000179AF2E039E00A21C4F302524FF0000B06
:103EA0000091022A06D058F8040BC117032A09D042
:103EB0000AE023E008F1070020F00702F2E802011F
:103EC000904605E000B2C117042A01D140B2C117E3
:103ED000002906DA0A460021404261EB02012D2248
:103EE00002E0220504D52B228DF80420012203E0F4
:103EF000E20701D02022F7E7914657E00A2100E0CF
:103F000010214FF0000B00910BE010214FF0000B3F
:103F100044F004040827009103E008204FF0000B50
:103F20000090C4F30252022A05D058F8040B002175
:103F3000032A08D008E008F1070020F00702F2E8A1
:103F40000201904603E080B2042A00D1C0B24FF0D3
:103F5000000922072AD53278702A07D0DDF800C080
:103F60008CF0100C5CEA0B0C05D00EE040228DF8B2
:103F70000420012208E050EA010306D030238DF826
:103F800004308DF8052002229146009B83F008033F
:103F900053EA0B030AD150EA010201D1620705D5A9
:103FA00030228DF804204FF001097F1E3278582A04
:103FB00004D039A20C920CAA02920BE03BA2F9E7C2
:103FC0005B46009AFCF7F6F80C9B9B5C029A521E2B
:103FD0000292137050EA0102F2D1029804A9081A61
:103FE00000F1200B600702D524F4803400E00127A3
:103FF0005F4502DDA7EB0B0000E0002000EB0B01AA
:10400000009003984944401A0390E00306D45346B5
:104010002146179A039800F0A9F90544002706E005
:1040200001A85246C05D179990476D1C7F1C4F45F3
:10403000F6DBE0030CD553462146179A039800F0AF
:1040400095F9054404E030205246179990476D1CBD
:104050000099481E00900029F5DC08E002980299BA
:1040600052460078491C0291179990476D1CBBF18C
:104070000001ABF1010BF1DC5BE100F065F90544F7
:10408000761C307800287FF40DAE19B02846BDE8C4
:10409000F08F0000092801003031323334353637D3
:1040A0003839616263646566000000003031323384
:1040B0003435363738394142434445460000000024
:1040C000600700D4062708F1070020F00700F0E899
:1040D0000223804603F0004C5FEA0C0001D097A059
:1040E00009E0200501D596A005E0E00701D095A0E4
:1040F00001E0AFF24C001390307823F000436528C4
:104100000CD006DC452809D046281DD047287FD191
:104110003BE0662818D067287AD136E00021112FBD
:1041200001DB112000E0781CCDE9000104A90CA8F6
:10413000FFF7EEFCDDE90D010C9A4FF0000B07F1E3
:104140000109109200914EE04FF000400097CDE938
:10415000011004A90CA8FFF7DBFCDDE90D020C9BA4
:104160000F994FF0000B91461093009211B9791CF2
:1041700000EB0109B7EB090003D4C0F1FF3B07F1E5
:104180000109A9EB0700019042E0012F00DA0127A5
:104190000021112F01DD112000E03846CDE900019A
:1041A00004A90CA8FFF7B4FCDDE90D010C9A0091FD
:1041B0004FF0000BB946109221070FD4009A4A45E0
:1041C00003DA914601E0A9F10109B9F1010F05DD1A
:1041D000109AA9F10101515C3029F4D0B84202DAF9
:1041E00010F1040F03DA0121CDE9011010E00028DD
:1041F00003DC8344A9EB000102E0411C494500DDDA
:104200008946A0EB0B00401C01904FF0004002904B
:10421000200705D40198484502DB4FF0FF3001909C
:1042200000208DF84B0002980DF14B07B0F1004FC4
:1042300025D002200C902B200D90029800280CDA3B
:10424000404202902D200D9007E00A210298FBF7D2
:104250009BFF3031029007F8011D0C99481E0C900D
:104260000029F2DC02980028EFD1791E0D98087021
:10427000307800F0200040F0450007F8020D11A84A
:10428000C01BC01D02901398007800B1012000EB04
:104290000901019801EBE071029801440398401A6A
:1042A000401E0390E00306D453462146179A039814
:1042B00000F05CF805441398007818B1524617993D
:1042C00090476D1CE00323D553462146179A039867
:1042D00000F04CF805441BE0BBF1000F07DB009831
:1042E000584504DD1098179910F80B0001E0179954
:1042F00030205246904701980BF1010B401E05F10A
:104300000105019004D12E205246179990476D1C4B
:10431000B9F10001A9F10109DEDC05E017F8010B94
:104320005246179990476D1C0299481E0290002929
:10433000F4DC53462146179A03989EE62D000000B0
:104340002B000000200000002DE9F041044600256C
:104350001E461746880404D405E039462020B0479D
:104360006D1C641EF9D52846BDE8F0812DE9F041A9
:10437000044600251E469046C80301D5302700E0BC
:104380002027880404D505E041463846B0476D1C17
:10439000641EF9D52846BDE8F0810A68531C0B60FD
:1043A0001070704710B50446002084F80402401EC7
:1043B000C4F82C02204601F00FFE08B1032010BD06
:1043C000B4F8FE01A0F52A41553901D0022010BDF4
:1043D00094F8360094F8391094F8372040EA0161D7
:1043E00094F83800000440EA022001430A48B0EB88
:1043F000012F0DD014F8521FE278637841EA026170
:10440000A278120442EA03221143B0EB012F01D13A
:10441000002010BD012010BD00464154F0B500221F
:10442000184B144602EB420653F8265085B1D0F8DB
:104430000072BD420DD103EB8605D0F808626F68AB
:10444000B74206D12D89B0F80662B54204D000E02B
:104450000124521C022AE5D3022A01D079B904E0D2
:104460005CB9022909D01220F0BD02EB420003EB37
:1044700080004089B0F5807F01D00020F0BD102081
:10448000F0BD00006803002030B50021064A0C464C
:1044900001EB410352F82350854201D142F82340F9
:1044A000491C0229F4D330BD68030020D0F824222F
:1044B000D0F80002490A90F80202B1FBF0F0121D98
:1044C00002CA19B1884203D3401AF8E700207047A6
:1044D000116808447047D0F81422891E921E8A423F
:1044E00001D800207047D0F8282290F8020201FB82
:1044F000002070472DE9F0410F00054606D001F07D
:1045000099FB02280BD20120BDE8F081D5F80C629E
:104510001EB1D5F81402B04208D8012606E0411CAD
:10452000F2D0D5F814128142EED83E463446D5F882
:104530001402641CA04202D80224022E0AD321468F
:10454000284601F077FB38B1411CDDD00128DBD0D3
:10455000B442ECD10020D7E76FF0704221462846E4
:1045600001F055FD30B957B122463946284601F0D1
:104570004EFD20B1012812D001242046C4E7C5F821
:104580000C42D5F81002411CF7D0401EC5F81002AD
:1045900095F8050240F0010085F80502EDE74FF0BF
:1045A000FF34EAE72DE9F04789460C6800E0641C17
:1045B00021782F29FBD05C29F9D0D0F818520B2292
:1045C0002021284601F001FD002001460B46082667
:1045D000E25C5B1C202A35D92F2A33D05C2A31D0EB
:1045E0002E2A01D0B04208D3082E38D12E2A36D137
:1045F00008200B268906090EEAE7802A05D3244FF6
:1046000041F003013A4412F8802C22A700E07F1CFD
:1046100097F800C0BCF1000F02D09445F7D11EE01E
:10462000A2F14107192F02D841F0020107E0A2F1DF
:104630006107192F03D8203A41F00101D2B22A5460
:10464000401CC5E71C44C9F80040202A01D80422B8
:1046500000E0002218B12878E52803D004E0062005
:10466000BDE8F08705202870082E01D18806010ECC
:1046700001F00300012801D142F01002C1F38100D2
:10468000012801D142F00802EA720020E8E70000A8
:104690003A6B0008222A2B2C3A3B3C3D3E3F5B5DA7
:1046A0007C7F0000401E022815D20C4B00EB40021C
:1046B00003EB82014889B0F5807F05D008B1401E28
:1046C00080B2488110B104E00020FAE7002043F8EE
:1046D000220000207047022070470000680300207D
:1046E0002DE9F041B0F806620446761C30040F460E
:1046F000000C37D0D4F8100298B3310773D1401CA6
:10470000C4F81002D4F80C12D4F8000231B190F8B9
:104710000222521E12EA161F05D064E0B0F8080209
:10472000B0421FD95FE001F085FA054601281ED985
:10473000681C3AD0D4F80002D0F81412A94249D823
:104740007FB1D4F80C12FFF7D5FE05000DD0012D76
:104750000DD0681C29D0D4F8000201F07EFD20BBEA
:1047600007E0FFE70420BDE8F0810720FBE7022017
:10477000F9E74FF400720021D4F8000201F025FCA3
:104780002946D4F80002FFF7A6FED4F8001200274D
:104790004FF00108C1F82C0211E000BF80F804823C
:1047A000D4F8000201F059FD08B10120DBE7D4F88C
:1047B0000002D0F82C12491C7F1CC0F82C12D4F82F
:1047C000000290F80212B942E8D8D0F82C12C91BA6
:1047D000C0F82C12C4F80C522946D4F80002FFF796
:1047E0007AFEC4F81002A4F80662D4F8000206F0BB
:1047F0000F0100EB4110C4F814020020B3E770B5BC
:104800000446002100F036F810E0D4F81012D4F875
:10481000000201F0E1FB58B9D4F814020078E52851
:1048200009D040B101212046FFF75AFF0028ECD003
:10483000042809D009E0D4F81012D4F8000201F0DD
:10484000CBFB050003D013E00720054610E0D4F8A9
:1048500014022022002104F5007401F0B6FBD4E913
:1048600005010B2201F0A8FB2168012081F8040258
:10487000284670BD70B5A0F80612D0F808320D4673
:104880000446012B40D0D4F80002D0F8141299420B
:104890003AD933B990F80012032906D1D0F824325E
:1048A0001BB190F80202060114E0B0F80812A94208
:1048B0002AD9D0F8240214E001F0BCF90346401CC8
:1048C00020D0022B20D3D4F80002D0F81402984252
:1048D0001AD9AD1BD4F80002B5421946ECD2FFF745
:1048E000FAFDC4F80C3278B100EB1510C4F81002D0
:1048F000D4F8000205F00F0100EB4110C4F81402D7
:10490000002070BD012070BD022070BD084910B5A7
:104910000B5C002253B901220A540A1801EB8000F3
:10492000127A40680168104688470246104610BD5A
:104930008003002030B4054C231804EB80001B7A60
:10494000406804691846A44630BC604780030020D4
:1049500030B4054D2C1805EB8000247A406885683A
:104960002046AC4630BC604780030020044A111842
:1049700002EB8000097A4068426808461047000050
:104980008003002030B4054D2C1805EB8000247AFC
:104990004068C5682046AC4630BC604780030020B4
:1049A00010B5044600F024FE00280DD1204601F089
:1049B00084FC002808D1D4F82802FFF773FE0028F1
:1049C00002D10021C4F8001210BD2DE9F74F1446A2
:1049D0008A4600226946204600F052FF24685FEABA
:1049E000000859D1D4E98407B91E884202D8CAF810
:1049F000000051E094F800920025B9F1010F02D0B7
:104A0000D4F8206217E002263146204601F012F960
:104A1000411C03D0012803D028B105E0012000E0AB
:104A2000022080462EE06D1CD4F81402761C8642CB
:104A3000EAD327E051B93146761C204601F0CCFA82
:104A40005FEA00081ED120464FF40071B9F1020F51
:104A50000DD00278C37890F801C042EA03628378EF
:104A60001B0443EA0C231A43120106D006E0028815
:104A700002B96D1C801C891E02E06D1C001D091FFF
:104A80007F1ED7D1C4F8105294F8050240F00100FF
:104A900084F80502CAF800504046BDE8FE8F0000C9
:104AA0002DE9FC5F0D46044601F007FC5FEA0009B2
:104AB00073D194F8070200286FD1D4F8240201279B
:104AC0004FF0020A002869D0691C33D0D4F80C02D8
:104AD000A84200D20546C4F80852002D5CD02046FA
:104AE000691EFFF7E3FC0146C4F81402D4F8000283
:104AF000FFF7F1FC00287CD0D4F800126D1E91F86D
:104B00000222521E02EA55221518B4F80802C00506
:104B1000E4D0D4F81822AA42E0D094F80602400665
:104B200046D591F8010201232146FFF72BFF00280B
:104B300074D137E002C80091D4F8101283460225E0
:104B400009B30026AD1C01918846761CD4F80002FA
:104B500001F070F8014601284BD9481C5ED008F1DD
:104B600001008142F0D00098854206D8CBF8006061
:104B70000BF10400019A04C08346D4F80002D0F877
:104B800014028842DDD8D4F82402056000988542DA
:104B900005D80021CBF80010C2E09DE016E04FF0F0
:104BA0001109BDE094F8060220F0400084F80602E6
:104BB000D4F8000201232A4690F801022146FFF7AB
:104BC000C7FE00282AD1C4F81852A9E0D4F80C0274
:104BD000A84204D294F80612890700D405464FF083
:104BE0000008D4F80802C4F808824DB3D4F80022B3
:104BF00000E06EE092F802124E0280B1691E401E83
:104C0000B1FBF6F1B0FBF6F3994208D3711E88436D
:104C1000C4F808022D1AD4F8141210E06EE0D4F88B
:104C2000101251B900211046FFF764FC014601281B
:104C30004FD0481C62D0C4F81012C4F8141211BB33
:104C400031E000BF94F806028007D4F8000205D5D1
:104C5000FFF750FC010004D1354616E000F0EAFFF2
:104C60000146481C4AD0012933D9D4F80002D0F8B3
:104C7000140288422DD9C4F81412D4F80802AD1BCE
:104C80003044C4F80802B542DCD8D4F808022844FD
:104C9000C4F80802E80506D0D4F80002FFF71BFCB0
:104CA000B8B100EB5528B4F80802C0052CD0D4F8F0
:104CB0001822424528D094F80602400614D5D4F8AC
:104CC00000020123214690F80102FFF75BFEA8B91C
:104CD00004E084F807A20220BDE8FC9F94F80602D5
:104CE00020F0400084F80602D4F800020123424676
:104CF00090F801022146FFF72BFE18B184F80772E5
:104D00000120E9E7C4F81882D4E98201884207D972
:104D1000C4F80C0294F8060240F0200084F8060261
:104D20004846D9E72DE9F74F8EB015460F98012870
:104D300003D9132011B0BDE8F08F0EA800F0E2FFF8
:104D4000002801DA0B20F5E7FE4951F8204054B164
:104D5000002184F80012C0B20390FFF7D7FDC1070D
:104D600003D00320E6E70C20E4E7400701D50A2042
:104D7000E0E708AA01210398FFF7DCFD00287DD1B8
:104D8000089980297AD30F9808B1002000E03F20CD
:104D90008046A1EB0801681E0542089100D17DB94B
:104DA0004FF4FA60B1FBF0F20020E74B00E0401C4A
:104DB00033F810509542FAD8E34A163232F81050C0
:104DC000B5F5007F00D36D0A85B1802D00D980250F
:104DD000B1FBF5F0012640F6F672904200D30226B0
:104DE0004FF6F672904203D3032620E00125EFE749
:104DF000032E1CD0012E23D04000001D00F2FF1016
:104E0000470A4FF001092020834608EB090A0AEB04
:104E10000700584442190090A2EB0800884247D886
:104E200009AA03210398FFF785FDA0B90EE040F21F
:104E3000072202EB8000470A4FF020090020E3E739
:104E400000EB4000401C4008C01CD7E7099810B197
:104E5000B0F5004F01D90120099009990098084444
:104E6000401E491E88430099401A0990032E12D013
:104E700007440898A0EB0901CA1B00E0DDE0A2EBA3
:104E80000B01B1FBF5F10D91022E07D0032E0AD0D4
:104E9000012E15D019E081448244EAE740F6F6720B
:104EA000914205D311E008464FF6F671884201D2CF
:104EB0000E203FE70C2002900F9868B1F02045E0EB
:104EC000B0F5803F06D20120F5E7B0F5803F01D272
:104ED0000420F0E70620EEE74FF4007200212046A0
:104EE00001F073F804F5DF70012141708170002139
:104EF000C170029A0271FE224271089B08EB030204
:104F000043F6C163B2FBF3F23F2343EA920C0992EA
:104F100080F806C0C271037241728172C172089931
:104F200001730A0A42730A0C8273090EC173552079
:104F300084F8FE01AA2084F8FF0101230022214603
:104F40000398FFF71FFD002877D1F82002904FF457
:104F500000720021204601F038F80B227BA1204688
:104F600001F02AF80021E17202202073657384F8B1
:104F70000E904FEA1920E07301202074032E0BD00D
:104F800040026074000AA0740898B0F5803F05D212
:104F9000E074000A20750CE00020F2E784F820009D
:104FA000020A84F82120020C84F82220000E84F8E2
:104FB0002300029860753F202076002060764FF035
:104FC000FF0984F81A90E07684F81C804FEA1820D4
:104FD00060774FEA1840A0774FEA1860E07700F05A
:104FE0008FFE802129220990032E27D084F82700E4
:104FF000030A84F82830030C84F82930000E84F862
:105000002A00A775380AE07584F8241084F8262051
:10501000132251A104F12B0000F0CEFF552084F89B
:10502000FE01AA2084F8FF0101234246214603988D
:10503000FFF7A8FC002800D133E0BDE084F843006E
:10504000030A84F84430030C84F84530000E84F8D9
:10505000460084F82470380A84F82500380C84F857
:105060002600380E84F82700022084F82C00002047
:1050700084F82D0084F82E0084F82F00012384F892
:10508000303084F83100062384F8323084F833005D
:1050900084F8401084F84220132234A104F1470020
:1050A000BAE7032E06D1012308F106022146039830
:1050B000FFF768FC4FF400720021204600F085FFE6
:1050C00002990991032E12D0012E0ED06FF0FF002D
:1050D0000843099020700998000A60700998000C34
:1050E000A0700998000EE0701EE02548F0E761F01E
:1050F000FF00099020700998000A60700998000C60
:10510000A0700998000EE07084F8049084F805906F
:1051100084F8069084F8079084F8089084F8099041
:1051200084F80A900F20E07252460AF10109012327
:1051300021460398FFF726FCF0BB4FF400720021D4
:1051400020461FE070000020BA6B0008EBFE904D77
:1051500053444F53352E30004E4F204E414D452085
:105160002020204641542020202020004E4F204E59
:10517000414D45202020204641543332202020003C
:1051800000FFFF0000F021FF01200AE04A4609F17C
:105190000109012321460398FFF7F4FB60B9099840
:1051A000401C0990B842F1D3032E00D05D464A4618
:1051B00009F10109012300E042E021460398FFF7CD
:1051C000E1FBE8BB6D1EF2D1032E3CD152202070D2
:1051D00060706120A0704121E170722284F8E421A6
:1051E00084F8E52184F8E61184F8E7010D9801239D
:1051F000401E84F8E801010A84F8E911010C84F8E2
:10520000EA11000E84F8EB01022084F8EC01002082
:1052100084F8ED0184F8EE0184F8EF01552084F85C
:10522000FE01AA2084F8FF0108F10102214603983B
:10523000FFF7A8FB012308F107022146039800E0CD
:1052400009E0FFF79FFB002211460398FFF772FB6E
:1052500000283FF478AD01206CE500002DE9F7410E
:1052600081B0904602980090684600F04BFD040023
:1052700003D50B2004B0BDE8F0810E4E002756F890
:10528000245025B12846FFF7FFF885F800720198F1
:10529000002801D080F8007246F8240002D0B8F14E
:1052A000010F01D00020E5E7002202A901A800F0CB
:1052B000E7FADFE7700000202DE9F747ADF50B7D39
:1052C00006000ED04FF0000802F01F0727F0010281
:1052D0008CA980A8C6F8008200F0D2FA040005D09C
:1052E000B9E009200DF50E7DBDE8F08788A886900D
:1052F00068468C9900F02CFC859D04000BD11DB1F3
:10530000780803D0012102E0062404E00021684669
:10531000FFF784F8044617F01C0F5FD04FF0010A26
:10532000D4B1042C13D100204D4902E0401C0228C6
:1053300005D200EB400251F82220002AF6D10228C3
:1053400004D06846FFF75BFA044600E01224859D0E
:1053500047F0080754B17EE0E87A10F0110F01D051
:10536000072478E0780701D5082474E0380743D58E
:1053700000F0C6FCA873010AE973010C2974000E41
:10538000687485F80B8085F81C8085F81D8085F889
:105390001E8085F81F802946809800F021FD8146F7
:1053A0000021284600F0F6FE8099B9F1000F81F83F
:1053B00004A21FD080984946D0F82CA200F0A2FE8B
:1053C000040048D18099A9F10100C1F80C025146AE
:1053D000809800F001FE04000AD03CE0DCBBE87AD3
:1053E000C10601D5042436E0B90701D5C007B7D1FD
:1053F000380701D547F020078098D0F82C02C6E97D
:105400008705780801D0012100E00021684600F0FE
:1054100097FCC6F8280200B386F8067286F8078261
:105420004746294606F50076809800F0D9FC3061A1
:10543000287FE97F6A7F40EA0160A97F090441EA89
:1054400002210843C6E90270B76177628098306034
:10545000B0F80602B080204644E70224FBE70000D3
:10546000680300202DE9F84F88460021994615462B
:105470000446196000F021FF002812D194F80702B9
:1054800000280ED194F80602C00709D0D4E98201A1
:10549000081A01274FF0020A854200D90546A2E00A
:1054A0000720BDE8F88F00BFD4F80812C8057CD1EA
:1054B000D4F8000290F80222521E02EA512212F0A1
:1054C000FF0614D131B1D4F8242232B12046FEF7C0
:1054D000EDFF06E0D4F8100203E0D4F8141200F057
:1054E000A9FB022823D3411C5BD0C4F81402D4F8D2
:1054F0001412D4F80002FEF7EEFFC0B13044009061
:10550000680A5FEA000B2AD0D4F8001206EB0B02FF
:1055100091F80202824201D9A0EB060B91F8010238
:105520005B464146009AFFF713FAD0BB03E084F8CC
:1055300007A20220B5E794F8060240060CD5D4F87D
:1055400018120098081A584506D208EB40204FF46C
:105550000072214600F030FD4FEA4B2637E0D4F8C8
:1055600018220098824221D094F8060240060ED5F7
:10557000D4F800020123214690F80102FFF702FA55
:1055800078B994F8060220F0400084F80602D4F8B6
:1055900000020123214690F80102009AFFF7D8F992
:1055A00020B184F8077201207BE702E00098C4F87C
:1055B0001802B4F80802C0F30800C0F50076AE4245
:1055C00000D92E4601193246404600F0F5FCD4F8C9
:1055D0000802B0443044C4F80802D9F80000811928
:1055E000AD1BC9F80010002D7FF45EAF002058E716
:1055F00070B5044600F061FE002811D194F806123F
:105600008A060DD5480612D5D4F80002012321469A
:1056100090F80102D4F81822FFF7B4F908B101207C
:1056200070BD94F8060220F0400084F80602D4F819
:105630001C12D4F8000200F0CFFC0028F0D1D4F8FE
:105640002052E87A40F02000E87294F80C022877A3
:10565000B4F80C02000A6877D4F80C02000CA877A2
:10566000D4F80C02000EE877D4F81012284604F59E
:10567000007400F08FFD00F043FBA875010AE97586
:10568000010C2976000E68760020A874E874A079D1
:1056900020F02000A0712168012081F80402206818
:1056A000BDE8704000F07EBD2DE9F84F884600212E
:1056B000994615460446196000F0FFFD002808D100
:1056C00094F80702002804D194F80602800702D457
:1056D0000720BDE8F88FD4F80802012741194FF0E0
:1056E000020A81427BD3B9E0D4F80812C80577D109
:1056F000D4F8002292F80202401E00EA512010F075
:10570000FF061ED131B1D4F8240240B12046FEF785
:10571000CDFE09E0D4F8100240B9002101E0D4F830
:1057200014121046FEF7E6FE002858D001283DD09E
:10573000411C6CD0C4F81402D4F8101209B9C4F892
:10574000100294F80602400610D5D4F80002012396
:10575000214690F80102D4F81822FFF713F9E8BBAC
:1057600094F8060220F0400084F80602D4F81412DF
:10577000D4F80002FEF7AFFEC0B130440090680AD2
:105780005FEA000B30D0D4F8000206EB0B0290F871
:1057900002128A4201D9A1EB060B90F801025B4686
:1057A0004146009AFFF7EEF8C0B903E084F807A27B
:1057B00002208EE7D4F818120098081A58450CD227
:1057C00008EB40214FF40072204600F0F5FB94F8FE
:1057D000060220F0400084F8060202E017E040E0F4
:1057E0001CE04FEA4B262DE0D4F8181200988142B5
:1057F00011D0D4E9820188420DD2D4F800020123ED
:10580000214690F80102009AFFF7A2F818B184F837
:10581000077201205DE70098C4F81802B4F8080286
:10582000C0F30800C0F50076AE4200D92E462044F1
:105830003246414600F0C0FB94F8060240F04000BA
:1058400084F80602D4F80802B0443044C4F80802D0
:10585000D9F800008119AD1BC9F80010002D7FF4A4
:1058600043AFD4E98201884201D9C4F80C0294F80C
:10587000060240F0200084F80602002029E700001C
:105880002DE9FF474FF000090746C0F80090164683
:10589000084600F037FA050003D50B2004B0BDE838
:1058A000F087A84850F82540A4B13C6094F8000265
:1058B00028B194F80102FFF759F8C1070CD084F819
:1058C0000092E8B284F80102FFF720F8C10708D07F
:1058D0000320E3E70C20E1E70EB1400704D40020E9
:1058E000DCE71EB1400701D50A20D7E7002529468D
:1058F0002046FEF757FD012827D100214FEA0D076A
:1059000004EB011090F8C22100F5DF704AB1027A71
:10591000C37A42EA0362837A407A1B0443EA002096
:10592000024347F82120491C0429E9D35FF000060F
:1059300057F826502DB129462046FEF733FD08B909
:1059400009E00220761C042EF2D3032801D0E8BB24
:1059500001E00120A2E7B4F80B00B0F5007F70D1A0
:10596000E28A6AB994F8240094F8271040EA0162A8
:1059700094F8260094F82510000440EA0120024320
:10598000C4F81822217C84F80312012901D00229CD
:1059900057D1607B514384F80202B8B1431E1842CC
:1059A0004FD1B4F81130A4F808321E0749D1B4F829
:1059B00013607EB994F8206094F8237094F821C0A5
:1059C00046EA076694F822703F0400E039E047EAAF
:1059D0000C273E43B4F80EC0BCF1000F31D00CEBE5
:1059E000010707EB1317BE422BD3F61BB6FBF0F0F3
:1059F00038B3012640F6F678404500D302264FF62C
:105A0000F678404500D30326801C2F44C4F8287242
:105A1000AC44C4F81402C4E9875C032E13D083B1EC
:105A20006144C4F82412022E21D000F0010100EBE1
:105A3000400001EB500000BF00F2FF10B2EB502F0E
:105A400017D20D202AE7002BFBD194F82C1094F8E4
:105A50002F3094F82D7041EA036194F82E301B0426
:105A600043EA072319438000C4F82412E4E7400006
:105A7000E2E74FF0FF30C4F81002C4F80C028020B7
:105A800084F80502032E4FD1208E01284CD12046E8
:105A9000691C00F0A1FAE0BB84F80592B4F8FE019D
:105AA000A0F52A4155393FD12078E178627840EA63
:105AB0000160A178090441EA022108432249884291
:105AC00032D194F8E40194F8E71194F8E52140EA22
:105AD000016094F8E611090441EA022108431B49D8
